:100000000C94E3000C940B010C940B010C940B0169
:100010000C940B010C940B010C940B010C940B0130
:100020000C940B010C940B010C94F0020C946203E1
:100030000C940B010C940B010C940B010C940B0110
:100040000C940B010C9479070C940B010C940B018C
:100050000C940B010C940B010C940B010C94AA064C
:100060000C940B010C940B010C940B010C940B01E0
:100070000C940B010C940B010C940B010C940B01D0
:100080000C940B010C940B010C940B010C940B01C0
:100090000C940B010C940B010C940B010C940B01B0
:1000A0000C940B010C940B010C940B012E023102E9
:1000B000200224022A02520252025202350239025E
:1000C0003D024302470252024D020000000023009D
:1000D000260029002C002F000000000200090F005C
:1000E00000030401000C00000000000000000000FC
:1000F00000000000000000080B00020202010009DD
:100100000400000102020000052400100105240182
:1001100001010424020605240600010705810310DD
:10012000004009040100020A000000070502024025
:1001300000000705830240000004030904120100C7
:1001400002EF020140412337800001010203014117
:10015000726475696E6F204C4C430041726475691E
:100160006E6F204D6963726F00000000002500284B
:10017000002B002E00310000000000240027002A80
:10018000002D0030000404040404030405020202EC
:100190000204030202020206060606060604040220
:1001A0000202040404080201104080401020408034
:1001B00040800802040180402010020110801020BD
:1001C00040402000090D11241FBECFEFDAE0DEBF52
:1001D000CDBF11E0A0E0B1E0EAECFFE102C0059084
:1001E0000D92AA35B107D9F722E0AAE5B1E001C026
:1001F0001D92AD31B207E1F710E0C3EED0E004C0CC
:100200002197FE010E94DD0FC23ED107C9F70E946F
:10021000F9090C94E30F0C94000040916601509191
:100220006701209164013091650142175307B4F4CE
:100230009091E8009570E1F39091E80092FD19C06B
:100240008093F100809166019091670101968F7310
:100250009927892B19F48EEF8093E800809166012D
:10026000909167010196909367018093660181E008
:10027000089580E00895CF92DF92EF92FF920F935E
:100280001F93CF93DF931F92CDB7DEB7182F062FA2
:10029000E42E862F880F8E5F99830E940D0183E0E4
:1002A0000E940D01F12EC12E9981D92E8C2D8F190E
:1002B000801798F4F601E7FE02C0849101C08081A6
:1002C0000E940D01182F80E00E940D018123FFEF95
:1002D000CF1ADF0A8111EACF01C081E00F90DF91D0
:1002E000CF911F910F91FF90EF90DF90CF900895E5
:1002F000DF92EF92FF920F931F93CF93DF93D82E4D
:100300008A017B01E40EF51EEB01CE15DF0571F0CD
:10031000D7FE03C0FE01849101C088810E940D01B7
:1003200021968111F2CF8FEF9FEF01C0C801DF91BD
:10033000CF911F910F91FF90EF90DF900895615042
:1003400030F02091F100FC0120830196F8CF289A2B
:1003500084E6809371010895CF92DF92EF92FF922D
:100360000F931F93CF93DF936C017A018B01C0E051
:10037000D0E0CE15DF0589F0D8016D918D01D60151
:10038000ED91FC910190F081E02DC6010995892B3A
:1003900011F47E0102C02196ECCFC701DF91CF910D
:1003A0001F910F91FF90EF90DF90CF900895CF9322
:1003B000DF931F92CDB7DEB76983DC01ED91FC912D
:1003C0000280F381E02D41E050E0BE016F5F7F4F7E
:1003D00009950F90DF91CF91089583E08093E90014
:1003E0008091F200882319F08AE38093E800089551
:1003F000FC018485958597FD0BC09FB7F89482E03A
:100400008093E9008091F2009FBF90E001960895EB
:100410009FB7F89482E08093E9008091F2009FBF3B
:1004200090E00895089580E090E0089590E0FC0148
:100430003197EF30F105B0F5EA5AFF4F0C94DD0F1C
:10044000809180008F7703C0809180008F7D8093A2
:100450008000089580918000877FF9CF84B58F77E1
:1004600002C084B58F7D84BD0895809190008F7700
:1004700007C0809190008F7D03C080919000877F9E
:100480008093900008958091C0008F7703C0809181
:10049000C0008F7D8093C00008958091C200877F47
:1004A0008093C20008953FB7F894809160019091C5
:1004B0006101A0916201B091630126B5A89B05C0BE
:1004C0002F3F19F00196A11DB11D3FBFBA2FA92FD3
:1004D000982F8827820F911DA11DB11DBC01CD0150
:1004E00042E0660F771F881F991F4A95D1F708953C
:1004F0000F931F93CF93DF931F92CDB7DEB782E0A8
:10050000898342E450E067EF70E080E80E94780160
:100510000E94E509DC0112960D911C9113970115BB
:10052000110569F0D801ED91FC910280F381E02D75
:10053000BE016F5F7F4FC801099597FF07C0898192
:100540000F90DF91CF911F910F910895F8010085D1
:100550001185E5CF0E94D40990E00895CF93DF93F1
:100560001F92CDB7DEB7FC018485958597FD05C048
:100570002FEF3FEF358724870BC0CE0101960E94F5
:10058000AA09019719F4898190E002C08FEF9FEFCB
:100590000F90DF91CF9108950F931F93CF93DF9327
:1005A0001F92CDB7DEB78C01FC018485958597FF3E
:1005B0000EC0CE0101960E94AA09019719F4298163
:1005C00030E002C02FEF3FEFF80135872487F801B4
:1005D000848595850F90DF91CF911F910F9108959C
:1005E0001F920F920FB60F9211248F939F938091B9
:1005F000E1009091E100937F9093E10083FF0FC0B1
:100600001092E90091E09093EB001092EC0092E3DD
:100610009093ED001092720198E09093F00082FFA9
:1006200020C093E09093E9009091F200992319F093
:100630009AE39093E80090916801992339F09091A2
:100640006801915090936801992389F1909171010B
:10065000992339F0909171019150909371019923F0
:1006600041F184FF10C08091E2008E7E8160809312
:10067000E2008091E1008F7E8093E10080916A0129
:100680008E7E806111C080FF16C08091E2008E7E58
:1006900080618093E2008091E1008E7E8093E10092
:1006A00080916A018E7E816080936A0104C05D98AA
:1006B000CDCF2898D6CF9F918F910F900FBE0F90DE
:1006C0001F9018951F920F920FB60F921124CF9280
:1006D000DF92EF92FF920F931F932F933F934F93CD
:1006E0005F936F937F938F939F93AF93BF93EF939A
:1006F000FF93CF93DF93CDB7DEB76C97DEBFCDBF4F
:100700001092E9008091E80083FFEDC168E0CE011E
:1007100045960E949F0182EF8093E8008D8987FFB4
:1007200005C09091E80090FFFCCF03C09EEF90932E
:10073000E800982F907609F0C6C09E892F89188D01
:1007400091110CC0803829F480916B018093F100E5
:1007500002C01092F1001092F10048C1422F50E007
:10076000512B913051F4811141C14130510509F0B3
:100770003DC180916B018D7F0BC0933061F481117D
:1007800035C14130510509F031C180916B01826062
:1007900080936B012BC1953041F48091E80080FF7C
:1007A000FCCF20682093E30021C1963009F05FC0A0
:1007B000EB8CFC8C1092E90010926701109266019C
:1007C000123091F510926501109264010E94780236
:1007D00099E0BE016F5F7F4FDB01E92F1D92EA9523
:1007E000E9F799831A8391E09E8390EA98879AEFBC
:1007F00099872091660130916701275F3F4F3C83C5
:100800002B838D831092E90010926701109266018C
:10081000F0926501E092640149E050E080E00E94BE
:1008200078010E947802E2C0F0926501E0926401D2
:100830000E94E509DC011296ED90FC901397E114FB
:10084000F10409F4C0C0D701ED91FC910480F58159
:10085000E02DBE016B5E7F4FC7010995009719F02F
:100860000CF0C4C0C7C0F701E084F184E8CF973032
:1008700009F4C0C0983021F481E08093F100B6C043
:10088000993009F0B3C0837009F0B4C0E0E1F1E041
:1008900081E021E036E39081992361F08093E900C3
:1008A0002093EB0091919093EC003093ED008F5FDB
:1008B000873089F78EE78093EA001092EA008F89EB
:1008C0008093720193C08B8D9C8D1092E9001092E1
:1008D0006701109266019093650180936401898D90
:1008E000811156C08E899D89913A59F4813209F05F
:1008F00081C047E050E064E071E080E00E94780150
:1009000075C0913209F076C0833289F4888D90E009
:10091000982F88272F89822BA0E0B0E080930001D8
:1009200090930101A0930201B09303015FC0803254
:1009300069F48091E80082FFFCCF67E084E091E0F9
:100940000E949F018BEF8093E80006C0823209F07D
:100950004DC08F8980930B0180916901882319F024
:10096000EEEFFAE002C0E0E0F8E08091040190913F
:100970000501A0910601B0910701803B9440A105BB
:10098000B10509F07BC080910B0180FF93C076C058
:100990000E94E509DC0112960D911C911397011537
:1009A000110541F1D801ED91FC910190F081E02D0C
:1009B000BE016B5E7F4FC8010995811117C0F80118
:1009C00000851185ECCF113009F44EC0133091F43D
:1009D0008F89882309F445C0823081F440E86DE0B6
:1009E0008BE591E00E943B01882321F08EEF8093FC
:1009F000E80079C081E28093EB0075C0813029F472
:100A000040E86BE08FE491E0EDCF833099F70E94EE
:100A1000E509DC011296ED90FC9013978E010F5FB3
:100A20001F4F6801E114F10479F0D701ED91FC91B9
:100A30000680F781E02DB801C7010995080F111D47
:100A4000F701E084F184EECFD8011C92F601019009
:100A50000020E9F73197BF016C197D0940E0C6011C
:100A6000C1CF69E371E002C06DE371E0611571050A
:100A700009F2FB01449150E080E840CF0FB6F894B2
:100A8000A89580916000886180936000109260005A
:100A90000FBEA895EE3F2AE0F20739F08091FE0ADA
:100AA0009091FF0A91838083A1CF1092FF0A109248
:100AB000FE0A9CCFEE3F8AE0F80731F080819181F9
:100AC0009093FF0A8093FE0A87E797E791838083DC
:100AD0009BE088E10FB6F894A895809360000FBE64
:100AE0009093600083CF6C960FB6F894DEBF0FBE74
:100AF000CDBFDF91CF91FF91EF91BF91AF919F91CA
:100B00008F917F916F915F914F913F912F911F91A5
:100B10000F91FF90EF90DF90CF900F900FBE0F904E
:100B20001F901895CF93DF93282F30E0F901E852FA
:100B3000FF4F8491F901EC55FE4FD491F901EB5729
:100B4000FE4FC491CC2391F081110E941602EC2F2C
:100B5000F0E0EE0FFF1FE653FF4FA591B491EC912B
:100B6000ED2381E090E021F480E002C080E090E09D
:100B7000DF91CF9108951F93CF93DF93282F30E01B
:100B8000F901E852FF4F8491F901EC55FE4FD491E1
:100B9000F901EB57FE4FC491CC23C9F0162F8111F8
:100BA0000E941602EC2FF0E0EE0FFF1FE759FE4FF8
:100BB000A591B4918FB7F894111105C09C91ED2FB8
:100BC000E095E92302C0EC91ED2BEC938FBFDF9110
:100BD000CF911F9108958F929F92AF92BF92CF9223
:100BE000DF92EF92FF926B017C010E9453024B0156
:100BF0005C01C114D104E104F104F1F00E9453023C
:100C0000DC01CB0188199909AA09BB09883E9340E8
:100C1000A105B10570F321E0C21AD108E108F1087D
:100C200088EE880E83E0981EA11CB11CC114D1046B
:100C3000E104F10419F7DDCFFF90EF90DF90CF9042
:100C4000BF90AF909F908F9008958F929F92AF9298
:100C5000BF92CF92DF92EF92FF920F931F93CF93A9
:100C6000DF935C016B017A0180910B01882309F409
:100C70005BC080917201882309F456C080916A019B
:100C800080FF05C08091E00082608093E000E70172
:100C900010E00AEF83E0882E9AE3992E2097D9F18D
:100CA0000E94D40981110AC0015009F43DC061E0DD
:100CB00070E080E090E00E94EB05F0CF282F30E05C
:100CC000C217D3070CF48C2F4FB7F8948092E90029
:100CD0009091E80095FF1DC0282F30E0C21BD30B78
:100CE000F601982F915020F081918093F100FACF76
:100CF000C20ED31E112319F09092E80009C0809112
:100D0000E80085FD06C09092E80011E0209709F008
:100D100010E04FBFC3CF1111C3CF5D9A84E680931B
:100D200068011E141F0444F081E090E0F5019383F4
:100D3000828380E090E001C0C701DF91CF911F91D5
:100D40000F91FF90EF90DF90CF90BF90AF909F906A
:100D50008F9008951F920F920FB60F9211242F9328
:100D60003F938F939F93AF93BF9380915C0190913A
:100D70005D01A0915E01B0915F0130915B0123E0C4
:100D8000230F2D3720F40196A11DB11D05C026E8C3
:100D9000230F0296A11DB11D20935B0180935C017E
:100DA00090935D01A0935E01B0935F01809160011B
:100DB00090916101A0916201B09163010196A11D22
:100DC000B11D8093600190936101A0936201B09383
:100DD0006301BF91AF919F918F913F912F910F90A0
:100DE0000FBE0F901F901895CF93CFB7F8948091B6
:100DF0005A01811124C0E6E9F1E08491E5EBF1E0CC
:100E00009491E82FF0E0EE0FFF1FE958FE4FA591F7
:100E1000B491EC91E92321F461E081E10E94BB05EA
:100E200081E10E94EE078CB580618CBD8CB5806439
:100E30008CBD8FE00E94EE0780E10E94EE0780915A
:100E40005A018F5F80935A01CFBFCF9108950895C3
:100E50008EBD00000DB407FEFDCF8EB508958CBD8C
:100E60009DBD0895CF93DF93EC017B836A8360E09F
:100E700088810E94BB058091C3019091C4010E94AA
:100E80002F078B810E9428078A810E94280761E032
:100E90008881DF91CF910C94BB05CF93DF93EC0158
:100EA00060E08F810E94BB058091C5019091C601D1
:100EB0000E942F0780E00E94280761E08F81DF9168
:100EC000CF910C94BB05CF93DF93EC0160E08F8151
:100ED0000E94BB058091C5019091C6010E942F0719
:100EE0008CEF0E94280761E08F81DF91CF910C94F5
:100EF000BB051F920F920FB60F9211242F933F93B1
:100F00004F935F936F937F938F939F93AF93BF9311
:100F1000CF93DF93EF93FF9310926C018DE00E94CB
:100F2000920561E068278DE00E94BB051092F501F3
:100F30001092F6011092F7011092F801F89460E017
:100F40008091E7010E94BB058091C5019091C60187
:100F50000E942F0781E00E94280783E190E001971B
:100F6000F1F7C8EFD1E080E00E9428078A9381E082
:100F7000C53FD807C1F761E08091E7010E94BB053A
:100F80008091F70187FF04C08FEF8093F80102C0C2
:100F90001092F80178948091F5019091F601A0915A
:100FA000F701B091F80180936D0190936E01A093C9
:100FB0006F01B0937001FF91EF91DF91CF91BF91DD
:100FC000AF919F918F917F916F915F914F913F91E1
:100FD0002F910F900FBE0F901F90189590E0FC017D
:100FE000EC55FE4F2491FC01EB57FE4F8491882372
:100FF00099F090E0880F991FFC01E958FE4FA591E8
:10100000B491FC01E759FE4F859194918FB7F89404
:10101000EC91E22BEC938FBF0895CF93DF93EC011B
:1010200081E58B871C8688E08D8760E08F810E9438
:10103000BB058091C5019091C6010E942F078FE0EA
:101040000E9428078B850E9428078C850E9428070C
:101050008D850E9428078CEF0E94280780E00E945F
:10106000280780EF0E94280789850E949205019732
:10107000D9F361E08F810E94BB05DF91CF910C9481
:101080002707BC01009791F0FC0101900020E9F7CF
:101090003197AF01481B590BE0917301F091740136
:1010A0000280F381E02D83E791E0099480E090E0F5
:1010B0000895CF93DF930E944108EC0181E391E012
:1010C0000E9441088C0F9D1FDF91CF9108958F9250
:1010D0009F92AF92BF920F931F93CF93DF93CDB7A1
:1010E000DEB7A1970FB6F894DEBF0FBECDBF19A231
:1010F000423008F44AE08E010F5D1F4F842E912C80
:10110000A12CB12CA50194010E94BB0FE62FB901BF
:10111000CA0101501109EA3014F4E05D01C0E95C34
:10112000D801EC93232B242B252B61F7C8010E94B7
:101130004108A1960FB6F894DEBF0FBECDBFDF9178
:10114000CF911F910F91BF90AF909F908F90089576
:101150004F925F926F927F928F929F92AF92BF92C7
:10116000CF92DF92EF92FF926B017C01B42E9B0134
:10117000AC010E94B60F882319F08EE491E027C0DD
:1011800026013701E89477F82FEF3FEF4FE75FE74D
:10119000C301B2010E94B60F81110DC02FEF3FEFC6
:1011A0004FE75FE7C301B2010E94E50D18161CF47A
:1011B00082E591E00CC02FEF3FEF4FE75FE4C701FE
:1011C000B6010E94440F181684F486E591E0FF9062
:1011D000EF90DF90CF90BF90AF909F908F907F90D7
:1011E0006F905F904F900C9441082FEF3FEF4FE7C7
:1011F0005FECC701B6010E94E50D87FDE6CF20E058
:1012000030E0A901C701B6010E94E50D87FF11C0BA
:10121000E0917301F09174010190F081E02D6DE295
:1012200083E791E009954C01F7FAF094F7F8F09410
:1012300002C0812C912CA12C60E070E080E09FE343
:10124000AB1441F020E030E040E251E40E94EA0DAE
:10125000A394F6CF9B01AC01C701B6010E94790DA2
:101260002B013C010E94630E6B017C010E94920ED7
:101270009B01AC01C301B2010E94780D2B013C011E
:101280004AE0C701B6010E9467087C01E80CF91C1E
:10129000BB2069F0E0917301F09174010190F0813D
:1012A000E02D6EE283E791E00995E80EF91EDB2C54
:1012B000DD2021F120E030E040E251E4C301B20141
:1012C0000E94490F2B013C010E94630E4B01A12C8F
:1012D000B12C4AE0C501B4010E946708E80EF91E6E
:1012E000C501B4010E94920E9B01AC01C301B20181
:1012F0000E94780D2B013C01DA94DACFC701FF90F0
:10130000EF90DF90CF90BF90AF909F908F907F90A5
:101310006F905F904F9008950C944108CF93DF93A6
:101320004115510559F4E0917301F0917401019058
:10133000F081E02D83E791E0099502C00E946708E3
:10134000EC0181E391E00E9441088C0F9D1FDF9129
:10135000CF910895FC0180917201811103C08FEF3C
:101360009FEF08959FB7F89482E08093E900209161
:10137000F20030E01216130614F421E030E02115DB
:10138000310559F0289A84E6809371018091F1002B
:1013900080838091F200882319F09FBFC9010895CE
:1013A0008BE68093E800F9CF2FB7F89483E0809321
:1013B000E9009091E800892F807295FF04C0909118
:1013C000F20080E4891B2FBF0895809113028111E0
:1013D0000DC082E080930F0284E08093100210928F
:1013E00012021092110281E0809313028FE092E0CA
:1013F0000895789484B5826084BD84B5816084BD8D
:1014000085B5826085BD85B5816085BD80916E00A2
:10141000816080936E0010928100809181008260D3
:101420008093810080918100816080938100809110
:101430008000816080938000809191008260809321
:101440009100809191008160809391008091900043
:101450008160809390008091C10084608093C1007E
:101460008091C10082608093C1008091C100816041
:101470008093C1008091C30081608093C3008091FC
:10148000C00082608093C0008091C2008160809320
:10149000C20080917A00846080937A0080917A0003
:1014A000826080937A0080917A00816080937A00D4
:1014B00080917A00806880937A0010927201109275
:1014C0006B0110926A018091D70081608093D700F0
:1014D00080EA8093D80089B5806189BD89B5826032
:1014E00089BD09B400FEFDCF61E070E080E090E0CE
:1014F0000E94EB058091D8008F7C80618093D8009A
:101500008091E000807F8093E0008091E1008E7EFA
:101510008093E1008DE08093E200559A209A5D98D7
:101520002898EEEFFFE7859194918B3F9C4D19F43D
:1015300081E0809369018FEF9FEF9093800180930A
:101540007F0180910B020E94EE0761E080910B0207
:101550000E94BB05809107020E94EE0761E0809126
:1015600007020E94BB05809101020E94EE07809154
:1015700003020E94EE07809105020E94EE0760E0E0
:10158000809101020E94BB0560E0809103020E94ED
:10159000BB0560E0809105020E94BB058091F901C6
:1015A0000E94EE078091FB010E94EE078091FD01F1
:1015B0000E94EE078091FF010E94EE0760E080919B
:1015C000F9010E94BB0560E08091FB010E94BB0510
:1015D00060E08091FD010E94BB0560E08091FF0109
:1015E0000E94BB058091E7010E94EE0761E08091B7
:1015F000E7010E94BB058091CE010E94EE0761E0E9
:101600008091CE010E94BB058DE00E94EE0760E054
:101610008DE00E94BB05F89410928000109281002A
:10162000809181008C6080938100109285001092DF
:10163000840088E09DE39093890080938800C2E055
:10164000C6BB80916F00826080936F0000910D0196
:1016500010910E01B8018BE092E00E943207B801B0
:1016600087E092E00E94320760E0809101020E94D0
:10167000BB0560E0809103020E94BB0561E08091A0
:1016800005020E94BB0561E08091F9010E94BB0543
:1016900061E08091FB010E94BB0561E08091FD014A
:1016A0000E94BB0560E08091FF010E94BB0580EEB7
:1016B00091E00E940D0887EC91E00E940D0880E502
:1016C0008093EB0180E38093EC01C093ED0188E00F
:1016D0008093EE0181E08093EF0182E78093F00137
:1016E00088E996E09093E1018093E00160E08091C9
:1016F000E7010E94BB058091C5019091C6010E943F
:101700002F07CBEED1E01C2F1A5F89910E9428078A
:101710001C13FBCF8CEF0E94280780E00E94280753
:1017200080EF0E9428078091E9010E9492050197AD
:10173000D1F361E08091E7010E94BB050E94270779
:1017400080EE91E00E94630780EE91E00E944D07D9
:1017500087EC91E00E94630787EC91E00E944D07BF
:101760007894C0E0D0E0BB24B3940FEF1FEFF0906B
:101770000B016AE070E080E090E00E94EB05FF2042
:1017800009F402C1C0906D01D0906E01E0906F012C
:10179000F090700188E291E00E9459084AE06BE203
:1017A0007CEF8FE394E30E94A80881E391E00E941C
:1017B00041084AE060E070E0CB010E94A80884E3A1
:1017C00091E00E94590888E391E00E948C096091A1
:1017D0000D0170910E0180E090E04AE00E946708E0
:1017E00081E391E00E944108809170018F3F09F0F0
:1017F00090C084E491E00E948C0960916D01709129
:101800006E0180916F019091700140E150E00E9463
:101810008E0986E491E00E948C0980916D0190917F
:101820006E01A0916F01B0917001BC01CD019927AB
:1018300040E150E00E948E0980916D0190916E010F
:10184000A0916F01B0917001B095A0959095819590
:101850009F4FAF4FBF4FBC01CD01992740E150E0F2
:101860000E948E098FE291E00E948C0980916D01A7
:1018700090916E01A0916F01B0917001B095A0950B
:10188000909581959F4FAF4FBF4FBC01CD019927D8
:101890004AE050E00E948E098FE291E00E948C099C
:1018A00080916D0190916E01A0916F01B0917001D6
:1018B000B095A095909581959F4FAF4FBF4FBC01BC
:1018C000CD0199270E94920E2BE23CEF4FE354E3A7
:1018D0000E94490F4AE00E94A80889E491E00E9412
:1018E000590888279927DC018C199D09AE09BF0981
:1018F000BC01CD0199270E94920E2BE23CEF4FE3F1
:1019000054E30E94490F0E945C0E48E00E94670861
:1019100037C084E491E00E948C0960916D01709160
:101920006E0180916F019091700140E150E00E9442
:101930008E098CE491E00E948C0960916D01709198
:101940006E0180916F01909170014AE050E00E9419
:101950008E098CE491E00E948C0960916D01709178
:101960006E0180916F01909170010E94920E2BE2A6
:101970003CEF4FE354E30E94490F4AE00E94A8085D
:1019800089E491E00E94590880916C018823D9F183
:1019900020910C0180910D0190910E01222319F0EC
:1019A00085529F4F02C08B5D910990930E018093E9
:1019B0000D0180910D0190910E0185329F4F30F005
:1019C00010920C0110930E0100930D0180910D01F6
:1019D00090910E018B3D910530F4B0920C01109264
:1019E0000E0110920D01E0900D01F0900E01B70173
:1019F0008BE092E00E943207B70187E092E00E94FC
:101A0000320710926C01209709F4B1CE0E940000B9
:101A1000AECEE3E7F1E01382128288EE93E0A0E01D
:101A2000B0E084839583A683B7838AE191E09183B4
:101A300080838FEF9FEF95878487E3ECF1E080E56B
:101A4000808381E08183E5ECF1E094E590838183FC
:101A5000EBE1F2E0908381838AE090E090930C02C6
:101A600080930B020E94F40685E090E090930802B8
:101A7000809307020E94F406E1E0F2E084E090E047
:101A8000918380838CE090E09383828386E090E072
:101A900095838483E9EFF1E086E190E09183808390
:101AA00084E190E09383828383E190E09583848353
:101AB00082E190E097838683E0EEF1E0118210826C
:101AC00088E090E09087878383E090E09287818729
:101AD0000E94F406E7ECF1E01182108289E090E0C8
:101AE0009087878382E090E0928781870C94F40648
:101AF0005058BB27AA270E94900D0C940A0F0E94F1
:101B0000FC0E38F00E94030F20F039F49F3F19F4C7
:101B100026F40C94F90E0EF4E095E7FB0C94F30E0A
:101B2000E92F0E941B0F58F3BA1762077307840747
:101B3000950720F079F4A6F50C943D0F0EF4E0958E
:101B40000B2EBA2FA02D0B01B90190010C01CA0177
:101B5000A0011124FF27591B99F0593F50F4503E22
:101B600068F11A16F040A22F232F342F4427585F14
:101B7000F3CF469537952795A795F0405395C9F72C
:101B80007EF41F16BA0B620B730B840BBAF09150E4
:101B9000A1F0FF0FBB1F661F771F881FC2F70EC083
:101BA000BA0F621F731F841F48F487957795679556
:101BB000B795F7959E3F08F0B0CF9395880F08F042
:101BC0009927EE0F9795879508950E94CF0E08F4F8
:101BD00081E008950E94FE0D0C940A0F0E94030FED
:101BE00058F00E94FC0E40F029F45F3F29F00C945D
:101BF000F30E51110C943E0F0C94F90E0E941B0F22
:101C000068F39923B1F3552391F3951B550BBB272B
:101C1000AA2762177307840738F09F5F5F4F220F70
:101C2000331F441FAA1FA9F335D00E2E3AF0E0E867
:101C300032D091505040E695001CCAF72BD0FE2FB1
:101C400029D0660F771F881FBB1F26173707480745
:101C5000AB07B0E809F0BB0B802DBF01FF279358FD
:101C60005F4F3AF09E3F510578F00C94F30E0C94C0
:101C70003E0F5F3FE4F3983ED4F3869577956795E2
:101C8000B795F7959F5FC9F7880F911D9695879532
:101C900097F90895E1E0660F771F881FBB1F621751
:101CA00073078407BA0720F0621B730B840BBA0B0F
:101CB000EE1F88F7E09508950E94630E6894B111B5
:101CC0000C943E0F08950E94230F88F09F5798F0C0
:101CD000B92F9927B751B0F0E1F0660F771F881F31
:101CE000991F1AF0BA95C9F714C0B13091F00E944B
:101CF0003D0FB1E008950C943D0F672F782F882792
:101D0000B85F39F0B93FCCF3869577956795B39571
:101D1000D9F73EF490958095709561957F4F8F4FE0
:101D20009F4F0895E89409C097FB3EF490958095E5
:101D3000709561957F4F8F4F9F4F9923A9F0F92F91
:101D400096E9BB279395F695879577956795B7950F
:101D5000F111F8CFFAF4BB0F11F460FF1BC06F5FF5
:101D60007F4F8F4F9F4F16C0882311F096E911C007
:101D7000772321F09EE8872F762F05C0662371F028
:101D800096E8862F70E060E02AF09A95660F771F3C
:101D9000881FDAF7880F9695879597F90895990F18
:101DA0000008550FAA0BE0E8FEEF16161706E80725
:101DB000F907C0F012161306E407F50798F0621B46
:101DC000730B840B950B39F40A2661F0232B242B1B
:101DD000252B21F408950A2609F4A140A6958FEF3A
:101DE000811D811D089597F99F6780E870E060E08C
:101DF00008959FEF80EC089500240A9416161706A4
:101E000018060906089500240A94121613061406EB
:101E100005060895092E0394000C11F4882352F04E
:101E2000BB0F40F4BF2B11F460FF04C06F5F7F4F06
:101E30008F4F9F4F089557FD9058440F551F59F0ED
:101E40005F3F71F04795880F97FB991F61F09F3FA7
:101E500079F087950895121613061406551FF2CFD0
:101E60004695F1DF08C0161617061806991FF1CF20
:101E700086957105610508940895E894BB27662747
:101E80007727CB0197F908950E94CF0E08F48FEFC2
:101E900008950E945C0F0C940A0F0E94FC0E38F00B
:101EA0000E94030F20F0952311F00C94F30E0C9474
:101EB000F90E11240C943E0F0E941B0F70F3959F96
:101EC000C1F3950F50E0551F629FF001729FBB2731
:101ED000F00DB11D639FAA27F00DB11DAA1F649FCD
:101EE0006627B00DA11D661F829F2227B00DA11D80
:101EF000621F739FB00DA11D621F839FA00D611D06
:101F0000221F749F3327A00D611D231F849F600D26
:101F1000211D822F762F6A2F11249F5750409AF04F
:101F2000F1F088234AF0EE0FFF1FBB1F661F771FDB
:101F3000881F91505040A9F79E3F510580F00C94A6
:101F4000F30E0C943E0F5F3FE4F3983ED4F3869576
:101F500077956795B795F795E7959F5FC1F7FE2B46
:101F6000880F911D9695879597F908950E94CF0E39
:101F7000880B990B0895A1E21A2EAA1BBB1BFD0129
:101F80000DC0AA1FBB1FEE1FFF1FA217B307E40758
:101F9000F50720F0A21BB30BE40BF50B661F771FB0
:101FA000881F991F1A9469F7609570958095909590
:101FB0009B01AC01BD01CF010895EE0FFF1F0590FD
:0A1FC000F491E02D0994F894FFCF8E
:101FCA00FFFFFFFF00E100000000000001008000A9
:101FDA00C1808100000000000000D7012506AA0286
:101FEA00ED01F801AE02CC022D2D2D2D2D2D2D2D1A
:101FFA00000D0A00206D560069566F6C74616765A2
:10200A00203D200021003078002056002B006E6110
:0A201A006E00696E66006F766600C6
:2070000055C000006EC000006CC000006AC0000068C0000066C0000064C0000062C0000043
:2070200060C000005EC00000F2C400005AC0000058C0000056C0000054C0000052C00000EE
:2070400050C0000078C000004CC000004AC0000048C0000046C0000044C0000042C00000BE
:2070600040C000003EC000003CC000003AC0000038C0000036C0000034C0000032C0000048
:2070800030C000002EC000002CC000002AC0000028C0000026C0000024C0000022C00000A8
:2070A00020C000001EC000001CC0000011241FBECFEFDAE0DEBFCDBF11E0A0E0B1E0E2E3BC
:2070C000FFE702C005900D92A83AB107D9F711E0A8EAB1E001C01D92AE3BB107E1F78FD30B
:2070E00026C78ECFF89410926F0010928100109285001092840081E085BF15BE47985D98ED
:2071000028980C94000008952091B2013091B3012F5F3F4F3093B3012093B201932F37FFA8
:2071200003C08EEF831B982F990F921710F447980895479A08951F920F920FB60F9211246E
:207140002F938F939F93EF93FF9310928500109284008091A8019091A901009741F00197D3
:207160009093A9018093A801892B09F45D988091AA019091AB01009741F001979093AB0128
:207180008093AA01892B09F42898E0E0F0E0859194918F5F9F4F49F08091AC019091AD0153
:2071A00001969093AD018093AC01FF91EF919F918F912F910F900FBE0F901F90189584E0BC
:2071C0008093E9000DC08091E8008B778093E80003C08EB3882351F08091E80082FFF9CFBE
:2071E0008091E80085FFEFCF8091F1000895982F83E08093E9008091E80085FD0DC0809136
:20720000E8008E778093E80003C08EB3882369F08091E80080FFF9CF9093F1005D9A84E6C9
:2072200090E09093A9018093A80108954F925F926F927F928F929F92AF92BF92CF92DF921E
:20724000EF92FF920F931F93CF93DF9384E08093E9008091E80082FF57C2289A84E690E065
:207260009093AB018093AA01AADF182F853481F48CE49DE19093AD018093AC0107B600FC4B
:20728000FDCFF999FECF81E180935700E89503C0843519F494DF8DE00DC28C34E1F38035F9
:2072A000D1F3843721F484E4A2DF80E003C2813611F489E5FFC18134B1F481DF182F7FDFE3
:2072C00090E0880F991FAA2797FDA095BA2F312F330F20E0442737FD4095542F822B932B68
:2072E000A42BB52BB8C1803711F483E5E3C1833549F4C0E0D1E089917ADF21E0C730D20714
:20730000D1F7D9C1863521F481E371DF80E3D2C1833731F487E86BDF85E969DF8EE1CAC149
:207320008536B9F4E0E0F0E093E085E090935700E89507B600FCFDCF80935700E89507B65D
:2073400000FCFDCFE058FF4FA0E7E030FA0771F7A2CF823739F4E1E0F0E089E08093570024
:207360008491A8C1863439F4E0E0F0E089E08093570084919FC18E3439F4E3E0F0E089E0E5
:2073800080935700849196C1813539F4E2E0F0E089E08093570084918DC1823631F489E521
:2073A00026DF80E024DF80E885C1823419F0873609F0E5C01092AD011092AC0100DF082FE8
:2073C000FEDEF82EFCDE682E8554823008F071C1902F80E0CF2DD0E0C82BD92B10926F00B3
:2073E000173609F04BC081E180935700E895DD24CC24C3943FC0E090AE01F090AF010091CC
:20740000B0011091B101B6E46B16D9F4ED2DF0E0EE29FF29E4918E2FEADEDD2081F082E08D
:2074200090E0A0E0B0E0E80EF91E0A1F1B1FE092AE01F092AF010093B0011093B101DC2470
:2074400018C0D801C701B695A7959795879559D5CEDE82E090E0A0E0B0E0E80EF91E0A1FF2
:207460001B1FE092AE01F092AF010093B0011093B1012197209709F0BECF7DC08090AE01F5
:207480009090AF01A090B001B090B10196E4691609F05DC083E0F40180935700E89507B63E
:2074A00000FCFDCF54C0F6E46F1661F5772031F1E090AE01F090AF010091B0011091B1019E
:2074C0007EDED82ECC24852D90E08C299D29F7010C0140925700E895112482E090E0A0E08B
:2074E000B0E0E80EF91E0A1F1B1FE092AE01F092AF010093B0011093B10102C060DE582E1A
:20750000742423C0E090AE01F090AF010091B0011091B10116950795F794E79450DE682FFA
:20752000C701F7D48091AE019091AF01A091B001B091B1010296A11DB11D8093AE01909349
:20754000AF01A093B001B093B101219704C05524772444244394209709F0A5CF96E46916B6
:2075600041F485E0F40180935700E89507B600FCFDCF8DE03CDE82E080936F009CC0833492
:2075800071F40091AE011091AF0119DE90E021E0F8010C0120935700E89511247CCE8336C8
:2075A00019F5E090AE01F090AF010091B0011091B10105DEF701E16090E021E00C0120938C
:2075C0005700E895112482E090E0A0E0B0E0E80EF91E0A1F1B1FE092AE01F092AF0100936A
:2075E000B0011093B10157CE8D3661F4E091AE01F091AF0185E080935700E89507B600FCF2
:20760000FDCF49CE823551F4E091AE01F091AF0105911491812FEBDD802F4CC0843421F5FE
:20762000E090AE01F090AF010091B0011091B10116950795F794E794C2DD682FC70169D4DE
:207640008091AE019091AF01A091B001B091B1010296A11DB11D8093AE019093AF01A093D8
:20766000B001B093B10117CE843609F5E090AE01F090AF010091B0011091B101D801C70142
:20768000B695A795979587953CD4B1DD82E090E0A0E0B0E0E80EF91E0A1F1B1FE092AE010A
:2076A000F092AF010093B0011093B10104C08B3111F08FE39CDD83E08093E9009091E8002B
:2076C0008091E8008E778093E80095FF04C010C08EB38823C9F08091E80080FFF9CF809193
:2076E000E8008E778093E80003C08EB3882361F08091E80080FFF9CF84E08093E9008091F1
:20770000E8008B778093E800DF91CF911F910F91FF90EF90DF90CF90BF90AF909F908F90AC
:207720007F906F905F904F9008959091B601892F8F77813249F58091B7018032A1F081328A
:2077400019F5913A09F58091E800877F8093E8008DE091E067E070E00BD28091E8008B770B
:207760008093E8000895913279F48091E800877F8093E8008DE091E067E070E05DD2809192
:20778000E8008E778093E800089582E061EC42E0B5D083E061E842E1B1D084E060E842E1EF
:2077A000ADC084B7877F84BF88E10FB6F89480936000109260000FBE20E880E090E00FB63F
:2077C000F89420936100809361000FBE81E085BF92E095BF3F9A209A559AE1E6F0E02083A1
:2077E000108247985D982898109289008AEF8093880090936F0083E080938100F0C040911A
:20780000000850910108109201081092000894B714BE88E10FB6F8948093600010926000D5
:207820000FBE292F30E0F901E270F07091FD18C090FF05C0859194918F5F9F4F81F423FFFF
:207840000FC08091090190910A014817590741F0E0E0F0E0859194918F5F9F4F09F042DC64
:20786000A0DF78941092AD011092AC010CC0DEDC36D38091AC019091AD0181549F4110F00D
:207880001092140141DC80911401882381F78091E00081608093E00025DC80E090E0089598
:2078A000FA01923049F0933061F09130F9F485E191E022E130E01EC087E291E02EE330E04D
:2078C00019C0882329F485E691E024E030E012C0813029F489E691E022E230E00BC0823006
:2078E00029F48DE891E028E130E004C080E090E020E030E091838083C90108958093E9004E
:207900008091EB0081608093EB001092ED006093EC004093ED008091EE00881F8827881F62
:2079200008958091B60188238CF403C08EB38823B1F08091E80082FFF9CF8091E8008B772A
:207940008093E80008958EB3882349F08091E80080FFF9CF8091E8008E778093E800089594
:20796000EF92FF920F931F9345D04CD008ED10E0F80180818F77808380818068808380819B
:207980008F7D808319BC1EBA1092B40180EEE82EF12CF70180818B7F8083F8018081816052
:2079A000808380E060E042E0A9DFE1EEF0E080818E7F8083E2EEF0E0808181608083808144
:2079C00088608083F70180818E7F8083F8018081806180831F910F91FF90EF900895E7ED06
:2079E000F0E08081816080838AE482BF81E08093B501B6CFE8EDF0E080818E7F808310921C
:207A0000E20008951092DA001092E10008951F920F920FB60F9211242F933F934F935F93F6
:207A20006F937F938F939F93AF93BF93EF93FF938091DA0080FF1BC08091D80080FF17C0B2
:207A40008091DA008E7F8093DA008091D90080FF0BC080E189BD82E189BD09B400FEFDCF36
:207A600081E08EBB3BD203C019BC1EBA37D28091E10080FF17C08091E20080FF13C0809138
:207A8000E2008E7F8093E2008091E20080618093E2008091D80080628093D80019BC85E049
:207AA0008EBB1CD28091E10084FF2CC08091E20084FF28C080E189BD82E189BD09B400FEC5
:207AC000FDCF8091D8008F7D8093D8008091E1008F7E8093E1008091E2008F7E8093E20012
:207AE0008091E20081608093E2008091B401882331F48091E30087FD02C081E001C084E067
:207B00008EBBECD18091E10083FF21C08091E20083FF1DC08091E100877F8093E10082E06A
:207B20008EBB1092B4018091E1008E7F8093E1008091E2008E7F8093E2008091E2008061E9
:207B40008093E20080E060E042E0D8DEC7D1FF91EF91BF91AF919F918F917F916F915F9130
:207B60004F913F912F910F900FBE0F901F9018959C014091BC015091BD014617570718F49D
:207B8000F90190E044C06115710511F0AB01F8CF8091E8008E778093E80040E050E0F0CF0F
:207BA0008EB3882309F444C0853009F443C08091E80083FF02C081E008958091E80082FD70
:207BC00031C08091E80080FF22C08091F3009091F200782F60E0292F30E0262B372B07C07A
:207BE00081918093F100415050402F5F3F4F4115510519F02830310598F390E02830310566
:207C000009F491E08091E8008E778093E8004115510531F6992321F605C08EB3882341F075
:207C2000853041F08091E80082FFF7CF80E0089582E0089583E008959C016115710529F47C
:207C40008091E8008B778093E800F90126C08EB3882391F1853091F18091E80083FF02C06C
:207C600081E008958091E80082FFF1CF06C08091F10081936150704059F02091F300809191
:207C8000F200322F20E090E0822B932B892B79F78091E8008B778093E80061157105B9F601
:207CA00005C08EB3882341F0853041F08091E80080FFF7CF80E0089582E0089583E00895C2
:207CC0000F931F93DF93CF9300D0CDB7DEB7E6EBF1E08091F100819381E0EE3BF807C9F792
:207CE00024DD8091E80083FFE4C08091B6019091B701953009F46DC0963040F4913081F1A7
:207D0000913070F0933009F0D4C02AC0983009F4A3C0993009F4B2C0963009F0CAC07CC023
:207D2000803809F4C6C0823809F0C3C08091BA0187708093E9008091EB001092E9002091DB
:207D4000E800277F2093E80090E025E0969587952A95E1F781708093F1001092F10087C0D8
:207D6000882319F0823009F0A4C08F71823009F0A0C08091B801882331F52091BA01277097
:207D800009F497C02093E9008091EB0080FF1BC0933021F48091EB00806213C08091EB0018
:207DA00080618093EB0081E090E002C0880F991F2A95E2F78093EA001092EA008091EB00E5
:207DC00088608093EB001092E9008091E800877F51C0882309F06DC01091B8011F770FB79B
:207DE000F8948091E800877F8093E8009ADD8091E80080FFFCCF8091E3008078812B809398
:207E0000E30080688093E300112311F482E001C083E08EBB0FBF4DC08058823008F049C033
:207E20008091B8019091B9016091BA01AE014F5F5F4F36DDBC01009709F43BC08091E8008E
:207E4000877F8093E80089819A8192DE8091E8008B778093E8002DC0803859F58091E800AA
:207E6000877F8093E8008091B4018093F1008091E8008E778093E80054DD1BC08823C9F4CA
:207E80009091B8019230A8F48091E800877F8093E8009093B40145DD8091B401882331F420
:207EA0008091E30087FD02C081E001C084E08EBB6CDC8091E80083FF0AC08091EB0080624E
:207EC0008093EB008091E800877F8093E8000F900F90CF91DF911F910F91089508951F9360
:207EE0008EB3882361F01091E9001092E9008091E80083FF01C0E4DE17701093E9001F916F
:207F00000895F999FECF92BD81BDF89A992780B50895262FF999FECF1FBA92BD81BD20BDBD
:207F20000FB6F894FA9AF99A0FBE01960895F894FFCF4341544552494E4100777700080031
:207F40000000000000080112011001020000084123370001000201000109023E00020100FE
:207F600080320904000001020201000524001001042402040524060001070582030800FF0C
:207F800009040100020A000000070504021000010705830210000104030904220341007216
:207FA000006400750069006E006F0020004D006900630072006F0020002000200000001810
:1A7FC00003410072006400750069006E006F0020004C004C004300000000D7
:00000001FF
