:100000000C94E4000C94CF0E0C94A80E0C94810E6A
:100010000C945A0E0C940C010C940C010C94330E9D
:100020000C940C010C940C010C94AB030C941D0467
:100030000C940C010C940C010C940C010C940C010C
:100040000C940C010C94F60E0C940C010C940C0105
:100050000C940C010C940C010C940C010C94E90D03
:100060000C940C010C9473060C944D060C940C012A
:100070000C940C010C940C010C940C010C940C01CC
:100080000C940C010C940C010C940C010C940C01BC
:100090000C940C010C940C010C940C010C940C01AC
:1000A0000C940C010C940C010C940C01BD06C006C0
:1000B000AF06B306B906E106E106E106C406C806C6
:1000C000CC06D206D606E106DC06080B00020202C8
:1000D00001000904000001020200000524001001D3
:1000E0000524010101042402060524060001070578
:1000F000810310004009040100020A000000070506
:1001000002024000000705830240000004030904C6
:1001100012010002EF020140412337800001010279
:10012000030141726475696E6F204C4C430041724B
:100130006475696E6F204D6963726F000000000086
:100140002300260029002C002F00000000020009D7
:100150000F0000030401000C00000000000000007C
:100160000000000000000000000000000025002842
:10017000002B002E00310000000000240027002A80
:10018000002D0030000404040404030405020202EC
:100190000204030202020206060606060604040220
:1001A0000202040404080201104080401020408034
:1001B00040800802040180402010020110801020BD
:1001C000404020005A0FD81211241FBECFEFDAE0B2
:1001D000DEBFCDBF25E0AEE5B1E001C01D92A0328B
:1001E000B207E1F711E0A0E0B1E0E8E6FAE202C010
:1001F00005900D92AE35B107D9F710E0C3EED0E00F
:1002000004C02197FE010E941513C23ED107C9F711
:100210000E947D100C9427150C94000040916401FD
:10022000509165012091620130916301421753079B
:10023000B4F49091E8009570E1F39091E80092FD9C
:1002400019C08093F100809164019091650101963D
:100250008F739927892B19F48EEF8093E800809192
:10026000640190916501019690936501809364010A
:1002700081E0089580E00895DF92EF92FF920F935E
:100280001F93CF93DF93D82E8A017B01E40EF51ED6
:10029000EB01CE15DF0571F0D7FE03C0FE0184919E
:1002A00001C088810E940E0121968111F2CF8FEF4B
:1002B0009FEF01C0C801DF91CF911F910F91FF9077
:1002C000EF90DF900895615030F02091F100FC0133
:1002D00020830196F8CF289A84E680936A010895D6
:1002E000CF92DF92EF92FF920F931F93CF93DF9302
:1002F0006C017A018B01C0E0D0E0CE15DF0589F0FA
:10030000D8016D918D01D601ED91FC910190F081A4
:10031000E02DC6010995892B11F47E0102C02196BA
:10032000ECCFC701DF91CF911F910F91FF90EF901C
:10033000DF90CF900895FC01538D448D252F30E040
:10034000842F90E0821B930B541710F0CF960895E2
:1003500001970895FC01918D828D981761F0828D2F
:10036000DF01A80FB11D5D968C91928D9F5F9F73E9
:10037000928F90E008958FEF9FEF0895FC01918D8B
:10038000828D981731F0828DE80FF11D858D90E0F8
:1003900008958FEF9FEF0895FC01918D228D892F95
:1003A00090E0805C9F4F821B91098F73992708957D
:1003B0008CE691E00E94CC0121E0892B09F420E039
:1003C000822F0895FC01848DDF01A80FB11DA35A6F
:1003D000BF4F2C91848D90E001968F739927848F65
:1003E000A689B7892C93A089B1898C9180648C935C
:1003F000938D848D981306C00288F389E02D808147
:100400008F7D80830895EF92FF920F931F93CF9378
:10041000DF93EC0181E0888F9B8D8C8D981305C054
:10042000E889F989808185FD24C0F62E0B8D10E0C6
:100430000F5F1F4F0F731127E02E8C8DE8120CC039
:100440000FB607FCFACFE889F989808185FFF5CFDF
:10045000CE010E94E201F1CF8B8DFE01E80FF11D6C
:10046000E35AFF4FF0820B8FEA89FB89808180621B
:1004700007C0EE89FF896083E889F98980818064FB
:10048000808381E090E0DF91CF911F910F91FF90E9
:10049000EF900895CF93DF93EC01888D8823C9F006
:1004A000EA89FB89808185FD05C0A889B9898C917D
:1004B00086FD0FC00FB607FCF5CF808185FFF2CF18
:1004C000A889B9898C9185FFEDCFCE010E94E20108
:1004D000E7CFDF91CF91089580E090E0892B29F05C
:1004E0000E94D80181110C9400000895CF93DF93EE
:1004F0001F92CDB7DEB76983DC01ED91FC910280DC
:10050000F381E02D41E050E0BE016F5F7F4F099520
:100510000F90DF91CF91089583E08093E90080915F
:10052000F200882319F08AE38093E8000895FC0123
:100530008485958597FD0BC09FB7F89482E08093E2
:10054000E9008091F2009FBF90E0019608959FB767
:10055000F89482E08093E9008091F2009FBF90E0E0
:1005600008950E9412150F931F93CF93DF931F924C
:10057000CDB7DEB782E0898342E450E06AEC70E0F8
:1005800080E80E943C010E94AB07DC0112960D91AD
:100590001C9113970115110569F0D801ED91FC919B
:1005A0000280F381E02DBE016F5F7F4FC801099586
:1005B00097FF07C089810F90DF91CF911F910F9115
:1005C0000895F80100851185E5CF8F929F92AF9233
:1005D000BF92CF92DF92EF92FF920F931F93CF9330
:1005E000DF936C015B017A0180910B01882309F490
:1005F00056C080916B01882309F451C08091680135
:1006000080FF05C08091E00082608093E000E701F8
:1006100010E00AEF83E0882E9AE3992E2097B1F13B
:100620000E949A07811105C00150C9F10E94560726
:10063000F5CF282F30E0C217D3070CF48C2F4FB71B
:10064000F8948092E9009091E80095FF1DC0282F52
:1006500030E0C21BD30BF501982F915020F081910F
:100660008093F100FACFA20EB31E112319F09092DD
:10067000E80009C08091E80085FD06C09092E8007E
:1006800011E0209709F010E04FBFC8CF1111C8CF7B
:100690005D9A84E6809366011E141F0444F081E095
:1006A00090E0F6019383828380E090E001C0C7016F
:1006B000DF91CF911F910F91FF90EF90DF90CF903E
:1006C000BF90AF909F908F9008950E949A0790E0FE
:1006D00008950F931F93CF93DF931F92CDB7DEB78B
:1006E0008C01FC018485958597FF0EC0CE01019693
:1006F0000E947007019719F4298130E002C02FEFA2
:100700003FEFF80135872487F801848595850F90A0
:10071000DF91CF911F910F910895CF93DF931F9297
:10072000CDB7DEB7FC018485958597FD05C02FEF19
:100730003FEF358724870BC0CE0101960E947007DA
:10074000019719F4898190E002C08FEF9FEF0F901D
:10075000DF91CF9108951F920F920FB60F9211243F
:100760008F939F938091E1009091E100937F90930C
:10077000E10083FF0FC01092E90091E09093EB003D
:100780001092EC0092E39093ED0010926B0198E0D0
:100790009093F00082FF20C093E09093E900909145
:1007A000F200992319F09AE39093E8009091660182
:1007B000992339F0909166019150909366019923A5
:1007C00089F190916A01992339F090916A019150D1
:1007D00090936A01992341F184FF10C08091E20057
:1007E0008E7E81608093E2008091E1008F7E809315
:1007F000E100809168018E7E806111C080FF16C08B
:100800008091E2008E7E80618093E2008091E10021
:100810008E7E8093E100809168018E7E816080935E
:10082000680104C05D98CDCF2898D6CF9F918F9155
:100830000F900FBE0F901F9018951F920F920FB63A
:100840000F921124CF92DF92EF92FF920F931F939A
:100850002F933F934F935F936F937F938F939F93C8
:10086000AF93BF93EF93FF93CF93DF93CDB7DEB7F3
:100870006C97DEBFCDBF1092E9008091E80083FF46
:10088000EDC168E0CE0145960E94630182EF80933E
:10089000E8008D8987FF05C09091E80090FFFCCFAC
:1008A00003C09EEF9093E800982F907609F0C6C0A1
:1008B0009E892F89188D91110CC0803829F4809160
:1008C00069018093F10002C01092F1001092F100D2
:1008D00048C1422F50E0512B913051F4811141C158
:1008E0004130510509F03DC1809169018D7F0BC0F8
:1008F000933061F4811135C14130510509F031C1A6
:10090000809169018260809369012BC1953041F427
:100910008091E80080FFFCCF20682093E30021C194
:10092000963009F05FC0EB8CFC8C1092E9001092BD
:10093000650110926401123091F5109263011092DA
:1009400062010E94B30299E0BE016F5F7F4FDB013D
:10095000E92F1D92EA95E9F799831A8391E09E8326
:1009600090EA98879AEF9987209164013091650108
:10097000275F3F4F3C832B838D831092E9001092B9
:10098000650110926401F0926301E092620149E016
:1009900050E080E00E943C010E94B302E2C0F0926D
:1009A0006301E09262010E94AB07DC011296ED90B8
:1009B000FC901397E114F10409F4C0C0D701ED9144
:1009C000FC910480F581E02DBE016B5E7F4FC70175
:1009D0000995009719F00CF0C4C0C7C0F701E08476
:1009E000F184E8CF973009F4C0C0983021F481E059
:1009F0008093F100B6C0993009F0B3C0837009F05C
:100A0000B4C0E1E2F1E081E021E036E39081992396
:100A100061F08093E9002093EB0091919093EC00BA
:100A20003093ED008F5F873089F78EE78093EA007F
:100A30001092EA008F8980936B0193C08B8D9C8DFF
:100A40001092E90010926501109264019093630185
:100A500080936201898D811156C08E899D89913A5A
:100A600059F4813209F081C047E050E064E071E060
:100A700080E00E943C0175C0913209F076C083325B
:100A800089F4888D90E0982F88272F89822BA0E009
:100A9000B0E08093000190930101A0930201B09314
:100AA00003015FC0803269F48091E80082FFFCCFCF
:100AB00067E084E091E00E9463018BEF8093E8009F
:100AC00006C0823209F04DC08F8980930B0180915E
:100AD0006701882319F0EEEFFAE002C0E0E0F8E0E9
:100AE0008091040190910501A0910601B091070148
:100AF000803B9440A105B10509F07BC080910B01BA
:100B000080FF93C076C00E94AB07DC0112960D9166
:100B10001C9113970115110541F1D801ED91FC913C
:100B20000190F081E02DBE016B5E7F4FC8010995F9
:100B3000811117C0F80100851185ECCF113009F43F
:100B40004EC0133091F48F89882309F445C0823058
:100B500081F440E86DE08EE291E00E941D0F882351
:100B600021F08EEF8093E80079C081E28093EB0062
:100B700075C0813029F440E86BE082E291E0EDCF6E
:100B8000833099F70E94AB07DC011296ED90FC9040
:100B900013978E010F5F1F4F6801E114F10479F084
:100BA000D701ED91FC910680F781E02DB801C701D6
:100BB0000995080F111DF701E084F184EECFD801EB
:100BC0001C92F60101900020E9F73197BF016C19E2
:100BD0007D0940E0C601C1CF6CE071E002C060E178
:100BE00071E06115710509F2FB01449150E080E864
:100BF00040CF0FB6F894A8958091600088618093EB
:100C00006000109260000FBEA895EE3F2AE0F20748
:100C100039F08091FE0A9091FF0A91838083A1CFE1
:100C20001092FF0A1092FE0A9CCFEE3F8AE0F8076E
:100C300031F0808191819093FF0A8093FE0A87E7CB
:100C400097E7918380839BE088E10FB6F894A8959D
:100C5000809360000FBE9093600083CF6C960FB6B8
:100C6000F894DEBF0FBECDBFDF91CF91FF91EF9122
:100C7000BF91AF919F918F917F916F915F914F91B4
:100C80003F912F911F910F91FF90EF90DF90CF90A8
:100C90000F900FBE0F901F9018951F920F920FB6D6
:100CA0000F9211242F933F934F935F936F937F93F2
:100CB0008F939F93AF93BF93EF93FF938CE691E055
:100CC0000E94E201FF91EF91BF91AF919F918F91AF
:100CD0007F916F915F914F913F912F910F900FBE38
:100CE0000F901F9018951F920F920FB60F9211241C
:100CF0002F938F939F93EF93FF93E0917C01F0915B
:100D00007D018081E0918201F091830182FD12C01A
:100D10009081809185018F5F8F732091860182176A
:100D200051F0E0918501F0E0E459FE4F958F8093FA
:100D3000850101C08081FF91EF919F918F912F914B
:100D40000F900FBE0F901F90189590E0FC01319707
:100D5000EF30F105B0F5EA5AFF4F0C94151380916E
:100D600080008F7703C0809180008F7D809380000A
:100D7000089580918000877FF9CF84B58F7702C076
:100D800084B58F7D84BD0895809190008F7707C0D2
:100D9000809190008F7D03C080919000877F809329
:100DA000900008958091C0008F7703C08091C000AB
:100DB0008F7D8093C00008958091C200877F8093CB
:100DC000C20008951F93CF93DF93282F30E0F901DD
:100DD000E65BFE4F8491F901EC55FE4FD491F90189
:100DE000EB57FE4FC491CC23C9F0162F81110E94FE
:100DF000A506EC2FF0E0EE0FFF1FE759FE4FA5917F
:100E0000B4918FB7F894111105C09C91ED2FE09526
:100E1000E92302C0EC91ED2BEC938FBFDF91CF91D2
:100E20001F9108953FB7F89480915E0190915F0102
:100E3000A0916001B091610126B5A89B05C02F3F2C
:100E400019F00196A11DB11D3FBFBA2FA92F982FF0
:100E50008827820F911DA11DB11DBC01CD0142E06B
:100E6000660F771F881F991F4A95D1F7089590E064
:100E7000FC01EC55FE4F2491FC01EB57FE4F849191
:100E8000882399F090E0880F991FFC01E958FE4FE4
:100E9000A591B491FC01E759FE4F859194918FB7CC
:100EA000F894EC91E22BEC938FBF0895CF92DF92F0
:100EB000EF92FF920E9412076B017C010E941207C1
:100EC000DC01CB018C199D09AE09BF09883E934016
:100ED000A105B10598F3FF90EF90DF90CF900895B2
:100EE000FC0180916B01811103C08FEF9FEF08958A
:100EF0009FB7F89482E08093E9002091F20030E0FF
:100F00001216130614F421E030E02115310559F0D2
:100F1000289A84E680936A018091F1008083809111
:100F2000F200882319F09FBFC90108958BE68093D2
:100F3000E800F9CF2FB7F89483E08093E90090910F
:100F4000E800892F807295FF04C09091F20080E440
:100F5000891B2FBF08958091680281110DC082E026
:100F60008093640284E0809365021092670210927D
:100F7000660281E08093680284E692E00895089515
:100F8000089580E090E0089581E080930C03089537
:100F900081E080930B0308958EBD00000DB407FE21
:100FA000FDCF8EB508958FEF0C94CC0761E0FC0166
:100FB00084810E94E20680910F03811110920F0339
:100FC0000895CF93DF93EC018E81882389F08F8180
:100FD00098859C012F5F3F4F38872F838230924046
:100FE00018F40E94D307F3CFCE010E94D6071E82C9
:100FF000DF91CF9108952FB7F89460911805709103
:10100000190580911A0590911B052FBF08950F9324
:101010001F93CF93DF93EB010E94FB078B010E948C
:10102000D3078F3F49F00E94FB07601B710B6C17C1
:101030007D07A8F380E001C081E0DF91CF911F918F
:101040000F910895CF92DF92FF920F931F93CF934A
:10105000DF9300D000D0CDB7DEB76C01F62E298328
:101060003A834B835C830E94E10780910F032981BF
:101070003A814B815C81811109C081E080930F032B
:101080009091090280910A029CBD8DBD60E0F6013D
:10109000848129833A834B835C830E94E2066CE25D
:1010A00071E0C6010E9407088F2D80640E94CC0762
:1010B00008E110E05C814B813A812981DA01C901A4
:1010C000002E04C0B695A795979587950A94D2F7F8
:1010D00029833A834B835C830E94CC070850110913
:1010E00029813A814B815C81083FFFEF1F0731F76F
:1010F000FF2029F088E0F81204C087E803C085E9E2
:1011000001C08FEF0E94CC0710E00E94D307F601C8
:10111000828787FF04C01F3F11F01F5FF6CF0F903B
:101120000F900F900F90DF91CF911F910F91FF9033
:10113000DF90CF900895EF92FF920F931F93CF937C
:10114000DF93EC017901411551056105710511F439
:1011500082E13CC08B85833039F089E0440F551F14
:10116000661F771F8A95D1F79A01AB0168E1CE011E
:101170000E942208882311F084E028C08EEF0E948C
:10118000CC0787018EEFF81AF80181918F010E9438
:10119000CC070E151F05C1F78FEF0E94CC078FEF0C
:1011A0000E94CC070E94D3078A878F71853031F067
:1011B00081E18D83CE010E94D60709C068E572E007
:1011C000CE010E940708811107C085E18D83CE0101
:1011D0000E94D60780E013C020E030E0A9016DE056
:1011E000CE010E942208811104C00E94D3078823E7
:1011F00011F084E1EBCFCE010E94D60781E0DF91B0
:10120000CF911F910F91FF90EF900895CF93DF93AF
:1012100080911203882399F1C0911003D09111039A
:1012200040911601509117016091180170911901B8
:1012300027E133E0CE010E949B08811102C080E0CB
:101240001FC04091130350911403609115037091D6
:101250001603411551056105710579F027E133E069
:10126000CE010E949B08882351F310921303109221
:10127000140310921503109216031092120381E0CA
:10128000DF91CF910895BF92CF92DF92EF92FF92BC
:101290000F931F93CF93DF936B017C01B42E80914A
:1012A000160190911701A0911801B09119018C15A8
:1012B0009D05AE05BF0509F476C00E940609882386
:1012C00009F478C0C0911003D09111038E81882356
:1012D00069F088819981AA81BB81C816D906EA067E
:1012E000FB0621F48F819885892BB1F1C882D982C0
:1012F000EA82FB828B85A7019601833039F089E071
:10130000220F331F441F551F8A95D1F761E1CE018B
:101310000E942208882319F083E08D8337C00E9441
:10132000FB078B010E94D3078A878F3F49F40E94F5
:10133000FB07601B710B6D327140A0F38FE003C09F
:101340008E3F31F08DE08D83CE010E94D6071EC006
:1013500018861F8281E08E8307E113E00E94D30785
:10136000F80181938F01F5E007311F07B9F78F81ED
:1013700098859E5F98878F832985222319F0811590
:10138000924048F0CE010E94E10705C0CE010E94C4
:10139000D60780E00FC0C0921601D0921701E092EC
:1013A0001801F092190180911203482F4B294093A4
:1013B000120381E0DF91CF911F910F91FF90EF9089
:1013C000DF90CF90BF9008954F925F926F927F927F
:1013D0008F929F92AF92BF92CF92DF92EF92FF9245
:1013E0000F931F93CF93DF93EC016A017B012801D8
:1013F0003901423051056105710510F480E073C078
:1014000089859A85AB85BC850196A11DB11D841780
:101410009507A607B70790F38B889C88AD88BE8890
:101420008F89803129F4BB27AF2D9E2D8D2D09C0CA
:10143000DB01CA0147E0B695A795979587954A9530
:10144000D1F7880E991EAA1EBB1E8091160190919D
:101450001701A0911801B091190188169906AA06E2
:10146000BB0679F48F898031A1F4DD24EE24FF24BA
:10147000C601880F991FFC01E95EFC4F5182408232
:1014800019C040E0C501B4010E9443098111EACFAF
:10149000B5CFE894C7F8DD24EE24FF24C601880FF9
:1014A000991F880F991FFC01E95EFC4F4082518211
:1014B00062827382809112038160809312038A8911
:1014C000823080F08D819E81AF81B885880E991E13
:1014D000AA1EBB1E8092130390921403A0921503C0
:1014E000B092160381E0DF91CF911F910F91FF9091
:1014F000EF90DF90CF90BF90AF909F908F907F90B4
:101500006F905F904F9008958F929F92AF92BF928D
:10151000CF92DF92EF92FF920F931F93CF93DF93BF
:10152000FC0181859285A385B4850196A11DB11D1D
:1015300084179507A607B70710F480E05CC083897D
:101540009489A589B689C789C03129F4852E962E3C
:10155000A72EBB2409C04A015B01C7E0B694A7943B
:1015600097948794CA95D1F7E9016A017B018F01AD
:10157000BC01CD01680D791D8A1D9B1D809016014F
:1015800090901701A0901801B09019016815790585
:101590008A059B0599F4F80187898031A9F4B70180
:1015A000A601552766277727440F551FFA01E95EE4
:1015B000FC4F80819181A0E0B0E018C040E00E9423
:1015C00043098111E8CFB9CFB701A6014F7755275D
:1015D00066277727440F551F440F551FFA01E95E10
:1015E000FC4F80819181A281B381BF7088839983F0
:1015F000AA83BB8381E0DF91CF911F910F91FF9070
:10160000EF90DF90CF90BF90AF909F908F90089514
:101610003F924F925F926F927F928F929F92AF9282
:10162000BF92CF92DF92EF92FF920F931F93CF93CF
:10163000DF93CDB7DEB72C970FB6F894DEBF0FBEA1
:10164000CDBF5C01DC015B968D909C905C971696FB
:10165000CD90DD90ED90FC901997C114D104E10478
:10166000F10439F0BFEFCB1ADB0AEB0AFB0A312C8D
:1016700007C0F401C080D180E280F380332433942A
:10168000F40181859285A385B4859C01AD012F5F0E
:101690003F4F4F4F5F4F29873A874B875C87260123
:1016A00037011D821E821F821886F4018185928572
:1016B000A385B4852D813E814F8158852817390730
:1016C0004A075B0708F063C089859A85AB85BC85AE
:1016D0008C159D05AE05BF0550F482E0C82ED12CB7
:1016E000E12CF12C92E0492E512C612C712C9E01A1
:1016F0002F5F3F4FB701A601C4010E94840A8823CF
:1017000009F445C089819A81AB81BC81892B8A2BE0
:101710008B2B41F0260137019FEF491A590A690ABC
:10172000790A05C0C414D504E604F70491F02D81AC
:101730003E814F8158852F5F3F4F4F4F5F4F2D8325
:101740003E834F8358873FEFC31AD30AE30AF30A55
:10175000ACCF0FEF1FEF2FEF3FE0B301A201C401A9
:101760000E94E409882399F0D50116964D915D9168
:101770006D917C911997411551056105710549F0ED
:1017800093018201C4010E94E409811102C080E03A
:101790002AC0D50116964D925D926D927C92199752
:1017A000332051F0D301C2010196A11DB11DF401F6
:1017B00080839183A283B383F5018789908DA18D66
:1017C000B28D892B8A2B8B2B69F4D50157964D92BC
:1017D0005D926D927C925A9714968C9114978068C2
:1017E00014968C9381E02C960FB6F894DEBF0FBE52
:1017F000CDBFDF91CF911F910F91FF90EF90DF90C0
:10180000CF90BF90AF909F908F907F906F905F90A0
:101810004F903F9008954F925F926F927F928F9278
:101820009F92AF92BF92EF92FF920F931F93CF932D
:10183000DF9300D000D01F92CDB7DEB78C016D834F
:10184000DC0115968C911597813009F057C01496DC
:101850008C9181FF53C05AC0038CF48DE02D2585F7
:1018600030E0275F3F4F2A013B01B1E04B1A51089E
:1018700061087108022E04C07694679457944794C7
:101880000A94D2F7D501C4010197A109B10904C096
:10189000B695A795979587952A95D2F784159505BE
:1018A000A605B70508F070C0F8014789508D618D15
:1018B000728D46835783608771872C013D017801C3
:1018C000E6E0EE0EF11CD8014114510461047104EC
:1018D00009F464C016964D915D916D917C911997B4
:1018E00097015B968D919C915C970E94840AB1E070
:1018F0004B1A5108610871088111E5CF81E090E031
:10190000F8019383828380E090E04FC182FF0EC094
:10191000F801428553856485758583889488A588F8
:10192000B688481559056A057B05F1F4D8011A9661
:101930004D915D916D917C911D975B968D919C91E0
:101940005C97FC0174807A944A015B0129E0B694AB
:10195000A794979487942A95D1F778207A01F1E09B
:10196000FF22772011F164C081149104A104B10415
:1019700009F072CF1682178210861186F80112863E
:10198000138614861586D2CF452B462B472B09F498
:101990008BCF84199509A609B7098FCF1A968D9216
:1019A0009D92AD92BC921D97C1CFE114F10409F054
:1019B0003FC0F80146815781608571854115510509
:1019C0006105710549F48789908DA18DB28D0097CD
:1019D000A105B10541F521C09E012F5F3F4F0E9437
:1019E000840A882309F48FCF89819A81AB81BC81D5
:1019F000F801238D348DF9012789203129F048EF32
:101A00005FEF6FEF7FE004C048EF5FEF60E070E0F2
:101A100084179507A607B70730F0C8010E94080B86
:101A2000811106C06BCFF80186839783A087B187A9
:101A3000D8015B96ED91FC915C9716968D909D90E8
:101A4000AD90BC901997B2E08B1A9108A108B1082B
:101A5000058404C0880C991CAA1CBB1C0A94D2F7EC
:101A600086859785A089B189880E991EAA1EBB1EFE
:101A7000870C911CA11CB11CE114F10409F5F801BB
:101A8000428553856485758583899489A589B6893E
:101A9000481759076A077B0798F00E9406098823B0
:101AA00009F42CCF8092160190921701A092180190
:101AB000B09219018091120381608093120308C0D3
:101AC00041E0C501B4010E944309882309F416CFFF
:101AD000F701E95EFC4F8D818083F8018285938553
:101AE000A485B5850196A11DB11D82879387A48722
:101AF000B5874389548965897689481759076A07E4
:101B00007B0738F4838B948BA58BB68B848180689C
:101B10008483D80114968C9183FD03C081E090E00A
:101B200044C0F8019581992309F4E8CE87FF38C0B5
:101B3000668577858089918941E00E9443098823E1
:101B400009F4DCCED8015296EC91B0E2EB9F900103
:101B50001124D901A95EBC4F109709F4CFCEF8012A
:101B60008581823050F443895489658976895C96F1
:101B70004D935D936D937C935F97F8018789908D6A
:101B8000A18DB28DF901E95EFC4F938F828FB58BE9
:101B9000A48BD80114968C9114978F7714968C93FC
:101BA0000E9406098111BACFA9CE0F900F900F9015
:101BB0000F900F90DF91CF911F910F91FF90EF90B9
:101BC000BF90AF909F908F907F906F905F904F905D
:101BD00008951F920F920FB60F9211242F933F93E7
:101BE0008F939F93AF93BF938091180590911905A0
:101BF000A0911A05B0911B053091170523E0230F22
:101C00002D3720F40196A11DB11D05C026E8230F34
:101C10000296A11DB11D209317058093180590937E
:101C20001905A0931A05B0931B0580915E01909150
:101C30005F01A0916001B09161010196A11DB11DEC
:101C400080935E0190935F01A0936001B093610166
:101C5000BF91AF919F918F913F912F910F900FBEA8
:101C60000F901F9018951F920F920FB60F9211248C
:101C70002F933F934F935F936F937F938F939F9394
:101C8000AF93BF93EF93FF93E0911401F09115018F
:101C90000995FF91EF91BF91AF919F918F917F91A6
:101CA0006F915F914F913F912F910F900FBE0F90C9
:101CB0001F9018951F920F920FB60F9211242F9319
:101CC0003F934F935F936F937F938F939F93AF93C4
:101CD000BF93EF93FF93E0911201F09113010995E7
:101CE000FF91EF91BF91AF919F918F917F916F91F4
:101CF0005F914F913F912F910F900FBE0F901F90CA
:101D000018951F920F920FB60F9211242F933F93A5
:101D10004F935F936F937F938F939F93AF93BF93F3
:101D2000EF93FF93E0911001F09111010995FF915C
:101D3000EF91BF91AF919F918F917F916F915F9143
:101D40004F913F912F910F900FBE0F901F901895BC
:101D50001F920F920FB60F9211242F933F934F9320
:101D60005F936F937F938F939F93AF93BF93EF9303
:101D7000FF93E0910E01F0910F010995FF91EF9112
:101D8000BF91AF919F918F917F916F915F914F9193
:101D90003F912F910F900FBE0F901F9018951F929B
:101DA0000F920FB60F9211242F933F934F935F938F
:101DB0006F937F938F939F93AF93BF93EF93FF9313
:101DC000E0910C01F0910D010995FF91EF91BF9108
:101DD000AF919F918F917F916F915F914F913F91C3
:101DE0002F910F900FBE0F901F9018951F920F927A
:101DF0000FB60F9211242F933F934F935F936F93DE
:101E00007F938F939F93AF93BF93EF93FF93E09153
:101E10000D03F0910E030995FF91EF91BF91AF91E2
:101E20009F918F917F916F915F914F913F912F91F2
:101E30000F900FBE0F901F901895CF92DF92EF92E8
:101E4000FF920F931F93CF93DF931F92CDB7DEB70F
:101E5000182F062FE42E862F880F8E5F99830E94FD
:101E60000E0183E00E940E01F12EC12E9981D92E20
:101E70008C2D8F19801798F4F601E7FE02C084912B
:101E800001C080810E940E01182F80E00E940E0187
:101E90008123FFEFCF1ADF0A8111EACF01C081E071
:101EA0000F90DF91CF911F910F91FF90EF90DF90F6
:101EB000CF90089510926F0110926E0148EE53E09A
:101EC00060E070E040937001509371016093720183
:101ED000709373018BE291E090936D0180936C019C
:101EE0008DEC90E090937901809378018CEC90E0F8
:101EF00090937B0180937A0188EC90E090937D0130
:101F000080937C0129EC30E030937F0120937E01A7
:101F10002AEC30E030938101209380012EEC30E0F8
:101F200030938301209382011092850110928601E3
:101F3000109287011092880110927302109272021F
:101F40004093740250937502609376027093770207
:101F50002DE331E030937102209370022FEF3FEFB9
:101F600030937D0220937C0220E520930902109299
:101F70000A021092C5021092C6021092C902109273
:101F8000CB0242E050E060E070E04093CC0250931E
:101F9000CD026093CE027093CF021092E3021092B2
:101FA000ED021092EC024FE451E05093EB024093AB
:101FB000EA021092EF022093090321E020930A0322
:101FC00034E530934602209347022AE030E0309314
:101FD00045022093440225E030E0309343022093F1
:101FE0004202109232021092310228E030E0309327
:101FF00039022093380223E030E030933B022093F3
:102000003A02109221021092200229E030E030932F
:1020100028022093270222E030E030932A02209306
:10202000290221E030E030930C0220930B02109241
:102030000D0290930F0280930E0224E630E030935D
:102040001102209310024CE251E05093130240938E
:10205000120290931502809314023093170220937A
:102060001602109219021092180210921B0210927E
:102070001A0210921D0210921C0267E070E080E0CC
:1020800090E00E944814009799F090931902809371
:10209000180226E030E030931B0220931A022091B0
:1020A0001C0230911D02232BE9F4FC0110821AC09E
:1020B0008091180290911902009711F00E94B013BC
:1020C000109219021092180210921D0210921C0216
:1020D00010921B0210921A0283E080931E0210924B
:1020E0001F02089526E030E030931D0220931C0269
:1020F00067E571E00E942015EFCF789484B5826087
:1021000084BD84B5816084BD85B5826085BD85B59B
:10211000816085BD80916E00816080936E00109219
:102120008100809181008260809381008091810094
:102130008160809381008091800081608093800025
:1021400080919100826080939100809191008160E4
:1021500080939100809190008160809390008091A5
:10216000C10084608093C1008091C100826080932F
:10217000C1008091C10081608093C1008091C30043
:1021800081608093C3008091C00082608093C00012
:102190008091C20081608093C20080917A00846047
:1021A00080937A0080917A00826080937A00809197
:1021B0007A00816080937A0080917A0080688093B1
:1021C0007A0010926B01109269011092680180915F
:1021D000D70081608093D70080EA8093D80089B5CA
:1021E000806189BD89B5826089BD09B400FEFDCFDB
:1021F0000E9456078091D8008F7C80618093D80020
:102200008091E000807F8093E0008091E1008E7EED
:102210008093E1008DE08093E200559A209A5D98CA
:102220002898EEEFFFE7859194918B3F9C4D19F430
:1022300081E080936701E0917C01F0917D0182E073
:102240008083E0917801F09179011082E0917A0128
:10225000F0917B018FEC808310928401E0918001EA
:10226000F091810186E08083E0917E01F0917F0111
:10227000808180618083E0917E01F0917F01808187
:1022800088608083E0917E01F0917F018081806889
:102290008083E0917E01F0917F0180818F7D80833A
:1022A000CFB7F89480914802811124C0E6E9F1E0AB
:1022B0008491E5EBF1E09491E82FF0E0EE0FFF1F41
:1022C000E958FE4FA591B491EC91E92321F461E026
:1022D00081E10E94E20681E10E9437078CB58061AE
:1022E0008CBD8CB580648CBD8FE00E94370780E187
:1022F0000E943707809148028F5F80934802CFBFCA
:10230000809144020E94370761E0809144020E945C
:10231000E206809142020E94370761E0809142020A
:102320000E94E206809138020E94370761E08091A6
:1023300038020E94E206809127020E94370761E07E
:10234000809127020E94E2068BE00E94370761E03D
:102350008BE00E94E2068DE00E94370760E08DE08E
:102360000E94E20686E10E94370785E10E94370756
:1023700084E10E94370783E10E94370782E10E94CF
:10238000370760E086E10E94E20660E085E10E9496
:10239000E20660E084E10E94E20660E083E10E94E0
:1023A000E20660E082E10E94E20684E00E943707D4
:1023B0008CE00E94370786E00E94370761E084E0E6
:1023C0000E94E20661E08CE00E94E20661E086E0A5
:1023D0000E94E20686E10E94370785E10E943707E6
:1023E00084E10E94370783E10E94370782E10E945F
:1023F000370760E086E10E94E20661E085E10E9425
:10240000E20660E084E10E94E20660E083E10E946F
:10241000E20660E082E10E94E206F89488EC97E030
:1024200090930D0180930C01809169008C7F8260F4
:1024300080936900E89A84EC97E090930F01809371
:102440000E0180916900837F886080936900E99A1A
:10245000789461E08DE00E94E206BB24B394C7E566
:10246000D1E001EB11E032E9E32E31E0F32E4BE055
:10247000A42E5BE4C52E52E0D52E80915C02811122
:102480000CC00E94FB07609358027093590280931E
:102490005A0290935B02B0925C020E94FB0740904C
:1024A00058025090590260905A0270905B02DC0111
:1024B000CB0184199509A609B709883E9340A10567
:1024C000B10558F3FE018491F8018490F7019490CE
:1024D000992081F081110E94A506892D90E0880F36
:1024E000991F845C9E4FFC01A591B4918C91882228
:1024F00061E009F460E06B258DE00E94E2060E9435
:10250000FB07609358027093590280935A0290938C
:102510005B028CE691E00E94CC01209157021816D4
:1025200019064CF5211127C08CE691E00E94AA0102
:1025300090914A029923D1F08E3389F0909149020B
:10254000E92FF0E0E55BFD4F808381E0890F8C305F
:1025500018F480934902DDCFA0924902DACF10929D
:102560004A0210924902B0925702D3CF8C3389F6B7
:10257000B0924A02CECF2223C1F0F6010190002092
:10258000E9F73197AF014B5452406BE472E08CE6AF
:1025900091E00E94700110925702EBE4F2E022E019
:1025A000E735F20711F01192FACF0E946C0265CF65
:1025B00080911802909119020C94B0132F923F92BF
:1025C0004F925F926F927F928F929F92AF92BF9243
:1025D000CF92DF92EF92FF920F931F93CF93DF93EF
:1025E000CDB7DEB7CA1BDB0B0FB6F894DEBF0FBE4C
:1025F000CDBF09942A88398848885F846E847D8499
:102600008C849B84AA84B984C884DF80EE80FD809A
:102610000C811B81AA81B981CE0FD11D0FB6F89410
:10262000DEBF0FBECDBFED010895EE0FFF1F059079
:10263000F491E02D0994CF93DF938230910510F44B
:1026400082E090E0E0911E05F0911F0520E030E06F
:10265000C0E0D0E0309711F140815181481759070F
:10266000C0F04817590761F482819381209719F0CF
:102670009B838A832BC090931F0580931E0526C0E1
:102680002115310519F04217530718F49A01BE01BC
:10269000DF01EF010280F381E02DDCCF2115310550
:1026A00009F1281B390B2430310590F412968D91D5
:1026B0009C9113976115710521F0FB01938382832F
:1026C00004C090931F0580931E05FD01329644C0FF
:1026D000FD01E20FF31F81939193225031092D9355
:1026E0003C933AC020911C0530911D05232B41F4E9
:1026F00020911C0130911D0130931D0520931C0574
:1027000020911A0130911B012115310541F42DB79B
:102710003EB740911E0150911F01241B350BE091E3
:102720001C05F0911D05E217F307A0F42E1B3F0BCB
:102730002817390778F0AC014E5F5F4F2417350733
:1027400048F04E0F5F1F50931D0540931C05819369
:10275000919302C0E0E0F0E0CF01DF91CF910895C6
:102760000F931F93CF93DF93009709F48CC0FC0164
:1027700032971382128200911E0510911F050115D8
:10278000110581F420813181820F931F20911C0556
:1027900030911D052817390779F5F0931D05E09351
:1027A0001C0571C0D80140E050E0AE17BF0750F4DF
:1027B00012962D913C911397AD012115310509F128
:1027C000D901F3CF9D01DA013383228360817181C6
:1027D000860F971F8217930769F4EC0128813981CE
:1027E000260F371F2E5F3F4F318320838A819B81C5
:1027F00093838283452B29F4F0931F05E0931E05F4
:1028000042C01396FC93EE931297ED0149915991B2
:102810009E01240F351FE217F30771F48081918127
:10282000840F951F029611969C938E9382819381BB
:1028300013969C938E931297E0E0F0E0D8011296E5
:102840008D919C911397009719F0F8018C01F6CFA8
:102850008D919C9198012E5F3F4F820F931F209185
:102860001C0530911D052817390769F4309729F4A4
:1028700010921F0510921E0502C01382128210933F
:102880001D0500931C05DF91CF911F910F910895B5
:10289000A0E0B0E0EEE4F4E10C94E212EC01009769
:1028A00021F4CB010E941B13B8C0FC01E60FF71FF7
:1028B0009C0122503109E217F30708F4ACC0D9019A
:1028C0000D911C91119706171707B0F005301105EF
:1028D00008F49FC0C80104978617970708F499C0A9
:1028E00002501109061B170B019311936D937C93F2
:1028F000CF010E94B0138DC05B01A01AB10A4C0138
:10290000800E911EA0911E05B0911F0540E050E081
:10291000E12CF12C109709F44AC0A815B905D1F59E
:102920006D907C901197630182E0C80ED11CCA148F
:10293000DB0480F1A3014A195B096A0182E0C80E39
:10294000D11C1296BC9012971396AC91B5E0CB16A1
:10295000D10440F0B282A38351834083D9016D93A7
:102960007C930AC00E5F1F4FC301800F911FF901B6
:1029700091838083EB2DFA2FE114F10431F0D7011C
:102980001396FC93EE93129744C0F0931F05E093C7
:102990001E053FC08D919C9111974817590708F467
:1029A000AC017D0112960D90BC91A02DB3CF80910A
:1029B0001C0590911D0588159905E1F446175707E8
:1029C000C8F480911A0190911B01009741F48DB7D2
:1029D0009EB740911E0150911F01841B950BE81773
:1029E000F907C8F4F0931D05E0931C05F901718304
:1029F00060830FC0CB010E941B137C01009759F02C
:102A0000A801BE010E941715CE010E94B013C70194
:102A100004C0CE0102C080E090E0CDB7DEB7EEE0AA
:102A20000C94FE1281E090E0F8940C942715FB01C1
:102A3000DC0102C001900D9241505040D8F708953A
:102A4000FB01DC0101900D920020E1F7089510E0F8
:102A5000C3EED0E004C0FE010E9415132196C43ECF
:082A6000D107C9F7F894FFCF7C
:102A6800FFFFFFFF00E1000000000000BF07BF07F5
:102A7800BF07BF07BF07FFFFFFFF0000200580005B
:102A880000C1808100000000000000030270019B6B
:102A9800014A02CC01AA01BE01000000007602E54D
:102AA8000265038C0297028D036903000000000B86
:0E2AB8000C7001C107C007416E6F64696300B6
:2070000055C000006EC000006CC000006AC0000068C0000066C0000064C0000062C0000043
:2070200060C000005EC00000F2C400005AC0000058C0000056C0000054C0000052C00000EE
:2070400050C0000078C000004CC000004AC0000048C0000046C0000044C0000042C00000BE
:2070600040C000003EC000003CC000003AC0000038C0000036C0000034C0000032C0000048
:2070800030C000002EC000002CC000002AC0000028C0000026C0000024C0000022C00000A8
:2070A00020C000001EC000001CC0000011241FBECFEFDAE0DEBFCDBF11E0A0E0B1E0E2E3BC
:2070C000FFE702C005900D92A83AB107D9F711E0A8EAB1E001C01D92AE3BB107E1F78FD30B
:2070E00026C78ECFF89410926F0010928100109285001092840081E085BF15BE47985D98ED
:2071000028980C94000008952091B2013091B3012F5F3F4F3093B3012093B201932F37FFA8
:2071200003C08EEF831B982F990F921710F447980895479A08951F920F920FB60F9211246E
:207140002F938F939F93EF93FF9310928500109284008091A8019091A901009741F00197D3
:207160009093A9018093A801892B09F45D988091AA019091AB01009741F001979093AB0128
:207180008093AA01892B09F42898E0E0F0E0859194918F5F9F4F49F08091AC019091AD0153
:2071A00001969093AD018093AC01FF91EF919F918F912F910F900FBE0F901F90189584E0BC
:2071C0008093E9000DC08091E8008B778093E80003C08EB3882351F08091E80082FFF9CFBE
:2071E0008091E80085FFEFCF8091F1000895982F83E08093E9008091E80085FD0DC0809136
:20720000E8008E778093E80003C08EB3882369F08091E80080FFF9CF9093F1005D9A84E6C9
:2072200090E09093A9018093A80108954F925F926F927F928F929F92AF92BF92CF92DF921E
:20724000EF92FF920F931F93CF93DF9384E08093E9008091E80082FF57C2289A84E690E065
:207260009093AB018093AA01AADF182F853481F48CE49DE19093AD018093AC0107B600FC4B
:20728000FDCFF999FECF81E180935700E89503C0843519F494DF8DE00DC28C34E1F38035F9
:2072A000D1F3843721F484E4A2DF80E003C2813611F489E5FFC18134B1F481DF182F7FDFE3
:2072C00090E0880F991FAA2797FDA095BA2F312F330F20E0442737FD4095542F822B932B68
:2072E000A42BB52BB8C1803711F483E5E3C1833549F4C0E0D1E089917ADF21E0C730D20714
:20730000D1F7D9C1863521F481E371DF80E3D2C1833731F487E86BDF85E969DF8EE1CAC149
:207320008536B9F4E0E0F0E093E085E090935700E89507B600FCFDCF80935700E89507B65D
:2073400000FCFDCFE058FF4FA0E7E030FA0771F7A2CF823739F4E1E0F0E089E08093570024
:207360008491A8C1863439F4E0E0F0E089E08093570084919FC18E3439F4E3E0F0E089E0E5
:2073800080935700849196C1813539F4E2E0F0E089E08093570084918DC1823631F489E521
:2073A00026DF80E024DF80E885C1823419F0873609F0E5C01092AD011092AC0100DF082FE8
:2073C000FEDEF82EFCDE682E8554823008F071C1902F80E0CF2DD0E0C82BD92B10926F00B3
:2073E000173609F04BC081E180935700E895DD24CC24C3943FC0E090AE01F090AF010091CC
:20740000B0011091B101B6E46B16D9F4ED2DF0E0EE29FF29E4918E2FEADEDD2081F082E08D
:2074200090E0A0E0B0E0E80EF91E0A1F1B1FE092AE01F092AF010093B0011093B101DC2470
:2074400018C0D801C701B695A7959795879559D5CEDE82E090E0A0E0B0E0E80EF91E0A1FF2
:207460001B1FE092AE01F092AF010093B0011093B1012197209709F0BECF7DC08090AE01F5
:207480009090AF01A090B001B090B10196E4691609F05DC083E0F40180935700E89507B63E
:2074A00000FCFDCF54C0F6E46F1661F5772031F1E090AE01F090AF010091B0011091B1019E
:2074C0007EDED82ECC24852D90E08C299D29F7010C0140925700E895112482E090E0A0E08B
:2074E000B0E0E80EF91E0A1F1B1FE092AE01F092AF010093B0011093B10102C060DE582E1A
:20750000742423C0E090AE01F090AF010091B0011091B10116950795F794E79450DE682FFA
:20752000C701F7D48091AE019091AF01A091B001B091B1010296A11DB11D8093AE01909349
:20754000AF01A093B001B093B101219704C05524772444244394209709F0A5CF96E46916B6
:2075600041F485E0F40180935700E89507B600FCFDCF8DE03CDE82E080936F009CC0833492
:2075800071F40091AE011091AF0119DE90E021E0F8010C0120935700E89511247CCE8336C8
:2075A00019F5E090AE01F090AF010091B0011091B10105DEF701E16090E021E00C0120938C
:2075C0005700E895112482E090E0A0E0B0E0E80EF91E0A1F1B1FE092AE01F092AF0100936A
:2075E000B0011093B10157CE8D3661F4E091AE01F091AF0185E080935700E89507B600FCF2
:20760000FDCF49CE823551F4E091AE01F091AF0105911491812FEBDD802F4CC0843421F5FE
:20762000E090AE01F090AF010091B0011091B10116950795F794E794C2DD682FC70169D4DE
:207640008091AE019091AF01A091B001B091B1010296A11DB11D8093AE019093AF01A093D8
:20766000B001B093B10117CE843609F5E090AE01F090AF010091B0011091B101D801C70142
:20768000B695A795979587953CD4B1DD82E090E0A0E0B0E0E80EF91E0A1F1B1FE092AE010A
:2076A000F092AF010093B0011093B10104C08B3111F08FE39CDD83E08093E9009091E8002B
:2076C0008091E8008E778093E80095FF04C010C08EB38823C9F08091E80080FFF9CF809193
:2076E000E8008E778093E80003C08EB3882361F08091E80080FFF9CF84E08093E9008091F1
:20770000E8008B778093E800DF91CF911F910F91FF90EF90DF90CF90BF90AF909F908F90AC
:207720007F906F905F904F9008959091B601892F8F77813249F58091B7018032A1F081328A
:2077400019F5913A09F58091E800877F8093E8008DE091E067E070E00BD28091E8008B770B
:207760008093E8000895913279F48091E800877F8093E8008DE091E067E070E05DD2809192
:20778000E8008E778093E800089582E061EC42E0B5D083E061E842E1B1D084E060E842E1EF
:2077A000ADC084B7877F84BF88E10FB6F89480936000109260000FBE20E880E090E00FB63F
:2077C000F89420936100809361000FBE81E085BF92E095BF3F9A209A559AE1E6F0E02083A1
:2077E000108247985D982898109289008AEF8093880090936F0083E080938100F0C040911A
:20780000000850910108109201081092000894B714BE88E10FB6F8948093600010926000D5
:207820000FBE292F30E0F901E270F07091FD18C090FF05C0859194918F5F9F4F81F423FFFF
:207840000FC08091090190910A014817590741F0E0E0F0E0859194918F5F9F4F09F042DC64
:20786000A0DF78941092AD011092AC010CC0DEDC36D38091AC019091AD0181549F4110F00D
:207880001092140141DC80911401882381F78091E00081608093E00025DC80E090E0089598
:2078A000FA01923049F0933061F09130F9F485E191E022E130E01EC087E291E02EE330E04D
:2078C00019C0882329F485E691E024E030E012C0813029F489E691E022E230E00BC0823006
:2078E00029F48DE891E028E130E004C080E090E020E030E091838083C90108958093E9004E
:207900008091EB0081608093EB001092ED006093EC004093ED008091EE00881F8827881F62
:2079200008958091B60188238CF403C08EB38823B1F08091E80082FFF9CF8091E8008B772A
:207940008093E80008958EB3882349F08091E80080FFF9CF8091E8008E778093E800089594
:20796000EF92FF920F931F9345D04CD008ED10E0F80180818F77808380818068808380819B
:207980008F7D808319BC1EBA1092B40180EEE82EF12CF70180818B7F8083F8018081816052
:2079A000808380E060E042E0A9DFE1EEF0E080818E7F8083E2EEF0E0808181608083808144
:2079C00088608083F70180818E7F8083F8018081806180831F910F91FF90EF900895E7ED06
:2079E000F0E08081816080838AE482BF81E08093B501B6CFE8EDF0E080818E7F808310921C
:207A0000E20008951092DA001092E10008951F920F920FB60F9211242F933F934F935F93F6
:207A20006F937F938F939F93AF93BF93EF93FF938091DA0080FF1BC08091D80080FF17C0B2
:207A40008091DA008E7F8093DA008091D90080FF0BC080E189BD82E189BD09B400FEFDCF36
:207A600081E08EBB3BD203C019BC1EBA37D28091E10080FF17C08091E20080FF13C0809138
:207A8000E2008E7F8093E2008091E20080618093E2008091D80080628093D80019BC85E049
:207AA0008EBB1CD28091E10084FF2CC08091E20084FF28C080E189BD82E189BD09B400FEC5
:207AC000FDCF8091D8008F7D8093D8008091E1008F7E8093E1008091E2008F7E8093E20012
:207AE0008091E20081608093E2008091B401882331F48091E30087FD02C081E001C084E067
:207B00008EBBECD18091E10083FF21C08091E20083FF1DC08091E100877F8093E10082E06A
:207B20008EBB1092B4018091E1008E7F8093E1008091E2008E7F8093E2008091E2008061E9
:207B40008093E20080E060E042E0D8DEC7D1FF91EF91BF91AF919F918F917F916F915F9130
:207B60004F913F912F910F900FBE0F901F9018959C014091BC015091BD014617570718F49D
:207B8000F90190E044C06115710511F0AB01F8CF8091E8008E778093E80040E050E0F0CF0F
:207BA0008EB3882309F444C0853009F443C08091E80083FF02C081E008958091E80082FD70
:207BC00031C08091E80080FF22C08091F3009091F200782F60E0292F30E0262B372B07C07A
:207BE00081918093F100415050402F5F3F4F4115510519F02830310598F390E02830310566
:207C000009F491E08091E8008E778093E8004115510531F6992321F605C08EB3882341F075
:207C2000853041F08091E80082FFF7CF80E0089582E0089583E008959C016115710529F47C
:207C40008091E8008B778093E800F90126C08EB3882391F1853091F18091E80083FF02C06C
:207C600081E008958091E80082FFF1CF06C08091F10081936150704059F02091F300809191
:207C8000F200322F20E090E0822B932B892B79F78091E8008B778093E80061157105B9F601
:207CA00005C08EB3882341F0853041F08091E80080FFF7CF80E0089582E0089583E00895C2
:207CC0000F931F93DF93CF9300D0CDB7DEB7E6EBF1E08091F100819381E0EE3BF807C9F792
:207CE00024DD8091E80083FFE4C08091B6019091B701953009F46DC0963040F4913081F1A7
:207D0000913070F0933009F0D4C02AC0983009F4A3C0993009F4B2C0963009F0CAC07CC023
:207D2000803809F4C6C0823809F0C3C08091BA0187708093E9008091EB001092E9002091DB
:207D4000E800277F2093E80090E025E0969587952A95E1F781708093F1001092F10087C0D8
:207D6000882319F0823009F0A4C08F71823009F0A0C08091B801882331F52091BA01277097
:207D800009F497C02093E9008091EB0080FF1BC0933021F48091EB00806213C08091EB0018
:207DA00080618093EB0081E090E002C0880F991F2A95E2F78093EA001092EA008091EB00E5
:207DC00088608093EB001092E9008091E800877F51C0882309F06DC01091B8011F770FB79B
:207DE000F8948091E800877F8093E8009ADD8091E80080FFFCCF8091E3008078812B809398
:207E0000E30080688093E300112311F482E001C083E08EBB0FBF4DC08058823008F049C033
:207E20008091B8019091B9016091BA01AE014F5F5F4F36DDBC01009709F43BC08091E8008E
:207E4000877F8093E80089819A8192DE8091E8008B778093E8002DC0803859F58091E800AA
:207E6000877F8093E8008091B4018093F1008091E8008E778093E80054DD1BC08823C9F4CA
:207E80009091B8019230A8F48091E800877F8093E8009093B40145DD8091B401882331F420
:207EA0008091E30087FD02C081E001C084E08EBB6CDC8091E80083FF0AC08091EB0080624E
:207EC0008093EB008091E800877F8093E8000F900F90CF91DF911F910F91089508951F9360
:207EE0008EB3882361F01091E9001092E9008091E80083FF01C0E4DE17701093E9001F916F
:207F00000895F999FECF92BD81BDF89A992780B50895262FF999FECF1FBA92BD81BD20BDBD
:207F20000FB6F894FA9AF99A0FBE01960895F894FFCF4341544552494E4100777700080031
:207F40000000000000080112011001020000084123370001000201000109023E00020100FE
:207F600080320904000001020201000524001001042402040524060001070582030800FF0C
:207F800009040100020A000000070504021000010705830210000104030904220341007216
:207FA000006400750069006E006F0020004D006900630072006F0020002000200000001810
:1A7FC00003410072006400750069006E006F0020004C004C004300000000D7
:00000001FF
