:100000000C94DD000C94330F0C940C0F0C94E50E43
:100010000C94BE0E0C9405010C9405010C94970EE3
:100020000C9405010C9405010C94A1040C94130587
:100030000C9405010C9405010C9405010C94050128
:100040000C9405010C945A0F0C9405010C940501B5
:100050000C9405010C9405010C9405010C944D0EB3
:100060000C9405010C9469070C9443070C9405014A
:100070000C9405010C9405010C9405010C940501E8
:100080000C9405010C9405010C9405010C940501D8
:100090000C9405010C9405010C9405010C940501C8
:1000A0000C9405010C9405010C940501DD07E00793
:1000B000CF07D307D707010801080108E407E807BD
:1000C000EC07F207F6070108FC07080B0002020222
:1000D00001000904000001020200000524001001D3
:1000E0000524010101042402060524060001070578
:1000F000810310004009040100020A000000070506
:1001000002024000000705830240000004030904C6
:1001100012010002EF020140412337800001010279
:10012000030141726475696E6F204C4C430041724B
:100130006475696E6F204D6963726F000000000284
:1001400000090F0000030401000C00000000000083
:10015000000000000000000000000000000000257A
:100160000028002B002E0031000000000024002792
:10017000002A002D003000040404040403040502D6
:100180000202020403020202020606060606060432
:1001900004020202040404080201104080401020FE
:1001A000408040800802040180402010020110803D
:1001B0001020404020000D15FD1411241FBECFEF6C
:1001C000DAE0DEBFCDBF25E0A4EFB1E001C01D92B3
:1001D000AB3AB207E1F711E0A0E0B1E0E0E1F1E312
:1001E00002C005900D92A43FB107D9F710E0CCED05
:1001F000D0E004C02197FE010E946016CB3DD107DC
:10020000C9F70E94B4100C947B180C9400000E9453
:100210005D18FC0180819181009711F00C94CB1541
:1002200060E070E0CB010895FC0124813581232B2F
:1002300031F421E061157105A1F0FB0108C0FC015A
:10024000808191816115710531F421E0FC0180818B
:10025000882339F005C00E946B1821E0892B09F032
:1002600020E0822F0895EF92FF920F931F93CF9378
:10027000DF93EC017B018A01BA010E9460042881AE
:10028000398181110DC02115310519F0C9010E9474
:10029000FB16198218821D821C821B821A8206C0DC
:1002A0001D830C83B701C9010E947418CE01DF9130
:1002B000CF911F910F91FF90EF900895CF93DF930F
:1002C000EC016115710559F0FB0101900020E9F77F
:1002D0003197AF01461B570B0E9433010CC0888138
:1002E0009981009711F00E94FB16198218821D82D5
:1002F0001C821B821A82CE01DF91CF910895BF929A
:10030000CF92DF92EF92FF920F931F93CF93DF93E1
:100310007C016B018A01E9012417350720F4812F44
:100320008901C42FD82F64EB71E0C7010E948C04AF
:10033000D60114968D919C91159708171907D0F442
:100340008C179D0708F4EC01D601ED91FC911197F3
:10035000EC0FFD1FB08010824D915C91BA01600FCF
:10036000711FC7010E945E01D601ED91FC91EC0F57
:10037000FD1FB082C701DF91CF911F910F91FF90B8
:10038000EF90DF90CF90BF9008954091FA01509187
:10039000FB012091F8013091F90142175307B4F4A1
:1003A0009091E8009570E1F39091E80092FD19C0FA
:1003B0008093F1008091FA019091FB0101968F7377
:1003C0009927892B19F48EEF8093E8008091FA0128
:1003D0009091FB0101969093FB018093FA0181E0DB
:1003E000089580E00895DF92EF92FF920F931F939C
:1003F000CF93DF93D82E8A017B01E40EF51EEB012B
:10040000CE15DF0571F0D7FE03C0FE01849101C057
:1004100088810E94C50121968111F2CF8FEF9FEF55
:1004200001C0C801DF91CF911F910F91FF90EF9014
:10043000DF900895615030F02091F100FC0120839D
:100440000196F8CF289A84E6809310040895CF92FD
:10045000DF92EF92FF920F931F93CF93DF936C0184
:100460007A018B01C0E0D0E0CE15DF0589F0D8011C
:100470006D918D01D601ED91FC910190F081E02DFF
:10048000C6010995892B11F47E0102C02196ECCF9B
:10049000C701DF91CF911F910F91FF90EF90DF90F7
:1004A000CF900895FC01538D448D252F30E0842F8B
:1004B00090E0821B930B541710F0CF96089501978C
:1004C0000895FC01918D828D981761F0828DDF0176
:1004D000A80FB11D5D968C91928D9F5F9F73928F37
:1004E00090E008958FEF9FEF0895FC01918D828D2C
:1004F000981731F0828DE80FF11D858D90E00895F9
:100500008FEF9FEF0895FC01918D228D892F90E050
:10051000805C9F4F821B91098F739927089582E118
:1005200094E00E94830221E0892B09F420E0822FCD
:100530000895FC01848DDF01A80FB11DA35ABF4FA0
:100540002C91848D90E001968F739927848FA689D2
:10055000B7892C93A089B1898C9180648C93938DF9
:10056000848D981306C00288F389E02D80818F7DE9
:1005700080830895EF92FF920F931F93CF93DF93A1
:10058000EC0181E0888F9B8D8C8D981305C0E889E4
:10059000F989808185FD24C0F62E0B8D10E00F5F58
:1005A0001F4F0F731127E02E8C8DE8120CC00FB671
:1005B00007FCFACFE889F989808185FFF5CFCE0164
:1005C0000E949902F1CF8B8DFE01E80FF11DE35AD5
:1005D000FF4FF0820B8FEA89FB898081806207C020
:1005E000EE89FF896083E889F9898081806480834E
:1005F00081E090E0DF91CF911F910F91FF90EF90FC
:100600000895CF93DF93EC01888D8823C9F0EA89A0
:10061000FB89808185FD05C0A889B9898C9186FDFB
:100620000FC00FB607FCF5CF808185FFF2CFA889F8
:10063000B9898C9185FFEDCFCE010E949902E7CF59
:10064000DF91CF91089580E090E0892B29F00E94FE
:100650008F0281110C9400000895CF93DF931F92B5
:10066000CDB7DEB76983DC01ED91FC910280F381A7
:10067000E02D41E050E0BE016F5F7F4F09950F9084
:10068000DF91CF91089583E08093E9008091F2009B
:10069000882319F08AE38093E8000895FC0184859B
:1006A000958597FD0BC09FB7F89482E08093E90091
:1006B0008091F2009FBF90E0019608959FB7F89453
:1006C00082E08093E9008091F2009FBF90E008955E
:1006D0000F931F93CF93DF931F92CDB7DEB782E0C6
:1006E000898342E450E06AEC70E080E80E94F30104
:1006F0000E94A010DC0112960D911C911397011518
:10070000110569F0D801ED91FC910280F381E02D93
:10071000BE016F5F7F4FC801099597FF07C08981B0
:100720000F90DF91CF911F910F910895F8010085EF
:100730001185E5CF8F929F92AF92BF92CF92DF92B9
:10074000EF92FF920F931F93CF93DF936C015B01A6
:100750007A0180911501882309F456C08091110413
:10076000882309F451C08091F50180FF05C0809174
:10077000E00082608093E000E70110E00AEF83E090
:10078000882E9AE3992E2097B1F10E948F10811143
:1007900005C00150C9F10E944B10F5CF282F30E061
:1007A000C217D3070CF48C2F4FB7F8948092E9004E
:1007B0009091E80095FF1DC0282F30E0C21BD30B9D
:1007C000F501982F915020F081918093F100FACF9C
:1007D000A20EB31E112319F09092E80009C0809177
:1007E000E80085FD06C09092E80011E0209709F02E
:1007F00010E04FBFC8CF1111C8CF5D9A84E6809337
:10080000FC011E141F0444F081E090E0F601938384
:10081000828380E090E001C0C701DF91CF911F91FA
:100820000F91FF90EF90DF90CF90BF90AF909F908F
:100830008F9008950E948F1090E008950F931F935A
:10084000CF93DF931F92CDB7DEB78C01FC01848577
:10085000958597FF0EC0CE0101960E946510019705
:1008600019F4298130E002C02FEF3FEFF8013587FE
:100870002487F801848595850F90DF91CF911F9192
:100880000F910895CF93DF931F92CDB7DEB7FC0190
:100890008485958597FD05C02FEF3FEF3587248729
:1008A0000BC0CE0101960E946510019719F4898151
:1008B00090E002C08FEF9FEF0F90DF91CF910895EE
:1008C0000F931F93CF93DF93EC0188819981009759
:1008D00029F02A813B812617370788F48B016F5F47
:1008E0007F4F0E949317009761F0998388831B8341
:1008F0000A832C813D81232B11F4FC01108281E0BD
:1009000001C080E0DF91CF911F910F910895FC010C
:10091000808191810C94FB16FC011182108213825C
:100920001282158214826115710551F0FB0101904C
:100930000020E9F73197AF01461B570B0C943301A8
:1009400008951F920F920FB60F9211248F939F93C9
:100950008091E1009091E100937F9093E10083FF0B
:100960000FC01092E90091E09093EB001092EC0020
:1009700092E39093ED001092110498E09093F000B0
:1009800082FF20C093E09093E9009091F2009923B8
:1009900019F09AE39093E8009091FC01992339F0C3
:1009A0009091FC0191509093FC01992389F19091D1
:1009B0001004992339F090911004915090931004F1
:1009C000992341F184FF10C08091E2008E7E816006
:1009D0008093E2008091E1008F7E8093E10080911E
:1009E000F5018E7E806111C080FF16C08091E2000B
:1009F0008E7E80618093E2008091E1008E7E809304
:100A0000E1008091F5018E7E81608093F50104C044
:100A10005D98CDCF2898D6CF9F918F910F900FBE24
:100A20000F901F9018951F920F920FB60F921124DE
:100A3000CF92DF92EF92FF920F931F932F933F93EA
:100A40004F935F936F937F938F939F93AF93BF93D6
:100A5000EF93FF93CF93DF93CDB7DEB76C97DEBFF5
:100A6000CDBF1092E9008091E80083FFEDC168E0FE
:100A7000CE0145960E941A0282EF8093E8008D898C
:100A800087FF05C09091E80090FFFCCF03C09EEF68
:100A90009093E800982F907609F0C6C09E892F8920
:100AA000188D91110CC0803829F48091F601809343
:100AB000F10002C01092F1001092F10048C1422FE3
:100AC00050E0512B913051F4811141C14130510519
:100AD00009F03DC18091F6018D7F0BC0933061F428
:100AE000811135C14130510509F031C18091F601C4
:100AF00082608093F6012BC1953041F48091E8002B
:100B000080FFFCCF20682093E30021C1963009F0DC
:100B10005FC0EB8CFC8C1092E9001092FB011092EC
:100B2000FA01123091F51092F9011092F8010E9429
:100B3000680399E0BE016F5F7F4FDB01E92F1D92D3
:100B4000EA95E9F799831A8391E09E8390EA988762
:100B50009AEF99872091FA013091FB01275F3F4F6F
:100B60003C832B838D831092E9001092FB0110923D
:100B7000FA01F092F901E092F80149E050E080E0DA
:100B80000E94F3010E946803E2C0F092F901E09232
:100B9000F8010E94A010DC011296ED90FC901397D2
:100BA000E114F10409F4C0C0D701ED91FC91048077
:100BB000F581E02DBE016B5E7F4FC701099500975F
:100BC00019F00CF0C4C0C7C0F701E084F184E8CF8D
:100BD000973009F4C0C0983021F481E08093F1008F
:100BE000B6C0993009F0B3C0837009F0B4C0E1E237
:100BF000F1E081E021E036E39081992361F0809378
:100C0000E9002093EB0091919093EC003093ED007C
:100C10008F5F873089F78EE78093EA001092EA00B1
:100C20008F898093110493C08B8D9C8D1092E90065
:100C30001092FB011092FA019093F9018093F80150
:100C4000898D811156C08E899D89913A59F48132DE
:100C500009F081C047E050E06EE071E080E00E9462
:100C6000F30175C0913209F076C0833289F4888D22
:100C700090E0982F88272F89822BA0E0B0E0809306
:100C80000A0190930B01A0930C01B0930D015FC07A
:100C9000803269F48091E80082FFFCCF67E08EE04B
:100CA00091E00E941A028BEF8093E80006C0823226
:100CB00009F04DC08F89809315018091F40188233C
:100CC00019F0EEEFFAE002C0E0E0F8E080910E01EA
:100CD00090910F01A0911001B0911101803B9440BF
:100CE000A105B10509F07BC08091150180FF93C07B
:100CF00076C00E94A010DC0112960D911C911397F2
:100D00000115110541F1D801ED91FC910190F0819F
:100D1000E02DBE016B5E7F4FC8010995811117C0A0
:100D2000F80100851185ECCF113009F44EC0133065
:100D300091F48F89882309F445C0823081F440E81A
:100D40006DE08EE291E00E94C014882321F08EEFC6
:100D50008093E80079C081E28093EB0075C0813018
:100D600029F440E86BE082E291E0EDCF833099F71F
:100D70000E94A010DC011296ED90FC9013978E015A
:100D80000F5F1F4F6801E114F10479F0D701ED9175
:100D9000FC910680F781E02DB801C7010995080F85
:100DA000111DF701E084F184EECFD8011C92F60109
:100DB00001900020E9F73197BF016C197D0940E0EF
:100DC000C601C1CF6CE071E002C060E171E0611565
:100DD000710509F2FB01449150E080E840CF0FB665
:100DE000F894A895809160008861809360001092CB
:100DF00060000FBEA895EE3F2AE0F20739F080911F
:100E0000FE0A9091FF0A91838083A1CF1092FF0A7E
:100E10001092FE0A9CCFEE3F8AE0F80731F0808105
:100E200091819093FF0A8093FE0A87E797E7918369
:100E300080839BE088E10FB6F894A89580936000CA
:100E40000FBE9093600083CF6C960FB6F894DEBF10
:100E50000FBECDBFDF91CF91FF91EF91BF91AF91C9
:100E60009F918F917F916F915F914F913F912F91C2
:100E70001F910F91FF90EF90DF90CF900F900FBEDA
:100E80000F901F9018951F920F920FB60F9211247A
:100E90002F933F934F935F936F937F938F939F9382
:100EA000AF93BF93EF93FF9382E194E00E94990286
:100EB000FF91EF91BF91AF919F918F917F916F9132
:100EC0005F914F913F912F910F900FBE0F901F9008
:100ED00018951F920F920FB60F9211242F938F9394
:100EE0009F93EF93FF93E0912204F091230480817C
:100EF000E0912804F091290482FD12C09081809134
:100F00002B048F5F8F7320912C04821751F0E09196
:100F10002B04F0E0EE5EFB4F958F80932B0401C015
:100F20008081FF91EF919F918F912F910F900FBE34
:100F30000F901F9018950895089580E090E008950F
:100F400081E08093FE01089581E08093FD01089582
:100F50008EBD00000DB407FEFDCF8EB508958FEF56
:100F60000C94A807362F90E0FC01E45CFE4F4491FE
:100F7000FC01EA56FE4F2491FC01E958FE4F849192
:100F8000882309F451C04423E1F150E0FA0131977C
:100F9000EF30F105B0F5EA5AFF4F0C9460169091CE
:100FA00080009F7707C0909180009F7D03C0909143
:100FB0008000977F9093800024C094B59F7702C0F3
:100FC00094B59F7D94BD1DC0909190009F7707C000
:100FD000909190009F7D03C090919000977F909397
:100FE00090000FC09091C0009F7703C09091C00007
:100FF0009F7D9093C00005C09091C200977F909311
:10100000C200E82FF0E0EE0FFF1FE55AFE4FA5915A
:10101000B4918FB7F894EC91311103C020952E2331
:1010200001C02E2B2C938FBF089561E0FC018481B9
:101030000E94B2078091FF0181111092FF01089573
:10104000CF93DF93EC018E81882389F08F8198857F
:101050009C012F5F3F4F38872F838230924018F4D6
:101060000E94AF07F3CFCE010E9415081E82DF91C8
:10107000CF9108953FB7F89480910C0490910D049E
:10108000A0910E04B0910F0426B5A89B05C02F3F78
:1010900019F00196A11DB11D3FBFBA2FA92F982F9E
:1010A0008827820F911DA11DB11DBC01CD0142E019
:1010B000660F771F881F991F4A95D1F708952FB79C
:1010C000F894609108047091090480910A04909149
:1010D0000B042FBF08950F931F93CF93DF93EB0162
:1010E0000E945F088B010E94AF078F3F49F00E946A
:1010F0005F08601B710B6C177D07A8F380E001C0CF
:1011000081E0DF91CF911F910F910895CF92DF92EF
:10111000FF920F931F93CF93DF9300D000D0CDB7F2
:10112000DEB76C01F62E29833A834B835C830E94E1
:1011300020088091FF0129813A814B815C818111D6
:1011400009C081E08093FF019091AF048091B004C9
:101150009CBD8DBD60E0F601848129833A834B8379
:101160005C830E94B2076CE271E0C6010E946B08CA
:101170008F2D80640E94A80708E110E05C814B81FC
:101180003A812981DA01C901002E04C0B695A795DC
:10119000979587950A94D2F729833A834B835C838A
:1011A0000E94A8070850110929813A814B815C816E
:1011B000083FFFEF1F0731F7FF2029F088E0F81202
:1011C00004C087E803C085E901C08FEF0E94A8072B
:1011D00010E00E94AF07F601828787FF04C01F3F1F
:1011E00011F01F5FF6CF0F900F900F900F90DF91CF
:1011F000CF911F910F91FF90DF90CF900895EF92C4
:10120000FF920F931F93CF93DF93EC017901411568
:1012100051056105710511F482E13CC08B85833075
:1012200039F089E0440F551F661F771F8A95D1F763
:101230009A01AB0168E1CE010E948608882311F073
:1012400084E028C08EEF0E94A80787018EEFF81A6D
:10125000F80181918F010E94A8070E151F05C1F7A3
:101260008FEF0E94A8078FEF0E94A8070E94AF0788
:101270008A878F71853031F081E18D83CE010E94A4
:10128000150809C068E572E0CE010E946B08811163
:1012900007C085E18D83CE010E94150880E013C050
:1012A00020E030E0A9016DE0CE010E9486088111A6
:1012B00004C00E94AF07882311F084E1EBCFCE0178
:1012C0000E94150881E0DF91CF911F910F91FF904F
:1012D000EF900895CF93DF9380910202882399F1D4
:1012E000C0910002D0910102409116015091170166
:1012F000609118017091190127E032E0CE010E943F
:10130000FF08811102C080E01FC04091030250918C
:1013100004026091050270910602411551056105B4
:10132000710579F027E032E0CE010E94FF088823A2
:1013300051F31092030210920402109205021092CF
:1013400006021092020281E0DF91CF910895BF92D0
:10135000CF92DF92EF92FF920F931F93CF93DF9381
:101360006B017C01B42E8091160190911701A09120
:101370001801B09119018C159D05AE05BF0509F442
:1013800076C00E946A09882309F478C0C0910002DF
:10139000D09101028E81882369F088819981AA8188
:1013A000BB81C816D906EA06FB0621F48F81988511
:1013B000892BB1F1C882D982EA82FB828B85A70191
:1013C0009601833039F089E0220F331F441F551FE7
:1013D0008A95D1F761E1CE010E948608882319F031
:1013E00083E08D8337C00E945F088B010E94AF07A6
:1013F0008A878F3F49F40E945F08601B710B6D3232
:101400007140A0F38FE003C08E3F31F08DE08D83FB
:10141000CE010E9415081EC018861F8281E08E83AF
:1014200007E012E00E94AF07F80181938F01F4E01A
:1014300007301F07B9F78F8198859E5F98878F8344
:101440002985222319F08115924048F0CE010E948F
:10145000200805C0CE010E94150880E00FC0C09290
:101460001601D0921701E0921801F09219018091B3
:101470000202482F4B294093020281E0DF91CF9175
:101480001F910F91FF90EF90DF90CF90BF90089544
:101490004F925F926F927F928F929F92AF92BF9284
:1014A000CF92DF92EF92FF920F931F93CF93DF9330
:1014B000EC016A017B0128013901423051056105C7
:1014C000710510F480E073C089859A85AB85BC8571
:1014D0000196A11DB11D84179507A607B70790F3C4
:1014E0008B889C88AD88BE888F89803129F4BB2782
:1014F000AF2D9E2D8D2D09C0DB01CA0147E0B695A9
:10150000A795979587954A95D1F7880E991EAA1E9B
:10151000BB1E8091160190911701A0911801B09106
:10152000190188169906AA06BB0679F48F898031BD
:10153000A1F4DD24EE24FF24C601880F991FFC01CD
:10154000E95FFD4F5182408219C040E0C501B401FE
:101550000E94A7098111EACFB5CFE894C7F8DD242E
:10156000EE24FF24C601880F991F880F991FFC01E4
:10157000E95FFD4F40825182628273828091020254
:101580008160809302028A89823080F08D819E8101
:10159000AF81B885880E991EAA1EBB1E80920302D9
:1015A00090920402A0920502B092060281E0DF91BF
:1015B000CF911F910F91FF90EF90DF90CF90BF9050
:1015C000AF909F908F907F906F905F904F90089515
:1015D0008F929F92AF92BF92CF92DF92EF92FF9243
:1015E0000F931F93CF93DF93FC0181859285A38591
:1015F000B4850196A11DB11D84179507A607B707ED
:1016000010F480E05CC083899489A589B689C78974
:10161000C03129F4852E962EA72EBB2409C04A017D
:101620005B01C7E0B694A79497948794CA95D1F7C5
:10163000E9016A017B018F01BC01CD01680D791DB3
:101640008A1D9B1D8090160190901701A090180193
:10165000B0901901681579058A059B0599F4F80180
:1016600087898031A9F4B701A60155276627772716
:10167000440F551FFA01E95FFD4F80819181A0E081
:10168000B0E018C040E00E94A7098111E8CFB9CFAF
:10169000B701A6014F77552766277727440F551FB7
:1016A000440F551FFA01E95FFD4F80819181A281AE
:1016B000B381BF7088839983AA83BB8381E0DF9164
:1016C000CF911F910F91FF90EF90DF90CF90BF903F
:1016D000AF909F908F9008953F924F925F926F923C
:1016E0007F928F929F92AF92BF92CF92DF92EF92B2
:1016F000FF920F931F93CF93DF93CDB7DEB72C9755
:101700000FB6F894DEBF0FBECDBF5C01DC015B9667
:101710008D909C905C971696CD90DD90ED90FC900E
:101720001997C114D104E104F10439F0BFEFCB1AC9
:10173000DB0AEB0AFB0A312C07C0F401C080D18020
:10174000E280F38033243394F40181859285A3856C
:10175000B4859C01AD012F5F3F4F4F4F5F4F2987ED
:101760003A874B875C87260137011D821E821F82C4
:101770001886F40181859285A385B4852D813E81EB
:101780004F815885281739074A075B0708F063C05F
:1017900089859A85AB85BC858C159D05AE05BF05F1
:1017A00050F482E0C82ED12CE12CF12C92E0492E8D
:1017B000512C612C712C9E012F5F3F4FB701A60168
:1017C000C4010E94E80A882309F445C089819A81EE
:1017D000AB81BC81892B8A2B8B2B41F026013701F1
:1017E0009FEF491A590A690A790A05C0C414D50439
:1017F000E604F70491F02D813E814F8158852F5FDB
:101800003F4F4F4F5F4F2D833E834F8358873FEFAE
:10181000C31AD30AE30AF30AACCF0FEF1FEF2FEF7F
:101820003FE0B301A201C4010E94480A882399F055
:10183000D50116964D915D916D917C911997411549
:1018400051056105710549F093018201C4010E94AF
:10185000480A811102C080E02AC0D50116964D9237
:101860005D926D927C921997332051F0D301C201A1
:101870000196A11DB11DF40180839183A283B383DE
:10188000F5018789908DA18DB28D892B8A2B8B2BA9
:1018900069F4D50157964D925D926D927C925A975C
:1018A00014968C911497806814968C9381E02C96F2
:1018B0000FB6F894DEBF0FBECDBFDF91CF911F9161
:1018C0000F91FF90EF90DF90CF90BF90AF909F90DF
:1018D0008F907F906F905F904F903F9008954F92C0
:1018E0005F926F927F928F929F92AF92BF92EF9290
:1018F000FF920F931F93CF93DF9300D000D01F92DE
:10190000CDB7DEB78C016D83DC0115968C911597F0
:10191000813009F057C014968C9181FF53C05AC092
:10192000038CF48DE02D258530E0275F3F4F2A01A1
:101930003B01B1E04B1A510861087108022E04C046
:1019400076946794579447940A94D2F7D501C401CA
:101950000197A109B10904C0B695A79597958795F8
:101960002A95D2F784159505A605B70508F070C02D
:10197000F8014789508D618D728D4683578360874A
:1019800071872C013D017801E6E0EE0EF11CD801D3
:10199000411451046104710409F464C016964D9118
:1019A0005D916D917C91199797015B968D919C91BA
:1019B0005C970E94E80AB1E04B1A5108610871086F
:1019C0008111E5CF81E090E0F8019383828380E08C
:1019D00090E04FC182FF0EC0F801428553856485B7
:1019E000758583889488A588B688481559056A0541
:1019F0007B05F1F4D8011A964D915D916D917C9122
:101A00001D975B968D919C915C97FC0174807A94F4
:101A10004A015B0129E0B694A794979487942A958C
:101A2000D1F778207A01F1E0FF22772011F164C02C
:101A300081149104A104B10409F072CF16821782B7
:101A400010861186F8011286138614861586D2CF69
:101A5000452B462B472B09F48BCF84199509A609F2
:101A6000B7098FCF1A968D929D92AD92BC921D9719
:101A7000C1CFE114F10409F03FC0F801468157815C
:101A800060857185411551056105710549F48789A6
:101A9000908DA18DB28D0097A105B10541F521C0B2
:101AA0009E012F5F3F4F0E94E80A882309F48FCFE1
:101AB00089819A81AB81BC81F801238D348DF90134
:101AC0002789203129F048EF5FEF6FEF7FE004C0F6
:101AD00048EF5FEF60E070E084179507A607B7074F
:101AE00030F0C8010E946C0B811106C06BCFF80169
:101AF00086839783A087B187D8015B96ED91FC918F
:101B00005C9716968D909D90AD90BC901997B2E021
:101B10008B1A9108A108B108058404C0880C991C8F
:101B2000AA1CBB1C0A94D2F786859785A089B18927
:101B3000880E991EAA1EBB1E870C911CA11CB11CED
:101B4000E114F10409F5F801428553856485758532
:101B500083899489A589B689481759076A077B073D
:101B600098F00E946A09882309F42CCF809216010C
:101B700090921701A0921801B0921901809102026F
:101B800081608093020208C041E0C501B4010E9457
:101B9000A709882309F416CFF701E95FFD4F8D816E
:101BA0008083F80182859385A485B5850196A11D62
:101BB000B11D82879387A487B58743895489658936
:101BC0007689481759076A077B0738F4838B948B0B
:101BD000A58BB68B848180688483D80114968C9100
:101BE00083FD03C081E090E044C0F8019581992312
:101BF00009F4E8CE87FF38C06685778580899189AA
:101C000041E00E94A709882309F4DCCED80152964E
:101C1000EC91B0E2EB9F90011124D901A95FBD4F77
:101C2000109709F4CFCEF8018581823050F44389B2
:101C30005489658976895C964D935D936D937C9309
:101C40005F97F8018789908DA18DB28DF901E95FC9
:101C5000FD4F938F828FB58BA48BD80114968C91F6
:101C600014978F7714968C930E946A098111BACFCA
:101C7000A9CE0F900F900F900F900F90DF91CF9102
:101C80001F910F91FF90EF90BF90AF909F908F901A
:101C90007F906F905F904F9008951F920F920FB6B4
:101CA0000F9211242F933F938F939F93AF93BF93E2
:101CB0008091080490910904A0910A04B0910B044A
:101CC0003091070423E0230F2D3720F40196A11D46
:101CD000B11D05C026E8230F0296A11DB11D20935A
:101CE00007048093080490930904A0930A04B09316
:101CF0000B0480910C0490910D04A0910E04B091FE
:101D00000F040196A11DB11D80930C0490930D0446
:101D1000A0930E04B0930F04BF91AF919F918F9148
:101D20003F912F910F900FBE0F901F9018951F920B
:101D30000F920FB60F9211242F933F934F935F93FF
:101D40006F937F938F939F93AF93BF93EF93FF9383
:101D5000E0910801F09109010995FF91EF91BF9180
:101D6000AF919F918F917F916F915F914F913F9133
:101D70002F910F900FBE0F901F9018951F920F92EA
:101D80000FB60F9211242F933F934F935F936F934E
:101D90007F938F939F93AF93BF93EF93FF93E091C4
:101DA0000601F09107010995FF91EF91BF91AF9165
:101DB0009F918F917F916F915F914F913F912F9163
:101DC0000F900FBE0F901F9018951F920F920FB695
:101DD0000F9211242F933F934F935F936F937F93B1
:101DE0008F939F93AF93BF93EF93FF93E091040181
:101DF000F09105010995FF91EF91BF91AF919F91EE
:101E00008F917F916F915F914F913F912F910F90A3
:101E10000FBE0F901F9018951F920F920FB60F9242
:101E200011242F933F934F935F936F937F938F93DF
:101E30009F93AF93BF93EF93FF93E0910201F091D3
:101E400003010995FF91EF91BF91AF919F918F9100
:101E50007F916F915F914F913F912F910F900FBEA6
:101E60000F901F9018951F920F920FB60F9211248A
:101E70002F933F934F935F936F937F938F939F9392
:101E8000AF93BF93EF93FF93E0910001F0910101B5
:101E90000995FF91EF91BF91AF919F918F917F91A4
:101EA0006F915F914F913F912F910F900FBE0F90C7
:101EB0001F9018951F920F920FB60F9211240F903A
:101EC0000FBE0F901F90189590E0FC01EA56FE4F50
:101ED0002491FC01E958FE4F8491882399F090E009
:101EE000880F991FFC01E759FE4FA591B491FC01A1
:101EF000E55AFE4F859194918FB7F894EC91E22BBF
:101F0000EC938FBF0895009769F0FC0101900020C9
:101F1000E9F73197AF01481B590BBC0182E194E00E
:101F20000C94270280E090E008950C94830F8F9228
:101F30009F92AF92BF920F931F93CF93DF93CDB732
:101F4000DEB7A1970FB6F894DEBF0FBECDBF19A2C2
:101F5000423008F44AE08E010F5D1F4F842E912C11
:101F6000A12CB12CA50194010E943E16E62FB901C7
:101F7000CA0101501109EA3014F4E05D01C0E95CC6
:101F8000D801EC93232B242B252B61F7C8010E9449
:101F9000830FA1960FB6F894DEBF0FBECDBFDF91C1
:101FA000CF911F910F91BF90AF909F908F90089508
:101FB000CF92DF92EF92FF92CF93DF936C01990F54
:101FC000EE08FF08F7FE1AC0E0911204F091130426
:101FD0000190F081E02D6DE282E194E00995EC0141
:101FE00066277727CB016C197D098E099F094AE086
:101FF0000E94970F7C01EC0EFD1E06C04AE0C7014F
:10200000B6010E94970F7C0182EB91E00E94830F42
:102010008E0D9F1DDF91CF91FF90EF90DF90CF90BD
:1020200008950F931F930E945F0860931A047093A2
:102030001B0480931C0490931D04E0911204F09102
:1020400013040284F385E02D82E194E0099597FF63
:102050001FC00E945F0800911A0410911B04209178
:102060001C0430911D04DC01CB01801B910BA20BE1
:10207000B30B0091160410911704209118043091AD
:10208000190480179107A207B307B8F28FEF9FEFEB
:102090001F910F910895CF92DF92EF92FF920E94CD
:1020A0003A086B017C010E943A08DC01CB018C19D3
:1020B0009D09AE09BF09883E9340A105B10598F37B
:1020C000FF90EF90DF90CF900895FC018091110474
:1020D000811103C08FEF9FEF08959FB7F89482E0BE
:1020E0008093E9002091F20030E01216130614F4F8
:1020F00021E030E02115310559F0289A84E68093DB
:1021000010048091F10080838091F200882319F0FF
:102110009FBFC90108958BE68093E800F9CF2FB7E0
:10212000F89483E08093E9009091E800892F807211
:1021300095FF04C09091F20080E4891B2FBF0895A1
:102140008091040581110DC082E08093000584E038
:1021500080930105109203051092020581E080939F
:10216000040580E095E00895CF93DF93CDB7DEB707
:1021700062970FB6F894DEBF0FBECDBF789484B5DA
:10218000826084BD84B5816084BD85B5826085BD73
:1021900085B5816085BD80916E00816080936E0001
:1021A00010928100809181008260809381008091F3
:1021B00081008160809381008091800081608093A4
:1021C00080008091910082608093910080919100C5
:1021D0008160809391008091900081608093900055
:1021E0008091C10084608093C1008091C1008260B1
:1021F0008093C1008091C10081608093C100809173
:10220000C30081608093C3008091C000826080938E
:10221000C0008091C20081608093C20080917A00EA
:10222000846080937A0080917A00826080937A0043
:1022300080917A00816080937A0080917A00806832
:1022400080937A00109211041092F6011092F50119
:102250008091D70081608093D70080EA8093D80076
:1022600089B5806189BD89B5826089BD09B400FEE8
:10227000FDCF0E944B108091D8008F7C80618093AD
:10228000D8008091E000807F8093E0008091E100A1
:102290008E7E8093E1008DE08093E200559A209A33
:1022A0005D982898EEEFFFE7859194918B3F9C4DC8
:1022B00019F481E08093F401E0912204F091230469
:1022C00082E08083E0911E04F0911F041082E0916F
:1022D0002004F09121048FEC808310922A04E09175
:1022E0002604F091270486E08083E0912404F09195
:1022F0002504808180618083E0912404F09125048D
:10230000808188608083E0912404F091250480819D
:1023100080688083E0912404F091250480818F7D82
:1023200080831FB7F8948091F701811124C0E8E8F9
:10233000F1E08491E7EAF1E09491E82FF0E0EE0F0C
:10234000FF1FE759FE4FA591B491EC91E92321F4C9
:1023500061E081E10E94B20781E10E94640F8CB5C7
:1023600080618CBD8CB580648CBD8FE00E94640F51
:1023700080E10E94640F8091F7018F5F8093F701E5
:102380001FBF8091EA040E94640F61E08091EA041B
:102390000E94B2078091E8040E94640F61E080917E
:1023A000E8040E94B2078091DE040E94640F61E09D
:1023B0008091DE040E94B2078091CD040E94640FD8
:1023C00061E08091CD040E94B2078BE00E94640F0F
:1023D00084E00E94640F8CE00E94640F86E00E94FB
:1023E000640F61E084E00E94B20761E08CE00E942B
:1023F000B20761E086E00E94B20786E10E94640FA6
:1024000085E10E94640F84E10E94640F83E10E94D1
:10241000640F82E10E94640F60E086E10E94B207CF
:1024200061E085E10E94B20760E084E10E94B207AA
:1024300060E083E10E94B20760E082E10E94B2079F
:1024400061E088E00E94B20761E089E00E94B20783
:1024500061E08BE00E94B207109280001092810030
:102460001092800080918100896080938100109299
:1024700085001092840080EA90E090938900809318
:10248000880082E086BB84EA97E090930101809304
:102490000001809169008C7F826080936900E89AD6
:1024A00080EA97E090930301809302018091690094
:1024B000837F886080936900E99A24E0E22E36E009
:1024C000B32E45E0A42ECC24C394D12C83E0982EC7
:1024D00092E0892EFF24F39482E194E00E9483022B
:1024E000892B09F44AC264EB71E0CE010D960E947B
:1024F0008C040E94111097FD1EC08C329105D9F0FA
:1025000089831A8209891A890F5F1F4FB801CE018A
:102510000D960E946004882361F32D853E8589898C
:102520009A89BE016F5F7F4F820F931F0E947418BC
:102530001A8B098BDECF22E030E040E050E0BE0194
:10254000635F7F4FCE0107960E947F0129893A89F8
:1025500042E050E0BE01635F7F4FCE0101960E94D2
:102560007F0167E571E0CE0107960E941401882380
:1025700061F16AE571E0CE0101960E9414018823A1
:1025800029F0D092B204C092B104EAC16DE571E0C5
:10259000CE0101960E941401882329F01092B20402
:1025A0001092B104DDC160E671E0CE0101960E9497
:1025B0001401882309F4D4C182E691E00E94950FAA
:1025C0008091B1049091B2042EC068E671E0CE0112
:1025D00007960E941401882349F16BE671E0CE0151
:1025E00001960E941401882319F01092B304B8C117
:1025F00062E771E0CE0101960E941401882319F070
:10260000F092B304ADC160E671E0CE0101960E9484
:102610001401882309F4A4C187E791E00E94950F73
:102620008091B30490E00E94D80F9AC16DE771E0E9
:10263000CE0107960E9414018823F9F060E671E04C
:10264000CE0101960E941401882349F080E891E0B0
:102650000E94950F8091B4049091B504E4CF8D81D0
:102660009E81892B09F47CC1CE0101960E9409014B
:102670007093B5046093B40473C164E871E0CE0153
:1026800007960E9414018823F9F060E671E0CE01FC
:1026900001960E941401882349F087E891E00E9486
:1026A000950F8091B6049091B704BDCF8D819E8126
:1026B000892B09F455C1CE0101960E94090170933E
:1026C000B7046093B6044CC16BE871E0CE01079685
:1026D0000E9414018823F9F060E671E0CE010196B2
:1026E0000E941401882349F08EE891E00E94950F22
:1026F0008091B8049091B90496CF8D819E81892BE9
:1027000009F42EC1CE0101960E9409017093B9040B
:102710006093B80425C162E971E0CE0107960E947A
:1027200014018823F9F060E671E0CE0101960E9461
:102730001401882349F085E991E00E94950F80916A
:10274000BA049091BB046FCF8D819E81892B09F4CF
:1027500007C1CE0101960E9409017093BB046093EA
:10276000BA04FEC069E971E0CE0107960E94140127
:102770008823A1F16CE971E0CE0101960E94140159
:10278000882319F06CE971E00AC063EA71E0CE01B8
:1027900001960E941401882339F063EA71E08EEB00
:1027A00094E00E945E01DCC060E671E0CE0101961B
:1027B0000E941401882309F4D3C08CEA91E00E949E
:1027C000950F4091C2045091C3046091BE04709172
:1027D000BF0482E194E00E94270273C065EB71E0C0
:1027E000CE0107960E941401882339F160E671E05A
:1027F000CE0101960E941401882349F088EB91E0F4
:102800000E94950F8091BC049091BD040CCF8D81E6
:102810009E81892B09F4A4C0CE0101960E94090172
:102820007093BD046093BC04161617060CF498C090
:10283000D092BD04C092BC0493C06FEB71E0CE0196
:1028400007960E9414018823F9F060E671E0CE013A
:1028500001960E941401882339F082EC91E00E94D5
:10286000950F6091C40427C08D819E81892B09F446
:1028700077C0CE0101960E9409016093C4046111E2
:102880006FC0F092C4046CC067EC71E0CE01079693
:102890000E941401882309F45FC060E671E0CE0154
:1028A00001960E941401882389F08AEC91E00E942D
:1028B000950F6091C50470E080E090E04AE00E94CE
:1028C000970F82EB91E00E94830F4AC08D819E8119
:1028D000892B09F445C062ED71E0CE0101960E949A
:1028E000140181111092C50460ED71E0CE010196D2
:1028F0000E9414018111F092C50464ED71E0CE01D3
:1029000001960E94140181118092C50467ED71E067
:10291000CE0101960E94140181119092C5046BEDC5
:1029200071E0CE0101960E9414018111E092C5046C
:1029300060EE71E0CE0101960E9414018111A09217
:10294000C50463EE71E0CE0101960E941401882354
:1029500039F0B092C50404C087EE91E00E94950F53
:10296000CE0101960E948704CE0107960E9487043B
:10297000CE010D960E948704AFCD0E942303A6CD01
:10298000CF92DF92EF92FF920F931F93CF93DF933B
:102990001F92CDB7DEB7182F062FE42E862F880F93
:1029A0008E5F99830E94C50183E00E94C501F12ECC
:1029B000C12E9981D92E8C2D8F19801798F4F6018C
:1029C000E7FE02C0849101C080810E94C501182FDA
:1029D00080E00E94C5018123FFEFCF1ADF0A811139
:1029E000EACF01C081E00F90DF91CF911F910F914D
:1029F000FF90EF90DF90CF9008958EEB94E00E94CF
:102A000087048CEE94E00E94870482EF94E00E9499
:102A1000870488EF94E00C9487040F931F93CF935F
:102A2000DF93E2E1F4E01382128288EE93E0A0E00B
:102A3000B0E084839583A683B7832BE231E03183B2
:102A400020832DEC30E0358724872CEC30E037876D
:102A5000268708EC10E0118B008B29EC30E0338BDB
:102A6000228B2AEC30E0358B248B2EEC30E0378B38
:102A7000268B118E128E138E148EECE0F5E01382ED
:102A8000128284839583A683B7838DE391E091833B
:102A900080838FEF9FEF95878487EFEAF4E080E5EE
:102AA00080831182ECE5F5E015821682118613868B
:102AB00042E050E060E070E04487558766877787A2
:102AC00013A215A614A62FE431E033A722A717A658
:102AD000E5EAF5E0808381E08183EEEFF4E094E5C0
:102AE0009083818364EB71E088EF94E00E948C0412
:102AF00064EB71E082EF94E00E948C0464EB71E07F
:102B00008CEE94E00E948C048AE090E09093EB04B9
:102B10008093EA0485E090E09093E9048093E804D0
:102B2000E7EDF4E01182108288E090E090878783DF
:102B300083E090E092878187E6ECF4E011821082D6
:102B400089E090E09087878382E090E09287818798
:102B5000C1EBD4E081E090E0998388831A821C83E2
:102B60000B8384E690E09E838D832CE231E03887EE
:102B70002F831A8709879C878B876CE971E08EEB1E
:102B800094E00E948C0483E08B8B1C8ADF91CF91B0
:102B90001F910F9108951F93FC0199278827BC016D
:102BA000E89411911032E9F3193010F01E30C8F397
:102BB0001B3251F01D3249F4689406C00E94F21590
:102BC000610F711D811D911D119110531A30B0F3C9
:102BD0003EF490958095709561957F4F8F4F9F4FF4
:102BE0001F910895592F482F372F262F660F771FD3
:102BF000881F991F660F771F881F991F620F731F09
:102C0000841F951F660F771F881F991F08952F92A5
:102C10003F924F925F926F927F928F929F92AF926C
:102C2000BF92CF92DF92EF92FF920F931F93CF93B9
:102C3000DF93CDB7DEB7CA1BDB0B0FB6F894DEBF50
:102C40000FBECDBF09942A88398848885F846E8476
:102C50007D848C849B84AA84B984C884DF80EE80C0
:102C6000FD800C811B81AA81B981CE0FD11D0FB6C9
:102C7000F894DEBF0FBECDBFED010895A1E21A2E7C
:102C8000AA1BBB1BFD010DC0AA1FBB1FEE1FFF1F10
:102C9000A217B307E407F50720F0A21BB30BE40B60
:102CA000F50B661F771F881F991F1A9469F76095A7
:102CB0007095809590959B01AC01BD01CF01089561
:102CC000EE0FFF1F0590F491E02D0994CF93DF9351
:102CD0008230910510F482E090E0E091A905F09136
:102CE000AA0520E030E0C0E0D0E0309711F140814B
:102CF000518148175907C0F04817590761F482817C
:102D00009381209719F09B838A832BC09093AA0507
:102D10008093A90526C02115310519F042175307E4
:102D200018F49A01BE01DF01EF010280F381E02D6A
:102D3000DCCF2115310509F1281B390B2430310571
:102D400090F412968D919C9113976115710521F065
:102D5000FB019383828304C09093AA058093A90505
:102D6000FD01329644C0FD01E20FF31F8193919360
:102D7000225031092D933C933AC02091A705309100
:102D8000A805232B41F420911C0130911D013093A3
:102D9000A8052093A70520911A0130911B01211548
:102DA000310541F42DB73EB740911E0150911F01EE
:102DB000241B350BE091A705F091A805E217F30756
:102DC000A0F42E1B3F0B2817390778F0AC014E5F9B
:102DD0005F4F2417350748F04E0F5F1F5093A8052B
:102DE0004093A7058193919302C0E0E0F0E0CF010A
:102DF000DF91CF9108950F931F93CF93DF930097A7
:102E000009F48CC0FC013297138212820091A9054B
:102E10001091AA050115110581F420813181820FDD
:102E2000931F2091A7053091A8052817390779F538
:102E3000F093A805E093A70571C0D80140E050E0E9
:102E4000AE17BF0750F412962D913C911397AD0128
:102E50002115310509F1D901F3CF9D01DA01338341
:102E6000228360817181860F971F8217930769F40F
:102E7000EC0128813981260F371F2E5F3F4F3183A8
:102E800020838A819B8193838283452B29F4F0934D
:102E9000AA05E093A90542C01396FC93EE931297FE
:102EA000ED01499159919E01240F351FE217F30757
:102EB00071F480819181840F951F029611969C93E5
:102EC0008E938281938113969C938E931297E0E068
:102ED000F0E0D80112968D919C911397009719F00C
:102EE000F8018C01F6CF8D919C9198012E5F3F4F98
:102EF000820F931F2091A7053091A8052817390745
:102F000069F4309729F41092AA051092A90502C01D
:102F1000138212821093A8050093A705DF91CF9129
:102F20001F910F910895A0E0B0E0E9E9F7E10C945A
:102F30000B16EC01009721F4CB010E946616B8C075
:102F4000FC01E60FF71F9C0122503109E217F3073D
:102F500008F4ACC0D9010D911C9111970617170701
:102F6000B0F00530110508F49FC0C801049786171A
:102F7000970708F499C002501109061B170B01931B
:102F800011936D937C93CF010E94FB168DC05B0162
:102F9000A01AB10A4C01800E911EA091A905B09112
:102FA000AA0540E050E0E12CF12C109709F44AC04A
:102FB000A815B905D1F56D907C901197630182E059
:102FC000C80ED11CCA14DB0480F1A3014A195B09A5
:102FD0006A0182E0C80ED11C1296BC90129713961B
:102FE000AC91B5E0CB16D10440F0B282A3835183FB
:102FF0004083D9016D937C930AC00E5F1F4FC301BC
:10300000800F911FF90191838083EB2DFA2FE1143A
:10301000F10431F0D7011396FC93EE93129744C05C
:10302000F093AA05E093A9053FC08D919C9111975B
:103030004817590708F4AC017D0112960D90BC9118
:10304000A02DB3CF8091A7059091A805881599056B
:10305000E1F446175707C8F480911A0190911B01BB
:10306000009741F48DB79EB740911E0150911F010A
:10307000841B950BE817F907C8F4F093A805E093B3
:10308000A705F901718360830FC0CB010E9466160A
:103090007C01009759F0A801BE010E946218CE0180
:1030A0000E94FB16C70104C0CE0102C080E090E080
:1030B000CDB7DEB7EEE00C94271681E090E0F894EF
:1030C0000C947B18FB01DC0102C001900D92415071
:1030D0005040D8F70895FB01DC018D9101908019D3
:1030E0000110D9F3990B0895FB01DC0101900D92B9
:1030F0000020E1F7089510E0CCEDD0E004C0FE011F
:103100000E9460162196CD3DD107C9F7F894FFCFF4
:103110009B079B079B079B079B07FFFFFFFF00E1A8
:10312000000000000000FFFFFFFF0000AB05800073
:1031300000C1808100000000000000BA0227025296
:10314000020103830261027502000000002D039A50
:10315000031A0443034E0342041E04000000006FE0
:103160000C27029D079C075445004356004341002D
:103170003F00546563683A004D4F0053696E676CB9
:1031800065004475616C004D6F64653A005632000D
:1031900076323A00564C00766C3A00564800766813
:1031A0003A0056530076733A00534400416E6F6400
:1031B000696300436174686F6469630053446972B2
:1031C0003A000D0A0053520053526174653A00539D
:1031D00045005365673A004741004761696E3A0010
:1031E00031303000336B0033306B003330306B00E4
:1031F000334D0033304D00556E7265636F676E69F5
:043200007A65640087
:00000001FF
