:100000000C94DD000C94710E0C944A0E0C94230E8B
:100010000C94FC0D0C9405010C9405010C94D50D69
:100020000C9405010C9405010C94DF030C9451040D
:100030000C9405010C9405010C9405010C94050128
:100040000C9405010C94980E0C9405010C94050178
:100050000C9405010C9405010C9405010C948B0D76
:100060000C9405010C94A7060C9481060C940501D0
:100070000C9405010C9405010C9405010C940501E8
:100080000C9405010C9405010C9405010C940501D8
:100090000C9405010C9405010C9405010C940501C8
:1000A0000C9405010C9405010C9405011B071E0717
:1000B0000D07110715073F073F073F0722072607D0
:1000C0002A07300734073F073A07080B00020202ED
:1000D00001000904000001020200000524001001D3
:1000E0000524010101042402060524060001070578
:1000F000810310004009040100020A000000070506
:1001000002024000000705830240000004030904C6
:1001100012010002EF020140412337800001010279
:10012000030141726475696E6F204C4C430041724B
:100130006475696E6F204D6963726F000000000284
:1001400000090F0000030401000C00000000000083
:10015000000000000000000000000000000000257A
:100160000028002B002E0031000000000024002792
:10017000002A002D003000040404040403040502D6
:100180000202020403020202020606060606060432
:1001900004020202040404080201104080401020FE
:1001A000408040800802040180402010020110803D
:1001B0001020404020004012CE0F11241FBECFEF70
:1001C000DAE0DEBFCDBF24E0AAE5B1E001C01D92B8
:1001D000AC3FB207E1F711E0A0E0B1E0ECE5FAE2F4
:1001E00002C005900D92AA35B107D9F710E0CCED09
:1001F000D0E004C02197FE010E940F13CB3DD10730
:10020000C9F70E94E00F0C9421150C94000008958A
:1002100040915C0150915D0120915A0130915B0148
:1002200042175307B4F49091E8009570E1F3909170
:10023000E80092FD19C08093F10080915C019091DB
:100240005D0101968F739927892B19F48EEF8093A6
:10025000E80080915C0190915D01019690935D01B1
:1002600080935C0181E0089580E00895DF92EF9231
:10027000FF920F931F93CF93DF93D82E8A017B01B8
:10028000E40EF51EEB01CE15DF0571F0D7FE03C0BD
:10029000FE01849101C088810E940801219681118C
:1002A000F2CF8FEF9FEF01C0C801DF91CF911F9177
:1002B0000F91FF90EF90DF900895615030F0209102
:1002C000F100FC0120830196F8CF289A84E6809300
:1002D00076030895CF92DF92EF92FF920F931F93D0
:1002E000CF93DF936C017A018B01C0E0D0E0CE1593
:1002F000DF0589F0D8016D918D01D601ED91FC915A
:100300000190F081E02DC6010995892B11F47E0141
:1003100002C02196ECCFC701DF91CF911F910F91C1
:10032000FF90EF90DF90CF900895FC01538D448DA6
:10033000252F30E0842F90E0821B930B541710F090
:10034000CF96089501970895FC01918D828D98179D
:1003500061F0828DDF01A80FB11D5D968C91928DA9
:100360009F5F9F73928F90E008958FEF9FEF0895A6
:10037000FC01918D828D981731F0828DE80FF11D6F
:10038000858D90E008958FEF9FEF0895FC01918D8A
:10039000228D892F90E0805C9F4F821B91098F7383
:1003A0009927089588E793E00E94C60121E0892BF0
:1003B00009F420E0822F0895FC01848DDF01A80F4D
:1003C000B11DA35ABF4F2C91848D90E001968F737D
:1003D0009927848FA689B7892C93A089B1898C919C
:1003E00080648C93938D848D981306C00288F38962
:1003F000E02D80818F7D80830895EF92FF920F938F
:100400001F93CF93DF93EC0181E0888F9B8D8C8DC0
:10041000981305C0E889F989808185FD24C0F62EEE
:100420000B8D10E00F5F1F4F0F731127E02E8C8D87
:10043000E8120CC00FB607FCFACFE889F989808171
:1004400085FFF5CFCE010E94DC01F1CF8B8DFE013F
:10045000E80FF11DE35AFF4FF0820B8FEA89FB8909
:100460008081806207C0EE89FF896083E889F9890D
:1004700080818064808381E090E0DF91CF911F9143
:100480000F91FF90EF900895CF93DF93EC01888D4B
:100490008823C9F0EA89FB89808185FD05C0A88988
:1004A000B9898C9186FD0FC00FB607FCF5CF80810E
:1004B00085FFF2CFA889B9898C9185FFEDCFCE0158
:1004C0000E94DC01E7CFDF91CF91089580E090E0BA
:1004D000892B29F00E94D20181110C94000008950B
:1004E000CF93DF931F92CDB7DEB76983DC01ED9127
:1004F000FC910280F381E02D41E050E0BE016F5F8E
:100500007F4F09950F90DF91CF91089583E08093FD
:10051000E9008091F200882319F08AE38093E800D3
:100520000895FC018485958597FD0BC09FB7F894CD
:1005300082E08093E9008091F2009FBF90E00196F5
:1005400008959FB7F89482E08093E9008091F200CB
:100550009FBF90E008950F931F93CF93DF931F9257
:10056000CDB7DEB782E0898342E450E06AEC70E008
:1005700080E80E9436010E947D0FDC0112960D91E9
:100580001C9113970115110569F0D801ED91FC91AB
:100590000280F381E02DBE016F5F7F4FC801099596
:1005A00097FF07C089810F90DF91CF911F910F9125
:1005B0000895F80100851185E5CF8F929F92AF9243
:1005C000BF92CF92DF92EF92FF920F931F93CF9340
:1005D000DF936C015B017A0180910B01882309F4A0
:1005E00056C080917703882309F451C0809173032A
:1005F00080FF05C08091E00082608093E000E70109
:1006000010E00AEF83E0882E9AE3992E2097B1F14B
:100610000E946C0F811105C00150C9F10E94280F82
:10062000F5CF282F30E0C217D3070CF48C2F4FB72B
:10063000F8948092E9009091E80095FF1DC0282F62
:1006400030E0C21BD30BF501982F915020F081911F
:100650008093F100FACFA20EB31E112319F09092ED
:10066000E80009C08091E80085FD06C09092E8008E
:1006700011E0209709F010E04FBFC8CF1111C8CF8B
:100680005D9A84E680935E011E141F0444F081E0AD
:1006900090E0F6019383828380E090E001C0C7017F
:1006A000DF91CF911F910F91FF90EF90DF90CF904E
:1006B000BF90AF909F908F9008950E946C0F90E034
:1006C0000895CF93DF931F92CDB7DEB7FC018485E9
:1006D000958597FD05C02FEF3FEF358724870BC029
:1006E000CE0101960E94420F019719F4898190E092
:1006F00002C08FEF9FEF0F90DF91CF9108950F937E
:100700001F93CF93DF931F92CDB7DEB78C01FC010F
:100710008485958597FF0EC0CE0101960E94420FF9
:10072000019719F4298130E002C02FEF3FEFF80163
:1007300035872487F801848595850F90DF91CF91C7
:100740001F910F9108950F931F93CF93DF93EC01A7
:1007500088819981009729F02A813B8126173707E4
:1007600088F48B016F5F7F4F0E944214009761F005
:10077000998388831B830A832C813D81232B11F469
:10078000FC01108281E001C080E0DF91CF911F91D8
:100790000F910895FC01118210821382128215823A
:1007A00014826115710551F0FB0101900020E9F7F9
:1007B0003197AF01461B570B0C94A40E08951F925E
:1007C0000F920FB60F9211248F939F938091E100A7
:1007D0009091E100937F9093E10083FF0FC010920E
:1007E000E90091E09093EB001092EC0092E390937B
:1007F000ED001092770398E09093F00082FF20C004
:1008000093E09093E9009091F200992319F09AE314
:100810009093E80090915E01992339F090915E01E8
:10082000915090935E01992389F1909176039923D9
:1008300039F090917603915090937603992341F18A
:1008400084FF10C08091E2008E7E81608093E20080
:100850008091E1008F7E8093E100809173038E7E12
:10086000806111C080FF16C08091E2008E7E8061A1
:100870008093E2008091E1008E7E8093E100809180
:1008800073038E7E81608093730304C05D98CDCF27
:100890002898D6CF9F918F910F900FBE0F901F90E9
:1008A00018951F920F920FB60F921124CF92DF92DC
:1008B000EF92FF920F931F932F933F934F935F936A
:1008C0006F937F938F939F93AF93BF93EF93FF9318
:1008D000CF93DF93CDB7DEB76C97DEBFCDBF10925D
:1008E000E9008091E80083FFEDC168E0CE01459604
:1008F0000E945D0182EF8093E8008D8987FF05C02B
:100900009091E80090FFFCCF03C09EEF9093E80029
:10091000982F907609F0C6C09E892F89188D911165
:100920000CC0803829F4809174038093F10002C0D8
:100930001092F1001092F10048C1422F50E0512B6B
:10094000913051F4811141C14130510509F03DC14F
:10095000809174038D7F0BC0933061F4811135C198
:100960004130510509F031C1809174038260809358
:1009700074032BC1953041F48091E80080FFFCCFD7
:1009800020682093E30021C1963009F05FC0EB8C12
:10099000FC8C1092E90010925D0110925C01123003
:1009A00091F510925B0110925A010E94AB0299E0FE
:1009B000BE016F5F7F4FDB01E92F1D92EA95E9F7DA
:1009C00099831A8391E09E8390EA98879AEF99879A
:1009D00020915C0130915D01275F3F4F3C832B8369
:1009E0008D831092E90010925D0110925C01F092EB
:1009F0005B01E0925A0149E050E080E00E9436013C
:100A00000E94AB02E2C0F0925B01E0925A010E94A8
:100A10007D0FDC011296ED90FC901397E114F10428
:100A200009F4C0C0D701ED91FC910480F581E02D5F
:100A3000BE016B5E7F4FC7010995009719F00CF05E
:100A4000C4C0C7C0F701E084F184E8CF973009F44F
:100A5000C0C0983021F481E08093F100B6C0993095
:100A600009F0B3C0837009F0B4C0E1E2F1E081E0C5
:100A700021E036E39081992361F08093E90020938F
:100A8000EB0091919093EC003093ED008F5F8730F5
:100A900089F78EE78093EA001092EA008F898093AD
:100AA000770393C08B8D9C8D1092E90010925D01AD
:100AB00010925C0190935B0180935A01898D8111A2
:100AC00056C08E899D89913A59F4813209F081C0CE
:100AD00047E050E064E071E080E00E94360175C0BC
:100AE000913209F076C0833289F4888D90E0982F96
:100AF00088272F89822BA0E0B0E08093000190939B
:100B00000101A0930201B09303015FC0803269F438
:100B10008091E80082FFFCCF67E084E091E00E94D2
:100B20005D018BEF8093E80006C0823209F04DC072
:100B30008F8980930B0180917203882319F0EEEF67
:100B4000FAE002C0E0E0F8E0809104019091050134
:100B5000A0910601B0910701803B9440A105B10529
:100B600009F07BC080910B0180FF93C076C00E948A
:100B70007D0FDC0112960D911C9113970115110543
:100B800041F1D801ED91FC910190F081E02DBE0181
:100B90006B5E7F4FC8010995811117C0F801008570
:100BA0001185ECCF113009F44EC0133091F48F89C8
:100BB000882309F445C0823081F440E86DE08EE27C
:100BC00091E00E94910F882321F08EEF8093E8003E
:100BD00079C081E28093EB0075C0813029F440E850
:100BE0006BE082E291E0EDCF833099F70E947D0FB8
:100BF000DC011296ED90FC9013978E010F5F1F4F52
:100C00006801E114F10479F0D701ED91FC910680BF
:100C1000F781E02DB801C7010995080F111DF701F3
:100C2000E084F184EECFD8011C92F60101900020FF
:100C3000E9F73197BF016C197D0940E0C601C1CFCA
:100C40006CE071E002C060E171E06115710509F2CC
:100C5000FB01449150E080E840CF0FB6F894A8958E
:100C600080916000886180936000109260000FBEE8
:100C7000A895EE3F2AE0F20739F08091FE0A9091A4
:100C8000FF0A91838083A1CF1092FF0A1092FE0A7F
:100C90009CCFEE3F8AE0F80731F0808191819093FC
:100CA000FF0A8093FE0A87E797E7918380839BE0A2
:100CB00088E10FB6F894A895809360000FBE9093DA
:100CC000600083CF6C960FB6F894DEBF0FBECDBF29
:100CD000DF91CF91FF91EF91BF91AF919F918F9154
:100CE0007F916F915F914F913F912F911F910F9144
:100CF000FF90EF90DF90CF900F900FBE0F901F905E
:100D000018951F920F920FB60F9211242F933F93B5
:100D10004F935F936F937F938F939F93AF93BF9303
:100D2000EF93FF9388E793E00E94DC01FF91EF913E
:100D3000BF91AF919F918F917F916F915F914F91F3
:100D40003F912F910F900FBE0F901F9018951F92FB
:100D50000F920FB60F9211242F938F939F93EF93BF
:100D6000FF93E0918803F09189038081E0918E03E5
:100D7000F0918F0382FD12C09081809191038F5F6B
:100D80008F7320919203821751F0E0919103F0E06C
:100D9000E858FC4F958F8093910301C08081FF91AB
:100DA000EF919F918F912F910F900FBE0F901F90F9
:100DB00018950895089580E090E0089581E080936B
:100DC0006001089581E080935F0108958EBD000069
:100DD0000DB407FEFDCF8EB508958FEF0C94E60697
:100DE000362F90E0FC01E45CFE4F4491FC01EA5692
:100DF000FE4F2491FC01E958FE4F8491882309F4A9
:100E000051C04423E1F150E0FA013197EF30F10590
:100E1000B0F5EA5AFF4F0C940F13909180009F7722
:100E200007C0909180009F7D03C090918000977FC4
:100E30009093800024C094B59F7702C094B59F7DA5
:100E400094BD1DC0909190009F7707C09091900035
:100E50009F7D03C090919000977F909390000FC06A
:100E60009091C0009F7703C09091C0009F7D9093A8
:100E7000C00005C09091C200977F9093C200E82FF8
:100E8000F0E0EE0FFF1FE55AFE4FA591B4918FB72A
:100E9000F894EC91311103C020952E2301C02E2B24
:100EA0002C938FBF089561E0FC0184810E94F006BD
:100EB000809161018111109261010895CF93DF93B8
:100EC000EC018E81882389F08F8198859C012F5FAA
:100ED0003F4F38872F838230924018F40E94ED06EE
:100EE000F3CFCE010E9453071E82DF91CF91089568
:100EF0003FB7F89480916E0390916F03A0917003B7
:100F0000B091710326B5A89B05C02F3F19F001963B
:100F1000A11DB11D3FBFBA2FA92F982F8827820F7F
:100F2000911DA11DB11DBC01CD0142E0660F771FCF
:100F3000881F991F4A95D1F708952FB7F8946091AB
:100F40006A0370916B0380916C0390916D032FBFC6
:100F500008950F931F93CF93DF93EB010E949D079A
:100F60008B010E94ED068F3F49F00E949D07601B98
:100F7000710B6C177D07A8F380E001C081E0DF9161
:100F8000CF911F910F910895CF92DF92FF920F930F
:100F90001F93CF93DF9300D000D0CDB7DEB76C01A5
:100FA000F62E29833A834B835C830E945E078091EF
:100FB000610129813A814B815C81811109C081E005
:100FC0008093610190911504809116049CBD8DBDA4
:100FD00060E0F601848129833A834B835C830E941D
:100FE000F0066CE271E0C6010E94A9078F2D8064B3
:100FF0000E94E60608E110E05C814B813A8129817C
:10100000DA01C901002E04C0B695A795979587957A
:101010000A94D2F729833A834B835C830E94E606C5
:101020000850110929813A814B815C81083FFFEF0B
:101030001F0731F7FF2029F088E0F81204C087E885
:1010400003C085E901C08FEF0E94E60610E00E9410
:10105000ED06F601828787FF04C01F3F11F01F5F76
:10106000F6CF0F900F900F900F90DF91CF911F91BF
:101070000F91FF90DF90CF900895EF92FF920F9322
:101080001F93CF93DF93EC01790141155105610561
:10109000710511F482E13CC08B85833039F089E021
:1010A000440F551F661F771F8A95D1F79A01AB0130
:1010B00068E1CE010E94C407882311F084E028C0B3
:1010C0008EEF0E94E60687018EEFF81AF8018191F3
:1010D0008F010E94E6060E151F05C1F78FEF0E94D3
:1010E000E6068FEF0E94E6060E94ED068A878F7162
:1010F000853031F081E18D83CE010E94530709C014
:1011000068E572E0CE010E94A907811107C085E160
:101110008D83CE010E94530780E013C020E030E0B1
:10112000A9016DE0CE010E94C407811104C00E9494
:10113000ED06882311F084E1EBCFCE010E94530726
:1011400081E0DF91CF911F910F91FF90EF90089573
:10115000CF93DF9380916401882399F1C09162015C
:10116000D091630140910C0150910D0160910E01ED
:1011700070910F0129E631E0CE010E943D088111F6
:1011800002C080E01FC040916501509166016091EE
:10119000670170916801411551056105710579F08C
:1011A00029E631E0CE010E943D08882351F31092D8
:1011B0006501109266011092670110926801109209
:1011C000640181E0DF91CF910895BF92CF92DF92C9
:1011D000EF92FF920F931F93CF93DF936B017C01EC
:1011E000B42E80910C0190910D01A0910E01B0914F
:1011F0000F018C159D05AE05BF0509F476C00E9450
:10120000A808882309F478C0C0916201D0916301D5
:101210008E81882369F088819981AA81BB81C81653
:10122000D906EA06FB0621F48F819885892BB1F156
:10123000C882D982EA82FB828B85A701960183301E
:1012400039F089E0220F331F441F551F8A95D1F7CB
:1012500061E1CE010E94C407882319F083E08D83E9
:1012600037C00E949D078B010E94ED068A878F3F41
:1012700049F40E949D07601B710B6D327140A0F311
:101280008FE003C08E3F31F08DE08D83CE010E9450
:1012900053071EC018861F8281E08E8309E611E085
:1012A0000E94ED06F80181938F01F3E009361F07D4
:1012B000B9F78F8198859E5F98878F832985222330
:1012C00019F08115924048F0CE010E945E0705C0DA
:1012D000CE010E94530780E00FC0C0920C01D09253
:1012E0000D01E0920E01F0920F0180916401482FF0
:1012F0004B294093640181E0DF91CF911F910F91C1
:10130000FF90EF90DF90CF90BF9008954F925F9243
:101310006F927F928F929F92AF92BF92CF92DF9205
:10132000EF92FF920F931F93CF93DF93EC016A012B
:101330007B0128013901423051056105710510F426
:1013400080E073C089859A85AB85BC850196A11D17
:10135000B11D84179507A607B70790F38B889C8863
:10136000AD88BE888F89803129F4BB27AF2D9E2D93
:101370008D2D09C0DB01CA0147E0B695A795979569
:1013800087954A95D1F7880E991EAA1EBB1E80919B
:101390000C0190910D01A0910E01B0910F018816E2
:1013A0009906AA06BB0679F48F898031A1F4DD2461
:1013B000EE24FF24C601880F991FFC01E759FE4F58
:1013C0005182408219C040E0C501B4010E94E50885
:1013D0008111EACFB5CFE894C7F8DD24EE24FF24CD
:1013E000C601880F991F880F991FFC01E759FE4F0E
:1013F0004082518262827382809164018160809315
:1014000064018A89823080F08D819E81AF81B885A8
:10141000880E991EAA1EBB1E8092650190926601DD
:10142000A0926701B092680181E0DF91CF911F9196
:101430000F91FF90EF90DF90CF90BF90AF909F9073
:101440008F907F906F905F904F9008958F929F92B2
:10145000AF92BF92CF92DF92EF92FF920F931F93C2
:10146000CF93DF93FC0181859285A385B485019696
:10147000A11DB11D84179507A607B70710F480E0DA
:101480005CC083899489A589B689C789C03129F44C
:10149000852E962EA72EBB2409C04A015B01C7E00A
:1014A000B694A79497948794CA95D1F7E9016A01F5
:1014B0007B018F01BC01CD01680D791D8A1D9B1D2B
:1014C00080900C0190900D01A0900E01B0900F0142
:1014D000681579058A059B0599F4F801878980319B
:1014E000A9F4B701A601552766277727440F551F92
:1014F000FA01E759FE4F80819181A0E0B0E018C069
:1015000040E00E94E5088111E8CFB9CFB701A601FC
:101510004F77552766277727440F551F440F551FD0
:10152000FA01E759FE4F80819181A281B381BF709A
:1015300088839983AA83BB8381E0DF91CF911F9138
:101540000F91FF90EF90DF90CF90BF90AF909F9062
:101550008F9008953F924F925F926F927F928F92F9
:101560009F92AF92BF92CF92DF92EF92FF920F9332
:101570001F93CF93DF93CDB7DEB72C970FB6F894B8
:10158000DEBF0FBECDBF5C01DC015B968D909C90F1
:101590005C971696CD90DD90ED90FC901997C11454
:1015A000D104E104F10439F0BFEFCB1ADB0AEB0AF6
:1015B000FB0A312C07C0F401C080D180E280F380A7
:1015C00033243394F40181859285A385B4859C01ED
:1015D000AD012F5F3F4F4F4F5F4F29873A874B87B2
:1015E0005C87260137011D821E821F821886F40146
:1015F00081859285A385B4852D813E814F81588553
:10160000281739074A075B0708F063C089859A8560
:10161000AB85BC858C159D05AE05BF0550F482E0F9
:10162000C82ED12CE12CF12C92E0492E512C612CAA
:10163000712C9E012F5F3F4FB701A601C4010E948C
:10164000260A882309F445C089819A81AB81BC812F
:10165000892B8A2B8B2B41F0260137019FEF491AEA
:10166000590A690A790A05C0C414D504E604F704C6
:1016700091F02D813E814F8158852F5F3F4F4F4F15
:101680005F4F2D833E834F8358873FEFC31AD30AA2
:10169000E30AF30AACCF0FEF1FEF2FEF3FE0B301E8
:1016A000A201C4010E948609882399F0D5011696EB
:1016B0004D915D916D917C91199741155105610591
:1016C000710549F093018201C4010E9486098111CC
:1016D00002C080E02AC0D50116964D925D926D92AF
:1016E0007C921997332051F0D301C2010196A11DBC
:1016F000B11DF40180839183A283B383F5018789AF
:10170000908DA18DB28D892B8A2B8B2B69F4D501FD
:1017100057964D925D926D927C925A9714968C9149
:101720001497806814968C9381E02C960FB6F894E9
:10173000DEBF0FBECDBFDF91CF911F910F91FF9004
:10174000EF90DF90CF90BF90AF909F908F907F9061
:101750006F905F904F903F9008954F925F926F927D
:101760007F928F929F92AF92BF92EF92FF920F93D0
:101770001F93CF93DF9300D000D01F92CDB7DEB779
:101780008C016D83DC0115968C911597813009F0E1
:1017900057C014968C9181FF53C05AC0038CF48DAE
:1017A000E02D258530E0275F3F4F2A013B01B1E066
:1017B0004B1A510861087108022E04C07694679490
:1017C000579447940A94D2F7D501C4010197A1090F
:1017D000B10904C0B695A795979587952A95D2F734
:1017E00084159505A605B70508F070C0F80147896E
:1017F000508D618D728D46835783608771872C0170
:101800003D017801E6E0EE0EF11CD80141145104CF
:101810006104710409F464C016964D915D916D9157
:101820007C91199797015B968D919C915C970E9492
:10183000260AB1E04B1A5108610871088111E5CF01
:1018400081E090E0F8019383828380E090E04FC1D3
:1018500082FF0EC0F80142855385648575858388B3
:101860009488A588B688481559056A057B05F1F462
:10187000D8011A964D915D916D917C911D975B9663
:101880008D919C915C97FC0174807A944A015B0174
:1018900029E0B694A794979487942A95D1F7782055
:1018A0007A01F1E0FF22772011F164C081149104E4
:1018B000A104B10409F072CF168217821086118636
:1018C000F8011286138614861586D2CF452B462B37
:1018D000472B09F48BCF84199509A609B7098FCF37
:1018E0001A968D929D92AD92BC921D97C1CFE11434
:1018F000F10409F03FC0F801468157816085718588
:10190000411551056105710549F48789908DA18DB7
:10191000B28D0097A105B10541F521C09E012F5F51
:101920003F4F0E94260A882309F48FCF89819A812C
:10193000AB81BC81F801238D348DF90127892031D9
:1019400029F048EF5FEF6FEF7FE004C048EF5FEFF3
:1019500060E070E084179507A607B70730F0C8016C
:101960000E94AA0A811106C06BCFF8018683978373
:10197000A087B187D8015B96ED91FC915C97169694
:101980008D909D90AD90BC901997B2E08B1A910804
:10199000A108B108058404C0880C991CAA1CBB1CB2
:1019A0000A94D2F786859785A089B189880E991EF9
:1019B000AA1EBB1E870C911CA11CB11CE114F104D2
:1019C00009F5F80142855385648575858389948975
:1019D000A589B689481759076A077B0798F00E94BE
:1019E000A808882309F42CCF80920C0190920D0155
:1019F000A0920E01B0920F018091640181608093EA
:101A0000640108C041E0C501B4010E94E5088823D3
:101A100009F416CFF701E759FE4F8D818083F80155
:101A200082859385A485B5850196A11DB11D828708
:101A30009387A487B5874389548965897689481730
:101A400059076A077B0738F4838B948BA58BB68B79
:101A5000848180688483D80114968C9183FD03C0AF
:101A600081E090E044C0F8019581992309F4E8CE23
:101A700087FF38C0668577858089918941E00E941B
:101A8000E508882309F4DCCED8015296EC91B0E247
:101A9000EB9F90011124D901A759BE4F109709F46B
:101AA000CFCEF8018581823050F44389548965890D
:101AB00076895C964D935D936D937C935F97F80167
:101AC0008789908DA18DB28DF901E759FE4F938FD3
:101AD000828FB58BA48BD80114968C9114978F7735
:101AE00014968C930E94A8088111BACFA9CE0F90AA
:101AF0000F900F900F900F90DF91CF911F910F914A
:101B0000FF90EF90BF90AF909F908F907F906F90DD
:101B10005F904F9008951F920F920FB60F9211246D
:101B20002F933F938F939F93AF93BF9380916A03BB
:101B300090916B03A0916C03B0916D033091690398
:101B400023E0230F2D3720F40196A11DB11D05C000
:101B500026E8230F0296A11DB11D209369038093EF
:101B60006A0390936B03A0936C03B0936D03809111
:101B70006E0390916F03A0917003B0917103019671
:101B8000A11DB11D80936E0390936F03A09370030A
:101B9000B0937103BF91AF919F918F913F912F911E
:101BA0000F900FBE0F901F9018951F920F920FB6B7
:101BB0000F9211242F933F934F935F936F937F93D3
:101BC0008F939F93AF93BF93EF93FF93E09118018F
:101BD000F09119010995FF91EF91BF91AF919F91FC
:101BE0008F917F916F915F914F913F912F910F90C6
:101BF0000FBE0F901F9018951F920F920FB60F9265
:101C000011242F933F934F935F936F937F938F9301
:101C10009F93AF93BF93EF93FF93E0911601F091E1
:101C200017010995FF91EF91BF91AF919F918F910E
:101C30007F916F915F914F913F912F910F900FBEC8
:101C40000F901F9018951F920F920FB60F921124AC
:101C50002F933F934F935F936F937F938F939F93B4
:101C6000AF93BF93EF93FF93E0911401F0911501AF
:101C70000995FF91EF91BF91AF919F918F917F91C6
:101C80006F915F914F913F912F910F900FBE0F90E9
:101C90001F9018951F920F920FB60F9211242F9339
:101CA0003F934F935F936F937F938F939F93AF93E4
:101CB000BF93EF93FF93E0911201F0911301099507
:101CC000FF91EF91BF91AF919F918F917F916F9114
:101CD0005F914F913F912F910F900FBE0F901F90EA
:101CE00018951F920F920FB60F9211242F933F93C6
:101CF0004F935F936F937F938F939F93AF93BF9314
:101D0000EF93FF93E0911001F09111010995FF917C
:101D1000EF91BF91AF919F918F917F916F915F9163
:101D20004F913F912F910F900FBE0F901F901895DC
:101D30001F920F920FB60F9211240F900FBE0F90AB
:101D40001F9018950E940C15EF92FF920F931F930E
:101D5000CF93DF93EC017B018A01BA010E94A303B8
:101D60002881398181110DC02115310519F0C90172
:101D70000E94AA13198218821D821C821B821A8259
:101D800006C01D830C83B701C9010E941A15CE013C
:101D9000DF91CF911F910F91FF90EF90089590E008
:101DA000FC01EA56FE4F2491FC01E958FE4F849154
:101DB000882399F090E0880F991FFC01E759FE4FA6
:101DC000A591B491FC01E55AFE4F859194918FB78E
:101DD000F894EC91E22BEC938FBF08950F931F932F
:101DE0000E949D0760938003709381038093820318
:101DF00090938303E0917803F09179030284F38553
:101E0000E02D88E793E0099597FF1FC00E949D078A
:101E1000009180031091810320918203309183030C
:101E2000DC01CB01801B910BA20BB30B00917C0357
:101E300010917D0320917E0330917F0380179107DD
:101E4000A207B307B8F28FEF9FEF1F910F9108958C
:101E5000CF92DF92EF92FF920E9478076B017C0194
:101E60000E947807DC01CB018C199D09AE09BF09DE
:101E7000883E9340A105B10598F3FF90EF90DF9065
:101E8000CF900895FC0180917703811103C08FEFFB
:101E90009FEF08959FB7F89482E08093E900209126
:101EA000F20030E01216130614F421E030E02115A0
:101EB000310559F0289A84E6809376038091F100E9
:101EC00080838091F200882319F09FBFC901089593
:101ED0008BE68093E800F9CF2FB7F89483E08093E6
:101EE000E9009091E800892F807295FF04C09091DD
:101EF000F20080E4891B2FBF089580915504811161
:101F00000DC082E08093510484E0809352041092CB
:101F100054041092530481E08093550481E594E0C9
:101F20000895CF92DF92EF92FF920F931F93CF937A
:101F3000DF931F92CDB7DEB7182F062FE42E862F22
:101F4000880F8E5F99830E94080183E00E94080138
:101F5000F12EC12E9981D92E8C2D8F19801798F4CE
:101F6000F601E7FE02C0849101C080810E94080151
:101F7000182F80E00E9408018123FFEFCF1ADF0AAB
:101F80008111EACF01C081E00F90DF91CF911F91C5
:101F90000F91FF90EF90DF90CF90089580913D04D6
:101FA00090913E040E94AA138091430490914404AE
:101FB0000E94AA138091490490914A040C94AA1398
:101FC000CF93DF93CDB7DEB728970FB6F894DEBF77
:101FD0000FBECDBF789484B5826084BD84B5816026
:101FE00084BD85B5826085BD85B5816085BD8091E4
:101FF0006E00816080936E0010928100809181005C
:102000008260809381008091810081608093810053
:102010008091800081608093800080919100826037
:1020200080939100809191008160809391008091D4
:1020300090008160809390008091C10084608093C3
:10204000C1008091C10082608093C1008091C10075
:1020500081608093C1008091C30081608093C30040
:102060008091C00082608093C0008091C200816036
:102070008093C20080917A00846080937A0080917E
:102080007A00826080937A0080917A0081608093E8
:102090007A0080917A00806880937A0010927703AA
:1020A00010927403109273038091D7008160809323
:1020B000D70080EA8093D80089B5806189BD89B551
:1020C000826089BD09B400FEFDCF0E94280F809177
:1020D000D8008F7C80618093D8008091E000807F61
:1020E0008093E0008091E1008E7E8093E1008DE09E
:1020F0008093E200559A209A5D982898EEEFFFE7CA
:10210000859194918B3F9C4D19F481E080937203EB
:10211000E0918803F091890382E08083E091840359
:10212000F09185031082E0918603F09187038FEC94
:10213000808310929003E0918C03F0918D0386E0F0
:102140008083E0918A03F0918B038081806180839A
:10215000E0918A03F0918B03808188608083E09115
:102160008A03F0918B03808180688083E0918A03E9
:10217000F0918B0380818F7D80831FB7F8948091CD
:102180007503811124C0E8E8F1E08491E7EAF1E009
:102190009491E82FF0E0EE0FFF1FE759FE4FA59155
:1021A000B491EC91E92321F461E081E10E94F00611
:1021B00081E10E94CF0E8CB580618CBD8CB58064AE
:1021C0008CBD8FE00E94CF0E80E10E94CF0E8091E7
:1021D00075038F5F809375031FBF80913B040E943E
:1021E000CF0E61E080913B040E94F006809139049B
:1021F0000E94CF0E61E0809139040E94F006809128
:102200002F040E94CF0E61E080912F040E94F006FF
:1022100080911E040E94CF0E61E080911E040E94F6
:10222000F0068BE00E94CF0E84E00E94CF0E8CE07F
:102230000E94CF0E86E00E94CF0E61E084E00E94F3
:10224000F00661E08CE00E94F00661E086E00E940A
:10225000F00686E10E94CF0E85E10E94CF0E84E158
:102260000E94CF0E83E10E94CF0E82E10E94CF0E2A
:1022700060E086E10E94F00661E085E10E94F006E0
:1022800060E084E10E94F00660E083E10E94F006D5
:1022900060E082E10E94F00661E088E00E94F006C2
:1022A00061E089E00E94F00661E08BE00E94F006A8
:1022B00082EE96E090931101809310018091690065
:1022C0008C7F826080936900E89A8EED96E090930F
:1022D00013018093120180916900837F886080934D
:1022E0006900E99A1092800010928100109280009B
:1022F0008091810089608093810010928500109206
:10230000840080EA90E0909389008093880082E0C6
:1023100086BB07E511E0002E000C110B88E793E067
:102320000E94C601892B09F4A8C068E571E0CE01BE
:1023300001960E94CA030E94EE0E97FD1FC08017EF
:102340009107E1F08F831886ED80FE808FEFE81A09
:10235000F80AB701CE0101960E94A303882359F31E
:1023600029813A818D819E81BE01695F7F4F820FF5
:10237000931F0E941A15FE82ED82DDCF80914904E1
:1023800090914A040097C9F069817A8161157105BD
:1023900091F040914B0450914C042D813E814217A5
:1023A000530748F00E941A158D819E8190934E0428
:1023B00080934D0418C00E94AA1389819A8190933A
:1023C0004A04809349048B819C8190934C048093B0
:1023D0004B048D819E8190934E0480934D041A820C
:1023E00019821C821B821E821D8289819A810E9411
:1023F000AA1368E571E0CE0101960E94CA0380919C
:102400004D0490914E04892B59F1E0914904F091CB
:102410004A04F18011826091490470914A04611567
:10242000710569F0FB0101900020E9F73197AF01D8
:10243000461B570BCE0101960E94A40E0CC0898149
:102440009A81009711F00E94AA131A8219821E82A3
:102450001D821C821B82E0914904F0914A04F182A2
:102460004D815E8169817A8188E793E00E946A01EB
:1024700089819A810E94AA1351CF0E9466024ECF91
:10248000E8E7F3E01382128288EE93E0A0E0B0E088
:1024900084839583A683B7832BE231E03183208345
:1024A0002DEC30E0358724872CEC30E03787268709
:1024B00028EC30E0318B208B29EC30E0338B228B01
:1024C0002AEC30E0358B248B2EEC30E0378B268BDA
:1024D000118E128E138E148EEDE5F4E013821282AB
:1024E00084839583A683B7838DE391E09183808372
:1024F0008FEF9FEF95878487E5E1F4E080E58083A7
:102500001182EDEAF4E0158216821186138642E00C
:1025100050E060E070E0448755876687778713A2B4
:1025200015A614A62FE431E033A722A717A6E6EFDD
:10253000F4E0808381E08183EFE4F4E094E590832C
:10254000818368E571E089E494E00E94CA0368E54C
:1025500071E083E494E00E94CA0368E571E08DE3D2
:1025600094E00E94CA038AE090E090933C04809338
:102570003B0485E090E090933A0480933904E8E2CC
:10258000F4E01182108288E090E09087878383E0F6
:1025900090E092878187E7E1F4E01182108289E080
:1025A00090E09087878382E090E09287818708950A
:1025B0002F923F924F925F926F927F928F929F9253
:1025C000AF92BF92CF92DF92EF92FF920F931F9341
:1025D000CF93DF93CDB7DEB7CA1BDB0B0FB6F894F2
:1025E000DEBF0FBECDBF09942A88398848885F8432
:1025F0006E847D848C849B84AA84B984C884DF80A3
:10260000EE80FD800C811B81AA81B981CE0FD11D86
:102610000FB6F894DEBF0FBECDBFED010895EE0FEB
:10262000FF1F0590F491E02D0994CF93DF93823042
:10263000910510F482E090E0E091FA04F091FB043F
:1026400020E030E0C0E0D0E0309711F140815181CE
:1026500048175907C0F04817590761F482819381E0
:10266000209719F09B838A832BC09093FB0480935F
:10267000FA0426C02115310519F04217530718F442
:102680009A01BE01DF01EF010280F381E02DDCCF72
:102690002115310509F1281B390B2430310590F43F
:1026A00012968D919C9113976115710521F0FB0194
:1026B0009383828304C09093FB048093FA04FD010A
:1026C000329644C0FD01E20FF31F81939193225093
:1026D00031092D933C933AC02091F8043091F904CC
:1026E000232B41F420911C0130911D013093F904FA
:1026F0002093F80420911A0130911B012115310516
:1027000041F42DB73EB740911E0150911F01241B8B
:10271000350BE091F804F091F904E217F307A0F407
:102720002E1B3F0B2817390778F0AC014E5F5F4F27
:102730002417350748F04E0F5F1F5093F90440935C
:10274000F8048193919302C0E0E0F0E0CF01DF91C3
:10275000CF9108950F931F93CF93DF93009709F4C0
:102760008CC0FC013297138212820091FA041091FE
:10277000FB040115110581F420813181820F931F23
:102780002091F8043091F9042817390779F5F0936E
:10279000F904E093F80471C0D80140E050E0AE17AE
:1027A000BF0750F412962D913C911397AD0121155E
:1027B000310509F1D901F3CF9D01DA013383228379
:1027C00060817181860F971F8217930769F4EC016E
:1027D00028813981260F371F2E5F3F4F3183208399
:1027E0008A819B8193838283452B29F4F093FB0498
:1027F000E093FA0442C01396FC93EE931297ED0116
:10280000499159919E01240F351FE217F30771F486
:1028100080819181840F951F029611969C938E93CF
:102820008281938113969C938E931297E0E0F0E05F
:10283000D80112968D919C911397009719F0F80189
:102840008C01F6CF8D919C9198012E5F3F4F820FA6
:10285000931F2091F8043091F9042817390769F47F
:10286000309729F41092FB041092FA0402C01382EC
:1028700012821093F9040093F804DF91CF911F9115
:102880000F910895A0E0B0E0E8E4F4E10C94DC12CC
:10289000EC01009721F4CB010E941513B8C0FC0194
:1028A000E60FF71F9C0122503109E217F30708F4E5
:1028B000ACC0D9010D911C91119706171707B0F004
:1028C0000530110508F49FC0C801049786179707C3
:1028D00008F499C002501109061B170B01931193BC
:1028E0006D937C93CF010E94AA138DC05B01A01A47
:1028F000B10A4C01800E911EA091FA04B091FB0424
:1029000040E050E0E12CF12C109709F44AC0A815E2
:10291000B905D1F56D907C901197630182E0C80EE6
:10292000D11CCA14DB0480F1A3014A195B096A01B6
:1029300082E0C80ED11C1296BC9012971396AC91EF
:10294000B5E0CB16D10440F0B282A383518340831B
:10295000D9016D937C930AC00E5F1F4FC301800F96
:10296000911FF90191838083EB2DFA2FE114F1047B
:1029700031F0D7011396FC93EE93129744C0F09375
:10298000FB04E093FA043FC08D919C911197481786
:10299000590708F4AC017D0112960D90BC91A02D51
:1029A000B3CF8091F8049091F90488159905E1F46A
:1029B00046175707C8F480911A0190911B010097A0
:1029C00041F48DB79EB740911E0150911F01841BA9
:1029D000950BE817F907C8F4F093F904E093F804AD
:1029E000F901718360830FC0CB010E9415137C0134
:1029F000009759F0A801BE010E941115CE010E9456
:102A0000AA13C70104C0CE0102C080E090E0CDB798
:102A1000DEB7EEE00C94F81281E090E0F8940C94AC
:102A20002115FB01DC0102C001900D924150504084
:102A3000D8F70895FB01DC0101900D920020E1F729
:102A4000089510E0CCEDD0E004C0FE010E940F1309
:0C2A50002196CD3DD107C9F7F894FFCFC7
:102A5C00FFFFFFFF00E1000000000000FFFFFFFF91
:102A6C00D906D906D906D906D9060000FC0480007F
:102A7C0000C1808100000000000000FD016A01958A
:102A8C00014402C601A401B801000000007002DD7F
:102A9C00025D038602910261037F0300000000AD1A
:0A2AAC000B6A01DB06DA062C0000BD
:00000001FF
