:100000000C94CD000C94F5000C94F5000C94F500C4
:100010000C94F5000C94F5000C94F5000C94F5008C
:100020000C94F5000C94F5000C94B6050C9428067D
:100030000C94F5000C94F5000C94F5000C94F5006C
:100040000C94F5000C94F5000C94F5000C94F5005C
:100050000C94F5000C94F5000C94F5000C94B00889
:100060000C94F5000C947E080C9458080C94F50040
:100070000C94F5000C94F5000C94F5000C94F5002C
:100080000C94F5000C94F5000C94F5000C94F5001C
:100090000C94F5000C94F5000C94F5000C94F5000C
:1000A0000C94F5000C94F5000C94F50005A84CCDCB
:1000B000B2D44EB93836A9020C50B9918688083CA2
:1000C000A6AAAA2ABE000000803F0000000025006A
:1000D00028002B002E003100000000002400270023
:1000E0002A002D0030000404040404030405020265
:1000F00002020403020202020606060606060404C1
:100100000202020404040802011040804010204052
:1001100080408008020401804020100201108010FD
:1001200020404020080B00020202010009040000E8
:100130000102020000052400100105240101010450
:10014000240206052406000107058103100040096A
:10015000040100020A000000070502024000000737
:100160000583024000000403090412010002EF02AB
:10017000014041233780000101020301417264758F
:10018000696E6F204C4C430041726475696E6F203C
:100190004D6963726F00FA08540A11241FBECFEF35
:1001A000DAE0DEBFCDBF22E0AEE3B1E001C01D92D8
:1001B000AA35B207E1F711E0A0E0B1E0E4E2FEE128
:1001C00002C005900D92AE33B107D9F710E0CCEC28
:1001D000D0E004C02197FE010E94F30CCB3CD10774
:1001E000C9F70E9454090C94050F0C940000FC01FF
:1001F00080915C01811103C08FEF9FEF08959FB73D
:10020000F89482E08093E9002091F20030E0121629
:10021000130614F421E030E02115310559F0289A35
:1002200084E680935B018091F10080838091F200ED
:10023000882319F09FBFC90108958BE68093E800D9
:10024000F9CF2FB7F89483E08093E9009091E8000C
:10025000892F807295FF04C09091F20080E4891B81
:100260002FBF08958091530181110DC082E08093CA
:100270004F0184E08093500110925201109251017D
:1002800081E0809353018FE491E00895CF93DF9351
:100290001F92CDB7DEB76983DC01ED91FC9102803E
:1002A000F381E02D41E050E0BE016F5F7F4F099583
:1002B0000F90DF91CF91089583E08093E9008091C2
:1002C000F200882319F08AE38093E80008950E94E1
:1002D000210190E00895CF93DF931F92CDB7DEB751
:1002E000FC018485958597FD05C02FEF3FEF35878D
:1002F00024870BC0CE0101960E94F700019719F4E4
:10030000898190E002C08FEF9FEF0F90DF91CF9136
:1003100008950F931F93CF93DF931F92CDB7DEB74E
:100320008C01FC018485958597FF0EC0CE01019656
:100330000E94F700019719F4298130E002C02FEFE5
:100340003FEFF80135872487F801848595850F9064
:10035000DF91CF911F910F910895FC0184859585C0
:1003600097FD0BC09FB7F89482E08093E9008091DD
:10037000F2009FBF90E0019608959FB7F89482E045
:100380008093E9008091F2009FBF90E00895409132
:10039000490150914A01209147013091480142178B
:1003A0005307B4F49091E8009570E1F39091E80060
:1003B00092FD19C08093F1008091490190914A010A
:1003C00001968F739927892B19F48EEF8093E8009B
:1003D0008091490190914A01019690934A0180933E
:1003E000490181E0089580E00895CF92DF92EF9275
:1003F000FF920F931F93CF93DF931F92CDB7DEB77A
:10040000182F062FE42E862F880F8E5F99830E9467
:10041000C70183E00E94C701F12EC12E9981D92E18
:100420008C2D8F19801798F4F601E7FE02C0849195
:1004300001C080810E94C701182F80E00E94C7017F
:100440008123FFEFCF1ADF0A8111EACF01C081E0DB
:100450000F90DF91CF911F910F91FF90EF90DF9060
:10046000CF900895DF92EF92FF920F931F93CF9357
:10047000DF93D82E8A017B01E40EF51EEB01CE1529
:10048000DF0571F0D7FE03C0FE01849101C08881B1
:100490000E94C70121968111F2CF8FEF9FEF01C01B
:1004A000C801DF91CF911F910F91FF90EF90DF90E6
:1004B00008950F931F93CF93DF931F92CDB7DEB7AD
:1004C00082E0898342E450E064E271E080E80E94C7
:1004D00032020E943201DC0112960D911C91139799
:1004E0000115110569F0D801ED91FC910280F381AD
:1004F000E02DBE016F5F7F4FC801099597FF07C0D0
:1005000089810F90DF91CF911F910F910895F8018C
:1005100000851185E5CF615030F02091F100FC019C
:1005200020830196F8CF289A84E680935B01089592
:10053000CF92DF92EF92FF920F931F93CF93DF93AF
:100540006C017A018B01C0E0D0E0CE15DF0589F0A7
:10055000D8016D918D01D601ED91FC910190F08152
:10056000E02DC6010995892B11F47E0102C0219668
:10057000ECCFC701DF91CF911F910F91FF90EF90CA
:10058000DF90CF900895089580E090E00895FC01F9
:10059000538D448D252F30E0842F90E0821B930BE8
:1005A000541710F0CF96089501970895FC01918D8E
:1005B000828D981761F0828DDF01A80FB11D5D96C5
:1005C0008C91928D9F5F9F73928F90E008958FEF33
:1005D0009FEF0895FC01918D828D981731F0828DE7
:1005E000E80FF11D858D90E008958FEF9FEF08953E
:1005F000FC01918D228D892F90E0805C9F4F821BA2
:1006000091098F73992708958DEA91E00E94F8026D
:1006100021E0892B09F420E0822F0895FC01848DCC
:10062000DF01A80FB11DA35ABF4F2C91848D90E01C
:1006300001968F739927848FA689B7892C93A089F7
:10064000B1898C9180648C93938D848D981306C0AE
:100650000288F389E02D80818F7D80830895EF9259
:10066000FF920F931F93CF93DF93EC0181E0888F6C
:100670009B8D8C8D981305C0E889F989808185FD53
:1006800024C0F62E0B8D10E00F5F1F4F0F73112744
:10069000E02E8C8DE8120CC00FB607FCFACFE8896B
:1006A000F989808185FFF5CFCE010E940E03F1CF3D
:1006B0008B8DFE01E80FF11DE35AFF4FF0820B8F87
:1006C000EA89FB898081806207C0EE89FF896083A7
:1006D000E889F98980818064808381E090E0DF91FE
:1006E000CF911F910F91FF90EF900895CF93DF93DB
:1006F000EC01888D8823C9F0EA89FB89808185FD1A
:1007000005C0A889B9898C9186FD0FC00FB607FC7A
:10071000F5CF808185FFF2CFA889B9898C9185FFBB
:10072000EDCFCE010E940E03E7CFDF91CF91089568
:1007300080E090E0892B29F00E94040381110C9441
:10074000000008953FB7F8948091430190914401CF
:10075000A0914501B091460126B5A89B05C02F3F49
:1007600019F00196A11DB11D3FBFBA2FA92F982FD7
:100770008827820F911DA11DB11DBC01CD0142E052
:10078000660F771F881F991F4A95D1F708958F929A
:100790009F92AF92BF92CF92DF92EF92FF926B0146
:1007A0007C010E94A2034B015C01C114D104E1044D
:1007B000F104F1F00E94A203DC01CB018819990930
:1007C000AA09BB09883E9340A105B10570F321E059
:1007D000C21AD108E108F10888EE880E83E0981E5D
:1007E000A11CB11CC114D104E104F10419F7DDCF3F
:1007F000FF90EF90DF90CF90BF90AF909F908F9041
:1008000008958F929F92AF92BF92CF92DF92EF9214
:10081000FF920F931F93CF93DF935C016B017A01DB
:1008200080910B01882309F45BC080915C018823CF
:1008300009F456C080914E0180FF05C08091E00010
:1008400082608093E000E70110E00AEF83E0882EE9
:100850009AE3992E2097D9F10E94210181110AC0B3
:10086000015009F43DC061E070E080E090E00E943A
:10087000C703F0CF282F30E0C217D3070CF48C2F1A
:100880004FB7F8948092E9009091E80095FF1DC061
:10089000282F30E0C21BD30BF601982F915020F087
:1008A00081918093F100FACFC20ED31E112319F06B
:1008B0009092E80009C08091E80085FD06C0909202
:1008C000E80011E0209709F010E04FBFC3CF1111ED
:1008D000C3CF5D9A84E680934D011E141F0444F03B
:1008E00081E090E0F5019383828380E090E001C095
:1008F000C701DF91CF911F910F91FF90EF90DF9093
:10090000CF90BF90AF909F908F9008950E94F00E6F
:10091000EF92FF920F931F93CF93DF93EC017B0134
:100920008A0188819981009729F02A813B812417C7
:100930003507F8F4B8016F5F7F4F0E94260E0097CD
:1009400059F0998388831B830A832C813D81232B53
:1009500081F4FC0110820DC088819981009711F00B
:100960000E948E0D198218821D821C821B821A829F
:1009700007C01D830C83B701888199810E94FE0EF8
:10098000CE01DF91CF911F910F91FF90EF900895CD
:10099000CF93DF93CDB7DEB7C550D2400FB6F894F2
:1009A000DEBF0FBECDBF7E0121E0E20EF21E80E071
:1009B00091E0F7019C01119221503040E1F7FE01D6
:1009C00031966F019C01119221503040E1F7CC5FCC
:1009D000DD4FD982C882C450D240170100E010E038
:1009E000B801012E000C880B990B0E94620A2BEDB6
:1009F0003FE049EC5DE30E94C10A4B015C019B01B1
:100A0000AC010E94B70B0E94230C20E030E040E8CC
:100A10005FE30E94B70B20E030E048EC52E40E9414
:100A2000C10A2B013C0120E030E0A9010E949D0C8D
:100A300020E030E040E05FE387FD05C0C301B20184
:100A40000E94B70B04C0C301B2010E94B60B0E9402
:100A5000280C70E080E090E00E94600AF101619350
:100A60007193819391931F0120E030E040E450E4C2
:100A7000C501B4010E94C10A0E94A20C20E030E02E
:100A800040E85FE30E94B70B20E030E048EC52E41E
:100A90000E94C10A4B015C0120E030E0A9010E94E4
:100AA0009D0C20E030E040E05FE387FD05C0C5011C
:100AB000B4010E94B70B04C0C501B4010E94B60B7B
:100AC0000E94280C70E080E090E00E94600ACC5FF9
:100AD000DD4FE881F981C450D240619371938193D5
:100AE0009193CC5FDD4FF983E883C450D2400F5F10
:100AF0001F4F0034110509F073CF10E0CF5FDD4FB9
:100B00001883C150D240F4E01F9F50011124F70117
:100B1000EA0DFB1D60817181828193810E942F0CFF
:100B2000CE5FDD4F6883C250D240F601EA0DFB1D57
:100B300060817181828193810E942F0CCD5FDD4F96
:100B40006883C350D24043E050E0BE016F5F7D4FE9
:100B50008DEA91E00E94980264EF71E080E090E0FD
:100B60000E94C7031F5F103449F6C7CF1F920F9230
:100B70000FB60F9211248F939F938091E100909173
:100B8000E100937F9093E10083FF0FC01092E90092
:100B900091E09093EB001092EC0092E39093ED00C3
:100BA00010925C0198E09093F00082FF20C093E0E7
:100BB0009093E9009091F200992319F09AE39093B1
:100BC000E80090914D01992339F090914D01915099
:100BD00090934D01992389F190915B01992339F00C
:100BE00090915B01915090935B01992341F184FFB7
:100BF00010C08091E2008E7E81608093E20080913F
:100C0000E1008F7E8093E10080914E018E7E8061B5
:100C100011C080FF16C08091E2008E7E80618093BB
:100C2000E2008091E1008E7E8093E10080914E0190
:100C30008E7E816080934E0104C05D98CDCF289850
:100C4000D6CF9F918F910F900FBE0F901F90189548
:100C50001F920F920FB60F921124CF92DF92EF9254
:100C6000FF920F931F932F933F934F935F936F9335
:100C70007F938F939F93AF93BF93EF93FF93CF9304
:100C8000DF93CDB7DEB76C97DEBFCDBF1092E90022
:100C90008091E80083FFEDC168E0CE0145960E9497
:100CA0008B0282EF8093E8008D8987FF05C09091C9
:100CB000E80090FFFCCF03C09EEF9093E800982FD0
:100CC000907609F0C6C09E892F89188D91110CC0AD
:100CD000803829F480914C018093F10002C0109279
:100CE000F1001092F10048C1422F50E0512B913099
:100CF00051F4811141C14130510509F03DC180914C
:100D00004C018D7F0BC0933061F4811135C14130AE
:100D1000510509F031C180914C01826080934C01F2
:100D20002BC1953041F48091E80080FFFCCF206812
:100D30002093E30021C1963009F05FC0EB8CFC8C5E
:100D40001092E90010924A0110924901123091F577
:100D500010924801109247010E94590299E0BE0189
:100D60006F5F7F4FDB01E92F1D92EA95E9F79983C9
:100D70001A8391E09E8390EA98879AEF9987209151
:100D8000490130914A01275F3F4F3C832B838D837C
:100D90001092E90010924A0110924901F092480124
:100DA000E092470149E050E080E00E9432020E9458
:100DB0005902E2C0F0924801E09247010E943201DC
:100DC000DC011296ED90FC901397E114F10409F404
:100DD000C0C0D701ED91FC910480F581E02DBE01EA
:100DE0006B5E7F4FC7010995009719F00CF0C4C0E6
:100DF000C7C0F701E084F184E8CF973009F4C0C0A0
:100E0000983021F481E08093F100B6C0993009F068
:100E1000B3C0837009F0B4C0E3E1F1E081E021E008
:100E200036E39081992361F08093E9002093EB00F1
:100E300091919093EC003093ED008F5F873089F7AC
:100E40008EE78093EA001092EA008F8980935C011C
:100E500093C08B8D9C8D1092E90010924A011092E4
:100E600049019093480180934701898D811156C0B3
:100E70008E899D89913A59F4813209F081C047E009
:100E800050E064E071E080E00E94320275C091326F
:100E900009F076C0833289F4888D90E0982F8827F6
:100EA0002F89822BA0E0B0E0809300019093010194
:100EB000A0930201B09303015FC0803269F4809176
:100EC000E80082FFFCCF67E084E091E00E948B02A3
:100ED0008BEF8093E80006C0823209F04DC08F8905
:100EE00080930B0180914B01882319F0EEEFFAE01B
:100EF00002C0E0E0F8E08091040190910501A0912A
:100F00000601B0910701803B9440A105B10509F0AD
:100F10007BC080910B0180FF93C076C00E9432019C
:100F2000DC0112960D911C9113970115110541F1E9
:100F3000D801ED91FC910190F081E02DBE016B5E36
:100F40007F4FC8010995811117C0F80100851185EF
:100F5000ECCF113009F44EC0133091F48F898823FF
:100F600009F445C0823081F440E86DE088E891E002
:100F70000E94F501882321F08EEF8093E80079C06C
:100F800081E28093EB0075C0813029F440E86BE08A
:100F90008CE791E0EDCF833099F70E943201DC01BC
:100FA0001296ED90FC9013978E010F5F1F4F680112
:100FB000E114F10479F0D701ED91FC910680F781FD
:100FC000E02DB801C7010995080F111DF701E08454
:100FD000F184EECFD8011C92F60101900020E9F7D0
:100FE0003197BF016C197D0940E0C601C1CF66E6AB
:100FF00071E002C06AE671E06115710509F2FB015A
:10100000449150E080E840CF0FB6F894A8958091C5
:101010006000886180936000109260000FBEA89508
:10102000EE3F2AE0F20739F08091FE0A9091FF0A24
:1010300091838083A1CF1092FF0A1092FE0A9CCF69
:10104000EE3F8AE0F80731F0808191819093FF0AAA
:101050008093FE0A87E797E7918380839BE088E18E
:101060000FB6F894A895809360000FBE909360002F
:1010700083CF6C960FB6F894DEBF0FBECDBFDF9165
:10108000CF91FF91EF91BF91AF919F918F917F9100
:101090006F915F914F913F912F911F910F91FF9011
:1010A000EF90DF90CF900F900FBE0F901F9018958C
:1010B0001F920F920FB60F9211242F933F934F93CD
:1010C0005F936F937F938F939F93AF93BF93EF93B0
:1010D000FF938DEA91E00E940E03FF91EF91BF9183
:1010E000AF919F918F917F916F915F914F913F91C0
:1010F0002F910F900FBE0F901F9018951F920F9277
:101100000FB60F9211242F938F939F93EF93FF931A
:10111000E091BD01F091BE018081E091C301F091A9
:10112000C40182FD12C090818091C6018F5F8F73D0
:101130002091C701821751F0E091C601F0E0E3551C
:10114000FE4F958F8093C60101C08081FF91EF9182
:101150009F918F912F910F900FBE0F901F90189518
:101160001F920F920FB60F9211242F933F938F93DC
:101170009F93AF93BF9380913F0190914001A091C5
:101180004101B091420130913E0123E0230F2D3700
:1011900020F40196A11DB11D05C026E8230F02967B
:1011A000A11DB11D20933E0180933F01909340010A
:1011B000A0934101B0934201809143019091440179
:1011C000A0914501B09146010196A11DB11D8093EA
:1011D000430190934401A0934501B0934601BF9110
:1011E000AF919F918F913F912F910F900FBE0F90D4
:1011F0001F901895EDE5F1E01382128288EE93E0DE
:10120000A0E0B0E084839583A683B7832DE131E02D
:10121000318320832FEF3FEF35872487EDEAF1E01C
:101220001382128284839583A683B7838FE291E031
:10123000918380838DEC90E0958784878CEC90E09F
:101240009787868788EC90E0918B808B89EC90E083
:10125000938B828B8AEC90E0958B848B8EEC90E064
:10126000978B868B118E128E138E148EE0E5F2E032
:1012700011821082138212821582148240E050E0A3
:101280006DE371E0CF010E948804EAE4F2E011828C
:101290001082138212821582148240E050E06DE3C6
:1012A00071E0CF010C948804789484B5826084BD89
:1012B00084B5816084BD85B5826085BD85B581605A
:1012C00085BD80916E00816080936E0010928100D8
:1012D0008091810082608093810080918100816093
:1012E0008093810080918000816080938000809154
:1012F0009100826080939100809191008160809341
:101300009100809190008160809390008091C10055
:1013100084608093C1008091C10082608093C1008D
:101320008091C10081608093C1008091C300816081
:101330008093C3008091C00082608093C000809140
:10134000C20081608093C20080917A0084608093A3
:101350007A0080917A00826080937A0080917A008E
:10136000816080937A0080917A00806880937A000F
:1013700010925C0110924C0110924E018091D700A6
:1013800081608093D70080EA8093D80089B580611E
:1013900089BD89B5826089BD09B400FEFDCF61E0D9
:1013A00070E080E090E00E94C7038091D8008F7CBD
:1013B00080618093D8008091E000807F8093E0007E
:1013C0008091E1008E7E8093E1008DE08093E200C9
:1013D000559A209A5D982898EEEFFFE785919491B1
:1013E0008B3F9C4D19F481E080934B01E2E1F1E0E9
:1013F0002491E3EFF0E08491882399F090E0880F46
:10140000991FFC01E852FF4FA591B491FC01E653EE
:10141000FF4F859194918FB7F894EC91E22BEC9368
:101420008FBFE091BD01F091BE0182E08083E09129
:10143000B901F091BA011082E091BB01F091BC01B9
:101440008FEC80831092C501E091C101F091C2013F
:1014500086E08083E091BF01F091C00180818061CE
:101460008083E091BF01F091C0018081886080831A
:10147000E091BF01F091C001808180688083E0919C
:10148000BF01F091C00180818F7D808388EE93E061
:10149000A0E0B0E08093B1019093B201A093B301BA
:1014A000B093B4010E94C80480914A0290914B020B
:1014B0000E948E0D80915002909151020C948E0DDD
:1014C000E89409C097FB3EF49095809570956195DE
:1014D0007F4F8F4F9F4F9923A9F0F92F96E9BB2794
:1014E0009395F695879577956795B795F111F8CF10
:1014F000FAF4BB0F11F460FF1BC06F5F7F4F8F4F7B
:101500009F4F16C0882311F096E911C0772321F070
:101510009EE8872F762F05C0662371F096E8862F08
:1015200070E060E02AF09A95660F771F881FDAF75F
:10153000880F9695879597F90895990F0008550F8C
:10154000AA0BE0E8FEEF16161706E807F907C0F049
:1015500012161306E407F50798F0621B730B840B51
:10156000950B39F40A2661F0232B242B252B21F42B
:1015700008950A2609F4A140A6958FEF811D811DCB
:1015800008950E94D40A0C94450B0E94370B38F042
:101590000E943E0B20F0952311F00C942E0B0C941E
:1015A000340B11240C94790B0E94560B70F3959F09
:1015B000C1F3950F50E0551F629FF001729FBB274A
:1015C000F00DB11D639FAA27F00DB11DAA1F649FE6
:1015D0006627B00DA11D661F829F2227B00DA11D99
:1015E000621F739FB00DA11D621F839FA00D611D1F
:1015F000221F749F3327A00D611D231F849F600D40
:10160000211D822F762F6A2F11249F5750409AF068
:10161000F1F088234AF0EE0FFF1FBB1F661F771FF4
:10162000881F91505040A9F79E3F510580F00C94BF
:101630002E0B0C94790B5F3FE4F3983ED4F3869520
:1016400077956795B795F795E7959F5FC1F7FE2B5F
:10165000880F911D9695879597F9089597F99F673B
:1016600080E870E060E008959FEF80EC089500242A
:101670000A941616170618060906089500240A94F7
:1016800012161306140605060895092E0394000C7D
:1016900011F4882352F0BB0F40F4BF2B11F460FF0C
:1016A00004C06F5F7F4F8F4F9F4F089557FD905835
:1016B000440F551F59F05F3F71F04795880F97FB16
:1016C000991F61F09F3F79F08795089512161306D0
:1016D0001406551FF2CF4695F1DF08C016161706FF
:1016E0001806991FF1CF8695710561050894089534
:1016F000E894BB2766277727CB0197F908952F92A7
:101700003F924F925F926F927F928F929F92AF9291
:10171000BF92CF92DF92EF92FF920F931F93CF93DE
:10172000DF93CDB7DEB7CA1BDB0B0FB6F894DEBF75
:101730000FBECDBF09942A88398848885F846E849B
:101740007D848C849B84AA84B984C884DF80EE80E5
:10175000FD800C811B81AA81B981CE0FD11D0FB6EE
:10176000F894DEBF0FBECDBFED0108955058BB27E2
:10177000AA270E94CE0B0C94450B0E94370B38F021
:101780000E943E0B20F039F49F3F19F426F40C948C
:10179000340B0EF4E095E7FB0C942E0BE92F0E941E
:1017A000560B58F3BA17620773078407950720F0A2
:1017B00079F4A6F50C94780B0EF4E0950B2EBA2F65
:1017C000A02D0B01B90190010C01CA01A001112447
:1017D000FF27591B99F0593F50F4503E68F11A16F3
:1017E000F040A22F232F342F4427585FF3CF469584
:1017F00037952795A795F0405395C9F77EF41F16A6
:10180000BA0B620B730B840BBAF09150A1F0FF0F6F
:10181000BB1F661F771F881FC2F70EC0BA0F621F5B
:10182000731F841F48F4879577956795B795F7954B
:101830009E3F08F0B0CF9395880F08F09927EE0FE0
:101840009795879508950E94600CE3950C94890CF8
:101850000E942F0C6894B1110C94790B08950E948A
:101860005E0B88F09F5798F0B92F9927B751B0F0C9
:10187000E1F0660F771F881F991F1AF0BA95C9F714
:1018800014C0B13091F00E94780BB1E008950C942F
:10189000780B672F782F8827B85F39F0B93FCCF3E2
:1018A000869577956795B395D9F73EF49095809591
:1018B000709561957F4F8F4F9F4F08950C94340B17
:1018C0000E945E0BD8F3E894E0E0BB279F57F0F04E
:1018D0002AED3FE049EC06C0EE0FBB0F661F771FF5
:1018E000881F28F0B23A62077307840728F0B25ABB
:1018F000620B730B840BE3959A9572F7803830F482
:101900009A95BB0F661F771F881FD2F790480C94DB
:10191000AC0CEF93E0FF07C0A2EA2AED3FE049ECF0
:101920005FEB0E94CE0B0E94450B0F90039401FCCD
:101930009058ECEAF0E00C94B80C0E949D0A08F470
:101940008FEF08959F930E94600C0F9007FCEE5F4D
:101950000C94890C9F3F31F0915020F48795779536
:101960006795B795880F911D9695879597F9089576
:101970009F938F937F936F93FF93EF939B01AC01A2
:101980000E94C10AEF91FF910E94CC0C2F913F91D0
:101990004F915F910C94C10ADF93CF931F930F93E4
:1019A000FF92EF92DF927B018C01689406C0DA2EE1
:1019B000EF010E94D40AFE01E894A591259135918A
:1019C00045915591A6F3EF010E94CE0BFE019701C0
:1019D000A801DA9469F7DF90EF90FF900F911F91C3
:1019E000CF91DF910895EE0FFF1F0590F491E02D48
:1019F0000994CF93DF938230910510F482E090E058
:101A0000E0915802F091590220E030E0C0E0D0E0CF
:101A1000309711F14081518148175907C0F048179C
:101A2000590761F482819381209719F09B838A83FF
:101A30002BC0909359028093580226C0211531057E
:101A400019F04217530718F49A01BE01DF01EF01A4
:101A50000280F381E02DDCCF2115310509F1281B2F
:101A6000390B2430310590F412968D919C91139787
:101A70006115710521F0FB019383828304C090936B
:101A8000590280935802FD01329644C0FD01E20FD5
:101A9000F31F81939193225031092D933C933AC0C7
:101AA0002091560230915702232B41F420910E01D0
:101AB00030910F01309357022093560220910C0170
:101AC00030910D012115310541F42DB73EB74091FC
:101AD000100150911101241B350BE0915602F09139
:101AE0005702E217F307A0F42E1B3F0B2817390704
:101AF00078F0AC014E5F5F4F2417350748F04E0F6A
:101B00005F1F50935702409356028193919302C0F6
:101B1000E0E0F0E0CF01DF91CF9108950F931F93A4
:101B2000CF93DF93009709F48CC0FC0132971382A6
:101B3000128200915802109159020115110581F489
:101B400020813181820F931F2091560230915702DC
:101B50002817390779F5F0935702E093560271C0C0
:101B6000D80140E050E0AE17BF0750F412962D9117
:101B70003C911397AD012115310509F1D901F3CF3E
:101B80009D01DA013383228360817181860F971F63
:101B90008217930769F4EC0128813981260F371FDA
:101BA0002E5F3F4F318320838A819B819383828381
:101BB000452B29F4F0935902E093580242C0139642
:101BC000FC93EE931297ED01499159919E01240FD8
:101BD000351FE217F30771F480819181840F951FFF
:101BE000029611969C938E938281938113969C9377
:101BF0008E931297E0E0F0E0D80112968D919C91BF
:101C00001397009719F0F8018C01F6CF8D919C91F4
:101C100098012E5F3F4F820F931F20915602309103
:101C200057022817390769F4309729F4109259029E
:101C30001092580202C0138212821093570200932E
:101C40005602DF91CF911F910F910895A0E0B0E06F
:101C5000ECE2FEE00C94830BEC01009721F4CB0145
:101C60000E94F90CB8C0FC01E60FF71F9C0122503E
:101C70003109E217F30708F4ACC0D9010D911C91AA
:101C8000119706171707B0F00530110508F49FC02B
:101C9000C80104978617970708F499C002501109E4
:101CA000061B170B019311936D937C93CF010E9438
:101CB0008E0D8DC05B01A01AB10A4C01800E911EE1
:101CC000A0915802B091590240E050E0E12CF12C73
:101CD000109709F44AC0A815B905D1F56D907C900C
:101CE0001197630182E0C80ED11CCA14DB0480F195
:101CF000A3014A195B096A0182E0C80ED11C129641
:101D0000BC9012971396AC91B5E0CB16D10440F07D
:101D1000B282A38351834083D9016D937C930AC01F
:101D20000E5F1F4FC301800F911FF90191838083C4
:101D3000EB2DFA2FE114F10431F0D7011396FC9347
:101D4000EE93129744C0F0935902E09358023FC0BB
:101D50008D919C9111974817590708F4AC017D01AA
:101D600012960D90BC91A02DB3CF80915602909108
:101D7000570288159905E1F446175707C8F4809172
:101D80000C0190910D01009741F48DB79EB74091E1
:101D9000100150911101841B950BE817F907C8F445
:101DA000F0935702E0935602F901718360830FC0EC
:101DB000CB010E94F90C7C01009759F0A801BE01EB
:101DC0000E94F50ECE010E948E0DC70104C0CE0107
:101DD00002C080E090E0CDB7DEB7EEE00C949F0B40
:101DE00081E090E0F8940C94050FFB01DC0102C047
:101DF00001900D9241505040D8F70895FB01DC014D
:101E000001900D920020E1F7089510E0CCECD0E0B5
:101E100004C0FE010E94F30C2196CD3CD107C9F706
:041E2000F894FFCF64
:101E2400FFFFFFFF00E100000000000000005A0275
:101E3400800000C180810000000000000046010114
:101E44000467015C01AD016B018901000000002FF2
:0E1E5400039802C7027603F802D602EA0200E3
:2070000055C000006EC000006CC000006AC0000068C0000066C0000064C0000062C0000043
:2070200060C000005EC00000F2C400005AC0000058C0000056C0000054C0000052C00000EE
:2070400050C0000078C000004CC000004AC0000048C0000046C0000044C0000042C00000BE
:2070600040C000003EC000003CC000003AC0000038C0000036C0000034C0000032C0000048
:2070800030C000002EC000002CC000002AC0000028C0000026C0000024C0000022C00000A8
:2070A00020C000001EC000001CC0000011241FBECFEFDAE0DEBFCDBF11E0A0E0B1E0E2E3BC
:2070C000FFE702C005900D92A83AB107D9F711E0A8EAB1E001C01D92AE3BB107E1F78FD30B
:2070E00026C78ECFF89410926F0010928100109285001092840081E085BF15BE47985D98ED
:2071000028980C94000008952091B2013091B3012F5F3F4F3093B3012093B201932F37FFA8
:2071200003C08EEF831B982F990F921710F447980895479A08951F920F920FB60F9211246E
:207140002F938F939F93EF93FF9310928500109284008091A8019091A901009741F00197D3
:207160009093A9018093A801892B09F45D988091AA019091AB01009741F001979093AB0128
:207180008093AA01892B09F42898E0E0F0E0859194918F5F9F4F49F08091AC019091AD0153
:2071A00001969093AD018093AC01FF91EF919F918F912F910F900FBE0F901F90189584E0BC
:2071C0008093E9000DC08091E8008B778093E80003C08EB3882351F08091E80082FFF9CFBE
:2071E0008091E80085FFEFCF8091F1000895982F83E08093E9008091E80085FD0DC0809136
:20720000E8008E778093E80003C08EB3882369F08091E80080FFF9CF9093F1005D9A84E6C9
:2072200090E09093A9018093A80108954F925F926F927F928F929F92AF92BF92CF92DF921E
:20724000EF92FF920F931F93CF93DF9384E08093E9008091E80082FF57C2289A84E690E065
:207260009093AB018093AA01AADF182F853481F48CE49DE19093AD018093AC0107B600FC4B
:20728000FDCFF999FECF81E180935700E89503C0843519F494DF8DE00DC28C34E1F38035F9
:2072A000D1F3843721F484E4A2DF80E003C2813611F489E5FFC18134B1F481DF182F7FDFE3
:2072C00090E0880F991FAA2797FDA095BA2F312F330F20E0442737FD4095542F822B932B68
:2072E000A42BB52BB8C1803711F483E5E3C1833549F4C0E0D1E089917ADF21E0C730D20714
:20730000D1F7D9C1863521F481E371DF80E3D2C1833731F487E86BDF85E969DF8EE1CAC149
:207320008536B9F4E0E0F0E093E085E090935700E89507B600FCFDCF80935700E89507B65D
:2073400000FCFDCFE058FF4FA0E7E030FA0771F7A2CF823739F4E1E0F0E089E08093570024
:207360008491A8C1863439F4E0E0F0E089E08093570084919FC18E3439F4E3E0F0E089E0E5
:2073800080935700849196C1813539F4E2E0F0E089E08093570084918DC1823631F489E521
:2073A00026DF80E024DF80E885C1823419F0873609F0E5C01092AD011092AC0100DF082FE8
:2073C000FEDEF82EFCDE682E8554823008F071C1902F80E0CF2DD0E0C82BD92B10926F00B3
:2073E000173609F04BC081E180935700E895DD24CC24C3943FC0E090AE01F090AF010091CC
:20740000B0011091B101B6E46B16D9F4ED2DF0E0EE29FF29E4918E2FEADEDD2081F082E08D
:2074200090E0A0E0B0E0E80EF91E0A1F1B1FE092AE01F092AF010093B0011093B101DC2470
:2074400018C0D801C701B695A7959795879559D5CEDE82E090E0A0E0B0E0E80EF91E0A1FF2
:207460001B1FE092AE01F092AF010093B0011093B1012197209709F0BECF7DC08090AE01F5
:207480009090AF01A090B001B090B10196E4691609F05DC083E0F40180935700E89507B63E
:2074A00000FCFDCF54C0F6E46F1661F5772031F1E090AE01F090AF010091B0011091B1019E
:2074C0007EDED82ECC24852D90E08C299D29F7010C0140925700E895112482E090E0A0E08B
:2074E000B0E0E80EF91E0A1F1B1FE092AE01F092AF010093B0011093B10102C060DE582E1A
:20750000742423C0E090AE01F090AF010091B0011091B10116950795F794E79450DE682FFA
:20752000C701F7D48091AE019091AF01A091B001B091B1010296A11DB11D8093AE01909349
:20754000AF01A093B001B093B101219704C05524772444244394209709F0A5CF96E46916B6
:2075600041F485E0F40180935700E89507B600FCFDCF8DE03CDE82E080936F009CC0833492
:2075800071F40091AE011091AF0119DE90E021E0F8010C0120935700E89511247CCE8336C8
:2075A00019F5E090AE01F090AF010091B0011091B10105DEF701E16090E021E00C0120938C
:2075C0005700E895112482E090E0A0E0B0E0E80EF91E0A1F1B1FE092AE01F092AF0100936A
:2075E000B0011093B10157CE8D3661F4E091AE01F091AF0185E080935700E89507B600FCF2
:20760000FDCF49CE823551F4E091AE01F091AF0105911491812FEBDD802F4CC0843421F5FE
:20762000E090AE01F090AF010091B0011091B10116950795F794E794C2DD682FC70169D4DE
:207640008091AE019091AF01A091B001B091B1010296A11DB11D8093AE019093AF01A093D8
:20766000B001B093B10117CE843609F5E090AE01F090AF010091B0011091B101D801C70142
:20768000B695A795979587953CD4B1DD82E090E0A0E0B0E0E80EF91E0A1F1B1FE092AE010A
:2076A000F092AF010093B0011093B10104C08B3111F08FE39CDD83E08093E9009091E8002B
:2076C0008091E8008E778093E80095FF04C010C08EB38823C9F08091E80080FFF9CF809193
:2076E000E8008E778093E80003C08EB3882361F08091E80080FFF9CF84E08093E9008091F1
:20770000E8008B778093E800DF91CF911F910F91FF90EF90DF90CF90BF90AF909F908F90AC
:207720007F906F905F904F9008959091B601892F8F77813249F58091B7018032A1F081328A
:2077400019F5913A09F58091E800877F8093E8008DE091E067E070E00BD28091E8008B770B
:207760008093E8000895913279F48091E800877F8093E8008DE091E067E070E05DD2809192
:20778000E8008E778093E800089582E061EC42E0B5D083E061E842E1B1D084E060E842E1EF
:2077A000ADC084B7877F84BF88E10FB6F89480936000109260000FBE20E880E090E00FB63F
:2077C000F89420936100809361000FBE81E085BF92E095BF3F9A209A559AE1E6F0E02083A1
:2077E000108247985D982898109289008AEF8093880090936F0083E080938100F0C040911A
:20780000000850910108109201081092000894B714BE88E10FB6F8948093600010926000D5
:207820000FBE292F30E0F901E270F07091FD18C090FF05C0859194918F5F9F4F81F423FFFF
:207840000FC08091090190910A014817590741F0E0E0F0E0859194918F5F9F4F09F042DC64
:20786000A0DF78941092AD011092AC010CC0DEDC36D38091AC019091AD0181549F4110F00D
:207880001092140141DC80911401882381F78091E00081608093E00025DC80E090E0089598
:2078A000FA01923049F0933061F09130F9F485E191E022E130E01EC087E291E02EE330E04D
:2078C00019C0882329F485E691E024E030E012C0813029F489E691E022E230E00BC0823006
:2078E00029F48DE891E028E130E004C080E090E020E030E091838083C90108958093E9004E
:207900008091EB0081608093EB001092ED006093EC004093ED008091EE00881F8827881F62
:2079200008958091B60188238CF403C08EB38823B1F08091E80082FFF9CF8091E8008B772A
:207940008093E80008958EB3882349F08091E80080FFF9CF8091E8008E778093E800089594
:20796000EF92FF920F931F9345D04CD008ED10E0F80180818F77808380818068808380819B
:207980008F7D808319BC1EBA1092B40180EEE82EF12CF70180818B7F8083F8018081816052
:2079A000808380E060E042E0A9DFE1EEF0E080818E7F8083E2EEF0E0808181608083808144
:2079C00088608083F70180818E7F8083F8018081806180831F910F91FF90EF900895E7ED06
:2079E000F0E08081816080838AE482BF81E08093B501B6CFE8EDF0E080818E7F808310921C
:207A0000E20008951092DA001092E10008951F920F920FB60F9211242F933F934F935F93F6
:207A20006F937F938F939F93AF93BF93EF93FF938091DA0080FF1BC08091D80080FF17C0B2
:207A40008091DA008E7F8093DA008091D90080FF0BC080E189BD82E189BD09B400FEFDCF36
:207A600081E08EBB3BD203C019BC1EBA37D28091E10080FF17C08091E20080FF13C0809138
:207A8000E2008E7F8093E2008091E20080618093E2008091D80080628093D80019BC85E049
:207AA0008EBB1CD28091E10084FF2CC08091E20084FF28C080E189BD82E189BD09B400FEC5
:207AC000FDCF8091D8008F7D8093D8008091E1008F7E8093E1008091E2008F7E8093E20012
:207AE0008091E20081608093E2008091B401882331F48091E30087FD02C081E001C084E067
:207B00008EBBECD18091E10083FF21C08091E20083FF1DC08091E100877F8093E10082E06A
:207B20008EBB1092B4018091E1008E7F8093E1008091E2008E7F8093E2008091E2008061E9
:207B40008093E20080E060E042E0D8DEC7D1FF91EF91BF91AF919F918F917F916F915F9130
:207B60004F913F912F910F900FBE0F901F9018959C014091BC015091BD014617570718F49D
:207B8000F90190E044C06115710511F0AB01F8CF8091E8008E778093E80040E050E0F0CF0F
:207BA0008EB3882309F444C0853009F443C08091E80083FF02C081E008958091E80082FD70
:207BC00031C08091E80080FF22C08091F3009091F200782F60E0292F30E0262B372B07C07A
:207BE00081918093F100415050402F5F3F4F4115510519F02830310598F390E02830310566
:207C000009F491E08091E8008E778093E8004115510531F6992321F605C08EB3882341F075
:207C2000853041F08091E80082FFF7CF80E0089582E0089583E008959C016115710529F47C
:207C40008091E8008B778093E800F90126C08EB3882391F1853091F18091E80083FF02C06C
:207C600081E008958091E80082FFF1CF06C08091F10081936150704059F02091F300809191
:207C8000F200322F20E090E0822B932B892B79F78091E8008B778093E80061157105B9F601
:207CA00005C08EB3882341F0853041F08091E80080FFF7CF80E0089582E0089583E00895C2
:207CC0000F931F93DF93CF9300D0CDB7DEB7E6EBF1E08091F100819381E0EE3BF807C9F792
:207CE00024DD8091E80083FFE4C08091B6019091B701953009F46DC0963040F4913081F1A7
:207D0000913070F0933009F0D4C02AC0983009F4A3C0993009F4B2C0963009F0CAC07CC023
:207D2000803809F4C6C0823809F0C3C08091BA0187708093E9008091EB001092E9002091DB
:207D4000E800277F2093E80090E025E0969587952A95E1F781708093F1001092F10087C0D8
:207D6000882319F0823009F0A4C08F71823009F0A0C08091B801882331F52091BA01277097
:207D800009F497C02093E9008091EB0080FF1BC0933021F48091EB00806213C08091EB0018
:207DA00080618093EB0081E090E002C0880F991F2A95E2F78093EA001092EA008091EB00E5
:207DC00088608093EB001092E9008091E800877F51C0882309F06DC01091B8011F770FB79B
:207DE000F8948091E800877F8093E8009ADD8091E80080FFFCCF8091E3008078812B809398
:207E0000E30080688093E300112311F482E001C083E08EBB0FBF4DC08058823008F049C033
:207E20008091B8019091B9016091BA01AE014F5F5F4F36DDBC01009709F43BC08091E8008E
:207E4000877F8093E80089819A8192DE8091E8008B778093E8002DC0803859F58091E800AA
:207E6000877F8093E8008091B4018093F1008091E8008E778093E80054DD1BC08823C9F4CA
:207E80009091B8019230A8F48091E800877F8093E8009093B40145DD8091B401882331F420
:207EA0008091E30087FD02C081E001C084E08EBB6CDC8091E80083FF0AC08091EB0080624E
:207EC0008093EB008091E800877F8093E8000F900F90CF91DF911F910F91089508951F9360
:207EE0008EB3882361F01091E9001092E9008091E80083FF01C0E4DE17701093E9001F916F
:207F00000895F999FECF92BD81BDF89A992780B50895262FF999FECF1FBA92BD81BD20BDBD
:207F20000FB6F894FA9AF99A0FBE01960895F894FFCF4341544552494E4100777700080031
:207F40000000000000080112011001020000084123370001000201000109023E00020100FE
:207F600080320904000001020201000524001001042402040524060001070582030800FF0C
:207F800009040100020A000000070504021000010705830210000104030904220341007216
:207FA000006400750069006E006F0020004D006900630072006F0020002000200000001810
:1A7FC00003410072006400750069006E006F0020004C004C004300000000D7
:00000001FF
